{"contracts/Weathercontract.sol":{"Weathercontract":{"abi":[{"inputs":[{"internalType":"string","name":"zipCode","type":"string"},{"internalType":"string","name":"apiKey","type":"string"},{"internalType":"string","name":"unit","type":"string"}],"name":"getWeatherTemperature","outputs":[{"internalType":"int256","name":"","type":"int256"}],"stateMutability":"pure","type":"function"}],"evm":{"bytecode":{"linkReferences":{},"object":"608060405234801561001057600080fd5b506101ba806100206000396000f3fe608060405234801561001057600080fd5b506004361061002b5760003560e01c806329b1f86314610030575b600080fd5b61004761003e3660046100fc565b60199392505050565b60405190815260200160405180910390f35b634e487b7160e01b600052604160045260246000fd5b600082601f83011261008057600080fd5b813567ffffffffffffffff8082111561009b5761009b610059565b604051601f8301601f19908116603f011681019082821181831017156100c3576100c3610059565b816040528381528660208588010111156100dc57600080fd5b836020870160208301376000602085830101528094505050505092915050565b60008060006060848603121561011157600080fd5b833567ffffffffffffffff8082111561012957600080fd5b6101358783880161006f565b9450602086013591508082111561014b57600080fd5b6101578783880161006f565b9350604086013591508082111561016d57600080fd5b5061017a8682870161006f565b915050925092509256fea2646970667358221220fe5ec43552ac6e032149c301f0a89b4b68a2dcd815d159880a92c3fe4ea04f0764736f6c63430008120033","opcodes":"PUSH1 0x80 PUSH1 0x40 MSTORE CALLVALUE DUP1 ISZERO PUSH2 0x10 JUMPI PUSH1 0x0 DUP1 REVERT JUMPDEST POP PUSH2 0x1BA DUP1 PUSH2 0x20 PUSH1 0x0 CODECOPY PUSH1 0x0 RETURN INVALID PUSH1 0x80 PUSH1 0x40 MSTORE CALLVALUE DUP1 ISZERO PUSH2 0x10 JUMPI PUSH1 0x0 DUP1 REVERT JUMPDEST POP PUSH1 0x4 CALLDATASIZE LT PUSH2 0x2B JUMPI PUSH1 0x0 CALLDATALOAD PUSH1 0xE0 SHR DUP1 PUSH4 0x29B1F863 EQ PUSH2 0x30 JUMPI JUMPDEST PUSH1 0x0 DUP1 REVERT JUMPDEST PUSH2 0x47 PUSH2 0x3E CALLDATASIZE PUSH1 0x4 PUSH2 0xFC JUMP JUMPDEST PUSH1 0x19 SWAP4 SWAP3 POP POP POP JUMP JUMPDEST PUSH1 0x40 MLOAD SWAP1 DUP2 MSTORE PUSH1 0x20 ADD PUSH1 0x40 MLOAD DUP1 SWAP2 SUB SWAP1 RETURN JUMPDEST PUSH4 0x4E487B71 PUSH1 0xE0 SHL PUSH1 0x0 MSTORE PUSH1 0x41 PUSH1 0x4 MSTORE PUSH1 0x24 PUSH1 0x0 REVERT JUMPDEST PUSH1 0x0 DUP3 PUSH1 0x1F DUP4 ADD SLT PUSH2 0x80 JUMPI PUSH1 0x0 DUP1 REVERT JUMPDEST DUP2 CALLDATALOAD PUSH8 0xFFFFFFFFFFFFFFFF DUP1 DUP3 GT ISZERO PUSH2 0x9B JUMPI PUSH2 0x9B PUSH2 0x59 JUMP JUMPDEST PUSH1 0x40 MLOAD PUSH1 0x1F DUP4 ADD PUSH1 0x1F NOT SWAP1 DUP2 AND PUSH1 0x3F ADD AND DUP2 ADD SWAP1 DUP3 DUP3 GT DUP2 DUP4 LT OR ISZERO PUSH2 0xC3 JUMPI PUSH2 0xC3 PUSH2 0x59 JUMP JUMPDEST DUP2 PUSH1 0x40 MSTORE DUP4 DUP2 MSTORE DUP7 PUSH1 0x20 DUP6 DUP9 ADD ADD GT ISZERO PUSH2 0xDC JUMPI PUSH1 0x0 DUP1 REVERT JUMPDEST DUP4 PUSH1 0x20 DUP8 ADD PUSH1 0x20 DUP4 ADD CALLDATACOPY PUSH1 0x0 PUSH1 0x20 DUP6 DUP4 ADD ADD MSTORE DUP1 SWAP5 POP POP POP POP POP SWAP3 SWAP2 POP POP JUMP JUMPDEST PUSH1 0x0 DUP1 PUSH1 0x0 PUSH1 0x60 DUP5 DUP7 SUB SLT ISZERO PUSH2 0x111 JUMPI PUSH1 0x0 DUP1 REVERT JUMPDEST DUP4 CALLDATALOAD PUSH8 0xFFFFFFFFFFFFFFFF DUP1 DUP3 GT ISZERO PUSH2 0x129 JUMPI PUSH1 0x0 DUP1 REVERT JUMPDEST PUSH2 0x135 DUP8 DUP4 DUP9 ADD PUSH2 0x6F JUMP JUMPDEST SWAP5 POP PUSH1 0x20 DUP7 ADD CALLDATALOAD SWAP2 POP DUP1 DUP3 GT ISZERO PUSH2 0x14B JUMPI PUSH1 0x0 DUP1 REVERT JUMPDEST PUSH2 0x157 DUP8 DUP4 DUP9 ADD PUSH2 0x6F JUMP JUMPDEST SWAP4 POP PUSH1 0x40 DUP7 ADD CALLDATALOAD SWAP2 POP DUP1 DUP3 GT ISZERO PUSH2 0x16D JUMPI PUSH1 0x0 DUP1 REVERT JUMPDEST POP PUSH2 0x17A DUP7 DUP3 DUP8 ADD PUSH2 0x6F JUMP JUMPDEST SWAP2 POP POP SWAP3 POP SWAP3 POP SWAP3 JUMP INVALID LOG2 PUSH5 0x6970667358 0x22 SLT KECCAK256 INVALID 0x5E 0xC4 CALLDATALOAD MSTORE 0xAC PUSH15 0x32149C301F0A89B4B68A2DCD815D1 MSIZE DUP9 EXP SWAP3 0xC3 INVALID 0x4E LOG0 0x4F SMOD PUSH5 0x736F6C6343 STOP ADDMOD SLT STOP CALLER "},"methodIdentifiers":{"getWeatherTemperature(string,string,string)":"29b1f863"}},"storageLayout":{"storage":[],"types":null}}}}