{"contracts/AccuweatherConsumer.sol":{"AccuweatherConsumer":{"abi":[{"inputs":[{"internalType":"address","name":"_link","type":"address"},{"internalType":"address","name":"_oracle","type":"address"}],"stateMutability":"nonpayable","type":"constructor"},{"anonymous":false,"inputs":[{"indexed":true,"internalType":"bytes32","name":"id","type":"bytes32"}],"name":"ChainlinkCancelled","type":"event"},{"anonymous":false,"inputs":[{"indexed":true,"internalType":"bytes32","name":"id","type":"bytes32"}],"name":"ChainlinkFulfilled","type":"event"},{"anonymous":false,"inputs":[{"indexed":true,"internalType":"bytes32","name":"id","type":"bytes32"}],"name":"ChainlinkRequested","type":"event"},{"inputs":[{"internalType":"bytes32","name":"_requestId","type":"bytes32"},{"internalType":"bytes","name":"_currentConditionsResult","type":"bytes"}],"name":"fulfillCurrentConditions","outputs":[],"stateMutability":"nonpayable","type":"function"},{"inputs":[{"internalType":"bytes32","name":"_requestId","type":"bytes32"},{"internalType":"bool","name":"_locationFound","type":"bool"},{"internalType":"bytes","name":"_locationResult","type":"bytes"}],"name":"fulfillLocation","outputs":[],"stateMutability":"nonpayable","type":"function"},{"inputs":[{"internalType":"bytes32","name":"_requestId","type":"bytes32"},{"internalType":"bool","name":"_locationFound","type":"bool"},{"internalType":"bytes","name":"_locationResult","type":"bytes"},{"internalType":"bytes","name":"_currentConditionsResult","type":"bytes"}],"name":"fulfillLocationCurrentConditions","outputs":[],"stateMutability":"nonpayable","type":"function"},{"inputs":[],"name":"getOracleAddress","outputs":[{"internalType":"address","name":"","type":"address"}],"stateMutability":"view","type":"function"},{"inputs":[{"internalType":"bytes32","name":"_specId","type":"bytes32"},{"internalType":"uint256","name":"_payment","type":"uint256"},{"internalType":"uint256","name":"_locationKey","type":"uint256"},{"internalType":"string","name":"_units","type":"string"}],"name":"requestCurrentConditions","outputs":[],"stateMutability":"nonpayable","type":"function"},{"inputs":[{"internalType":"bytes32","name":"","type":"bytes32"}],"name":"requestIdCurrentConditionsResult","outputs":[{"internalType":"uint256","name":"timestamp","type":"uint256"},{"internalType":"uint24","name":"precipitationPast12Hours","type":"uint24"},{"internalType":"uint24","name":"precipitationPast24Hours","type":"uint24"},{"internalType":"uint24","name":"precipitationPastHour","type":"uint24"},{"internalType":"uint24","name":"pressure","type":"uint24"},{"internalType":"int16","name":"temperature","type":"int16"},{"internalType":"uint16","name":"windDirectionDegrees","type":"uint16"},{"internalType":"uint16","name":"windSpeed","type":"uint16"},{"internalType":"uint8","name":"precipitationType","type":"uint8"},{"internalType":"uint8","name":"relativeHumidity","type":"uint8"},{"internalType":"uint8","name":"uvIndex","type":"uint8"},{"internalType":"uint8","name":"weatherIcon","type":"uint8"}],"stateMutability":"view","type":"function"},{"inputs":[{"internalType":"bytes32","name":"","type":"bytes32"}],"name":"requestIdLocationResult","outputs":[{"internalType":"uint256","name":"locationKey","type":"uint256"},{"internalType":"string","name":"name","type":"string"},{"internalType":"bytes2","name":"countryCode","type":"bytes2"}],"stateMutability":"view","type":"function"},{"inputs":[{"internalType":"bytes32","name":"","type":"bytes32"}],"name":"requestIdRequestParams","outputs":[{"internalType":"uint256","name":"locationKey","type":"uint256"},{"internalType":"string","name":"endpoint","type":"string"},{"internalType":"string","name":"lat","type":"string"},{"internalType":"string","name":"lon","type":"string"},{"internalType":"string","name":"units","type":"string"}],"stateMutability":"view","type":"function"},{"inputs":[{"internalType":"bytes32","name":"_specId","type":"bytes32"},{"internalType":"uint256","name":"_payment","type":"uint256"},{"internalType":"string","name":"_lat","type":"string"},{"internalType":"string","name":"_lon","type":"string"}],"name":"requestLocation","outputs":[],"stateMutability":"nonpayable","type":"function"},{"inputs":[{"internalType":"bytes32","name":"_specId","type":"bytes32"},{"internalType":"uint256","name":"_payment","type":"uint256"},{"internalType":"string","name":"_lat","type":"string"},{"internalType":"string","name":"_lon","type":"string"},{"internalType":"string","name":"_units","type":"string"}],"name":"requestLocationCurrentConditions","outputs":[],"stateMutability":"nonpayable","type":"function"},{"inputs":[{"internalType":"address","name":"_oracle","type":"address"}],"name":"setOracle","outputs":[],"stateMutability":"nonpayable","type":"function"},{"inputs":[],"name":"withdrawLink","outputs":[],"stateMutability":"nonpayable","type":"function"}],"evm":{"bytecode":{"linkReferences":{},"object":"608060405260016004553480156200001657600080fd5b506040516200256538038062002565833981016040819052620000399162000094565b600280546001600160a01b0319166001600160a01b038416179055600380546001600160a01b0319166001600160a01b0383161790555050620000cc565b80516001600160a01b03811681146200008f57600080fd5b919050565b60008060408385031215620000a857600080fd5b620000b38362000077565b9150620000c36020840162000077565b90509250929050565b61248980620000dc6000396000f3fe608060405234801561001057600080fd5b50600436106100b45760003560e01c80638dc654a2116100715780638dc654a21461024f5780639c2b98fb14610257578063b18b78dd14610279578063dffe289414610299578063e13caa63146102ac578063ed6a7175146102bf57600080fd5b80630d6011b3146100b957806324a1065d146100ce578063371eaced146100e157806337b95e86146100f45780634d425a84146102105780637adbf97314610223575b600080fd5b6100cc6100c73660046119a8565b6102e3565b005b6100cc6100dc366004611a2a565b6104c9565b6100cc6100ef366004611ba6565b610684565b610196610102366004611c25565b60066020526000908152604090208054600191820154909162ffffff808316926301000000810482169266010000000000008204831692690100000000000000000083041691600160601b810490910b9061ffff600160701b8204811691600160801b81049091169060ff600160901b8204811691600160981b8104821691600160a01b8204811691600160a81b9004168c565b604080519c8d5262ffffff9b8c1660208e0152998b16998c019990995296891660608b015294909716608089015260019290920b60a088015261ffff90811660c08801521660e086015260ff9384166101008601528316610120850152821661014084015216610160820152610180015b60405180910390f35b6100cc61021e366004611c3e565b610729565b6100cc610231366004611cea565b600380546001600160a01b0319166001600160a01b03831617905550565b6100cc6109c5565b61026a610265366004611c25565b610afe565b60405161020793929190611d6a565b610281610bac565b6040516001600160a01b039091168152602001610207565b6100cc6102a7366004611d9a565b610bc5565b6100cc6102ba366004611df2565b610c56565b6102d26102cd366004611c25565b610ce0565b604051610207959493929190611e38565b60006102f787306337ff8a2560e21b610f2f565b905061034e60405180604001604052806008815260200167195b991c1bda5b9d60c21b815250604051806040016040528060088152602001673637b1b0ba34b7b760c11b81525083610f549092919063ffffffff16565b6103ad604051806040016040528060038152602001621b185d60ea1b81525086868080601f016020809104026020016040519081016040528093929190818152602001838380828437600092019190915250869493925050610f549050565b61040c604051806040016040528060038152602001623637b760e91b81525084848080601f016020809104026020016040519081016040528093929190818152602001838380828437600092019190915250869493925050610f549050565b60006104188288610f72565b90506104bf816000604051806040016040528060088152602001673637b1b0ba34b7b760c11b81525089898080601f01602080910402602001604051908101604052809392919081815260200183838082843760009201919091525050604080516020601f8d018190048102820181019092528b815292508b91508a9081908401838280828437600092018290525060408051602081019091529081529250610f95915050565b5050505050505050565b60006104dd863063e13caa6360e01b610f2f565b905061053e60405180604001604052806008815260200167195b991c1bda5b9d60c21b8152506040518060400160405280601281526020017163757272656e742d636f6e646974696f6e7360701b81525083610f549092919063ffffffff16565b60408051808201909152600b81526a6c6f636174696f6e4b657960a81b602082015261056c9082908661104c565b6105cd60405180604001604052806005815260200164756e69747360d81b81525084848080601f016020809104026020016040519081016040528093929190818152602001838380828437600092019190915250869493925050610f549050565b60006105d98287610f72565b905061067b81866040518060400160405280601281526020017163757272656e742d636f6e646974696f6e7360701b815250604051806040016040528060018152602001600360fc1b815250604051806040016040528060018152602001600360fc1b81525089898080601f016020809104026020016040519081016040528093929190818152602001838380828437600092019190915250610f9592505050565b50505050505050565b60008481526005602052604090205484906001600160a01b031633146106c55760405162461bcd60e51b81526004016106bc90611e97565b60405180910390fd5b60008181526005602052604080822080546001600160a01b03191690555182917f7cc135e0cebb02c3480ae5d74d377283180a2601f8f644edf7987b009316c63a91a2831561072257610718858461106a565b61072285836110d2565b5050505050565b600061073d893063371eaced60e01b610f2f565b90506107a960405180604001604052806008815260200167195b991c1bda5b9d60c21b8152506040518060400160405280601b81526020017f6c6f636174696f6e2d63757272656e742d636f6e646974696f6e73000000000081525083610f549092919063ffffffff16565b610808604051806040016040528060038152602001621b185d60ea1b81525088888080601f016020809104026020016040519081016040528093929190818152602001838380828437600092019190915250869493925050610f549050565b610867604051806040016040528060038152602001623637b760e91b81525086868080601f016020809104026020016040519081016040528093929190818152602001838380828437600092019190915250869493925050610f549050565b6108c860405180604001604052806005815260200164756e69747360d81b81525084848080601f016020809104026020016040519081016040528093929190818152602001838380828437600092019190915250869493925050610f549050565b60006108d4828a610f72565b90506109b68160006040518060400160405280601b81526020017f6c6f636174696f6e2d63757272656e742d636f6e646974696f6e7300000000008152508b8b8080601f01602080910402602001604051908101604052809392919081815260200183838082843760009201919091525050604080516020601f8f018190048102820181019092528d815292508d91508c908190840183828082843760009201919091525050604080516020601f8e018190048102820181019092528c815292508c91508b9081908401838280828437600092019190915250610f9592505050565b50505050505050505050565b50565b60006109d96002546001600160a01b031690565b6040516370a0823160e01b81523060048201529091506001600160a01b0382169063a9059cbb90339083906370a0823190602401602060405180830381865afa158015610a2a573d6000803e3d6000fd5b505050506040513d601f19601f82011682018060405250810190610a4e9190611edf565b6040516001600160e01b031960e085901b1681526001600160a01b03909216600483015260248201526044016020604051808303816000875af1158015610a99573d6000803e3d6000fd5b505050506040513d601f19601f82011682018060405250810190610abd9190611ef8565b6109c25760405162461bcd60e51b81526020600482015260126024820152712ab730b13632903a37903a3930b739b332b960711b60448201526064016106bc565b60076020526000908152604090208054600182018054919291610b2090611f15565b80601f0160208091040260200160405190810160405280929190818152602001828054610b4c90611f15565b8015610b995780601f10610b6e57610100808354040283529160200191610b99565b820191906000526020600020905b815481529060010190602001808311610b7c57829003601f168201915b5050506002909301549192505060f01b83565b6000610bc06003546001600160a01b031690565b905090565b60008381526005602052604090205483906001600160a01b03163314610bfd5760405162461bcd60e51b81526004016106bc90611e97565b60008181526005602052604080822080546001600160a01b03191690555182917f7cc135e0cebb02c3480ae5d74d377283180a2601f8f644edf7987b009316c63a91a28215610c5057610c50848361106a565b50505050565b60008281526005602052604090205482906001600160a01b03163314610c8e5760405162461bcd60e51b81526004016106bc90611e97565b60008181526005602052604080822080546001600160a01b03191690555182917f7cc135e0cebb02c3480ae5d74d377283180a2601f8f644edf7987b009316c63a91a2610cdb83836110d2565b505050565b60086020526000908152604090208054600182018054919291610d0290611f15565b80601f0160208091040260200160405190810160405280929190818152602001828054610d2e90611f15565b8015610d7b5780601f10610d5057610100808354040283529160200191610d7b565b820191906000526020600020905b815481529060010190602001808311610d5e57829003601f168201915b505050505090806002018054610d9090611f15565b80601f0160208091040260200160405190810160405280929190818152602001828054610dbc90611f15565b8015610e095780601f10610dde57610100808354040283529160200191610e09565b820191906000526020600020905b815481529060010190602001808311610dec57829003601f168201915b505050505090806003018054610e1e90611f15565b80601f0160208091040260200160405190810160405280929190818152602001828054610e4a90611f15565b8015610e975780601f10610e6c57610100808354040283529160200191610e97565b820191906000526020600020905b815481529060010190602001808311610e7a57829003601f168201915b505050505090806004018054610eac90611f15565b80601f0160208091040260200160405190810160405280929190818152602001828054610ed890611f15565b8015610f255780601f10610efa57610100808354040283529160200191610f25565b820191906000526020600020905b815481529060010190602001808311610f0857829003601f168201915b5050505050905085565b610f37611925565b610f3f611925565b610f4b81868686611298565b95945050505050565b6080830151610f6390836112de565b6080830151610cdb90826112de565b600354600090610f8c906001600160a01b031684846112f5565b90505b92915050565b610fc76040518060a0016040528060008152602001606081526020016060815260200160608152602001606081525090565b85815260208082018681526040808401879052606084018690526080840185905260008a81526008909352909120825181559051829190600182019061100d9082611f97565b50604082015160028201906110229082611f97565b50606082015160038201906110379082611f97565b50608082015160048201906109b69082611f97565b608083015161105b90836112de565b6080830151610cdb9082611388565b6000818060200190518101906110809190612073565b60008481526007602090815260409091208251815590820151919250829160018201906110ad9082611f97565b50604091909101516002909101805461ffff191660f09290921c919091179055505050565b6000818060200190518101906110e8919061217a565b905080600660008581526020019081526020016000206000820151816000015560208201518160010160006101000a81548162ffffff021916908362ffffff16021790555060408201518160010160036101000a81548162ffffff021916908362ffffff16021790555060608201518160010160066101000a81548162ffffff021916908362ffffff16021790555060808201518160010160096101000a81548162ffffff021916908362ffffff16021790555060a082015181600101600c6101000a81548161ffff021916908360010b61ffff16021790555060c082015181600101600e6101000a81548161ffff021916908361ffff16021790555060e08201518160010160106101000a81548161ffff021916908361ffff1602179055506101008201518160010160126101000a81548160ff021916908360ff1602179055506101208201518160010160136101000a81548160ff021916908360ff1602179055506101408201518160010160146101000a81548160ff021916908360ff1602179055506101608201518160010160156101000a81548160ff021916908360ff160217905550905050505050565b6112a0611925565b6112b085608001516101006113b1565b50508284526001600160a01b03821660208501526001600160e01b031981166040850152835b949350505050565b6112eb8260038351611416565b610cdb828261151d565b600454600090611306816001612275565b600455835160408086015160808701515191516000936320214ca360e11b9361133e9386938493923092918a91600191602401612288565b60408051601f198184030181529190526020810180516001600160e01b03166001600160e01b031990931692909217909152905061137e86838684611544565b9695505050505050565b6001600160401b038111156113a5576113a182826116a2565b5050565b6113a182600083611416565b6040805180820190915260608152600060208201526113d16020836122f0565b156113f9576113e16020836122f0565b6113ec906020612312565b6113f69083612275565b91505b506020828101829052604080518085526000815290920101905290565b6017816001600160401b03161161143a57610c508360e0600585901b1683176116d9565b60ff816001600160401b03161161147657611460836018611fe0600586901b16176116d9565b50610c50836001600160401b03831660016116fe565b61ffff816001600160401b0316116114b35761149d836019611fe0600586901b16176116d9565b50610c50836001600160401b03831660026116fe565b63ffffffff816001600160401b0316116114f2576114dc83601a611fe0600586901b16176116d9565b50610c50836001600160401b03831660046116fe565b61150783601b611fe0600586901b16176116d9565b50610c50836001600160401b03831660086116fe565b604080518082019091526060815260006020820152610f8c83846000015151848551611724565b6040516bffffffffffffffffffffffff193060601b1660208201526034810184905260009060540160408051808303601f1901815282825280516020918201206000818152600590925291812080546001600160a01b0319166001600160a01b038a1617905590925082917fb5e6e01e79f91267dc17b4e6314d5d4d03593d2ceee0fbb452b750bd70ea5af99190a2600254604051630200057560e51b81526001600160a01b0390911690634000aea09061160790889087908790600401612325565b6020604051808303816000875af1158015611626573d6000803e3d6000fd5b505050506040513d601f19601f8201168201806040525081019061164a9190611ef8565b6112d65760405162461bcd60e51b815260206004820152602360248201527f756e61626c6520746f207472616e73666572416e6443616c6c20746f206f7261604482015262636c6560e81b60648201526084016106bc565b6116ad8260c26116d9565b506113a182826040516020016116c591815260200190565b60405160208183030381529060405261180e565b604080518082019091526060815260006020820152610f8c838460000151518461181b565b6040805180820190915260608152600060208201526112d6848560000151518585611876565b604080518082019091526060815260006020820152825182111561174757600080fd5b60208501516117568386612275565b11156117895761178985611779876020015187866117749190612275565b6118f7565b61178490600261234c565b61190e565b6000808651805187602083010193508088870111156117a85787860182525b505050602084015b602084106117e857805182526117c7602083612275565b91506117d4602082612275565b90506117e1602085612312565b93506117b0565b51815160001960208690036101000a019081169019919091161790525083949350505050565b6112eb8260028351611416565b60408051808201909152606081526000602082015283602001518310611850576118508485602001516002611784919061234c565b835180516020858301018481535080850361186c576001810182525b5093949350505050565b604080518082019091526060815260006020820152602085015161189a8584612275565b11156118ae576118ae856117798685612275565b600060016118be84610100612447565b6118c89190612312565b90508551838682010185831982511617815250805184870111156118ec5783860181525b509495945050505050565b600081831115611908575081610f8f565b50919050565b815161191a83836113b1565b50610c50838261151d565b6040805160a0810182526000808252602080830182905282840182905260608084018390528451808601909552845283015290608082015290565b60008083601f84011261197257600080fd5b5081356001600160401b0381111561198957600080fd5b6020830191508360208285010111156119a157600080fd5b9250929050565b600080600080600080608087890312156119c157600080fd5b863595506020870135945060408701356001600160401b03808211156119e657600080fd5b6119f28a838b01611960565b90965094506060890135915080821115611a0b57600080fd5b50611a1889828a01611960565b979a9699509497509295939492505050565b600080600080600060808688031215611a4257600080fd5b85359450602086013593506040860135925060608601356001600160401b03811115611a6d57600080fd5b611a7988828901611960565b969995985093965092949392505050565b80151581146109c257600080fd5b634e487b7160e01b600052604160045260246000fd5b604051606081016001600160401b0381118282101715611ad057611ad0611a98565b60405290565b60405161018081016001600160401b0381118282101715611ad057611ad0611a98565b604051601f8201601f191681016001600160401b0381118282101715611b2157611b21611a98565b604052919050565b60006001600160401b03821115611b4257611b42611a98565b50601f01601f191660200190565b600082601f830112611b6157600080fd5b8135611b74611b6f82611b29565b611af9565b818152846020838601011115611b8957600080fd5b816020850160208301376000918101602001919091529392505050565b60008060008060808587031215611bbc57600080fd5b843593506020850135611bce81611a8a565b925060408501356001600160401b0380821115611bea57600080fd5b611bf688838901611b50565b93506060870135915080821115611c0c57600080fd5b50611c1987828801611b50565b91505092959194509250565b600060208284031215611c3757600080fd5b5035919050565b60008060008060008060008060a0898b031215611c5a57600080fd5b883597506020890135965060408901356001600160401b0380821115611c7f57600080fd5b611c8b8c838d01611960565b909850965060608b0135915080821115611ca457600080fd5b611cb08c838d01611960565b909650945060808b0135915080821115611cc957600080fd5b50611cd68b828c01611960565b999c989b5096995094979396929594505050565b600060208284031215611cfc57600080fd5b81356001600160a01b0381168114611d1357600080fd5b9392505050565b60005b83811015611d35578181015183820152602001611d1d565b50506000910152565b60008151808452611d56816020860160208601611d1a565b601f01601f19169290920160200192915050565b838152606060208201526000611d836060830185611d3e565b905061ffff60f01b83166040830152949350505050565b600080600060608486031215611daf57600080fd5b833592506020840135611dc181611a8a565b915060408401356001600160401b03811115611ddc57600080fd5b611de886828701611b50565b9150509250925092565b60008060408385031215611e0557600080fd5b8235915060208301356001600160401b03811115611e2257600080fd5b611e2e85828601611b50565b9150509250929050565b85815260a060208201526000611e5160a0830187611d3e565b8281036040840152611e638187611d3e565b90508281036060840152611e778186611d3e565b90508281036080840152611e8b8185611d3e565b98975050505050505050565b60208082526028908201527f536f75726365206d75737420626520746865206f7261636c65206f6620746865604082015267081c995c5d595cdd60c21b606082015260800190565b600060208284031215611ef157600080fd5b5051919050565b600060208284031215611f0a57600080fd5b8151611d1381611a8a565b600181811c90821680611f2957607f821691505b60208210810361190857634e487b7160e01b600052602260045260246000fd5b601f821115610cdb57600081815260208120601f850160051c81016020861015611f705750805b601f850160051c820191505b81811015611f8f57828155600101611f7c565b505050505050565b81516001600160401b03811115611fb057611fb0611a98565b611fc481611fbe8454611f15565b84611f49565b602080601f831160018114611ff95760008415611fe15750858301515b600019600386901b1c1916600185901b178555611f8f565b600085815260208120601f198616915b8281101561202857888601518255948401946001909101908401612009565b50858210156120465787850151600019600388901b60f8161c191681555b5050505050600190811b01905550565b80516001600160f01b03198116811461206e57600080fd5b919050565b6000602080838503121561208657600080fd5b82516001600160401b038082111561209d57600080fd5b90840190606082870312156120b157600080fd5b6120b9611aae565b8251815283830151828111156120ce57600080fd5b83019150601f820187136120e157600080fd5b81516120ef611b6f82611b29565b818152888683860101111561210357600080fd5b61211282878301888701611d1a565b828601525061212360408401612056565b60408201529695505050505050565b805162ffffff8116811461206e57600080fd5b8051600181900b811461206e57600080fd5b805161ffff8116811461206e57600080fd5b805160ff8116811461206e57600080fd5b6000610180828403121561218d57600080fd5b612195611ad6565b825181526121a560208401612132565b60208201526121b660408401612132565b60408201526121c760608401612132565b60608201526121d860808401612132565b60808201526121e960a08401612145565b60a08201526121fa60c08401612157565b60c082015261220b60e08401612157565b60e082015261010061221e818501612169565b90820152610120612230848201612169565b90820152610140612242848201612169565b90820152610160612254848201612169565b908201529392505050565b634e487b7160e01b600052601160045260246000fd5b80820180821115610f8f57610f8f61225f565b6001600160a01b0389811682526020820189905260408201889052861660608201526001600160e01b03198516608082015260a0810184905260c0810183905261010060e082018190526000906122e183820185611d3e565b9b9a5050505050505050505050565b60008261230d57634e487b7160e01b600052601260045260246000fd5b500690565b81810381811115610f8f57610f8f61225f565b60018060a01b0384168152826020820152606060408201526000610f4b6060830184611d3e565b8082028115828204841417610f8f57610f8f61225f565b600181815b8085111561239e5781600019048211156123845761238461225f565b8085161561239157918102915b93841c9390800290612368565b509250929050565b6000826123b557506001610f8f565b816123c257506000610f8f565b81600181146123d857600281146123e2576123fe565b6001915050610f8f565b60ff8411156123f3576123f361225f565b50506001821b610f8f565b5060208310610133831016604e8410600b8410161715612421575081810a610f8f565b61242b8383612363565b806000190482111561243f5761243f61225f565b029392505050565b6000610f8c83836123a656fea26469706673582212204214bc303467970b11b07f7e2075ae54e06fa91b28e6dcdc28dfaa42c3bcd1c164736f6c63430008120033","opcodes":"PUSH1 0x80 PUSH1 0x40 MSTORE PUSH1 0x1 PUSH1 0x4 SSTORE CALLVALUE DUP1 ISZERO PUSH3 0x16 JUMPI PUSH1 0x0 DUP1 REVERT JUMPDEST POP PUSH1 0x40 MLOAD PUSH3 0x2565 CODESIZE SUB DUP1 PUSH3 0x2565 DUP4 CODECOPY DUP2 ADD PUSH1 0x40 DUP2 SWAP1 MSTORE PUSH3 0x39 SWAP2 PUSH3 0x94 JUMP JUMPDEST PUSH1 0x2 DUP1 SLOAD PUSH1 0x1 PUSH1 0x1 PUSH1 0xA0 SHL SUB NOT AND PUSH1 0x1 PUSH1 0x1 PUSH1 0xA0 SHL SUB DUP5 AND OR SWAP1 SSTORE PUSH1 0x3 DUP1 SLOAD PUSH1 0x1 PUSH1 0x1 PUSH1 0xA0 SHL SUB NOT AND PUSH1 0x1 PUSH1 0x1 PUSH1 0xA0 SHL SUB DUP4 AND OR SWAP1 SSTORE POP POP PUSH3 0xCC JUMP JUMPDEST DUP1 MLOAD PUSH1 0x1 PUSH1 0x1 PUSH1 0xA0 SHL SUB DUP2 AND DUP2 EQ PUSH3 0x8F JUMPI PUSH1 0x0 DUP1 REVERT JUMPDEST SWAP2 SWAP1 POP JUMP JUMPDEST PUSH1 0x0 DUP1 PUSH1 0x40 DUP4 DUP6 SUB SLT ISZERO PUSH3 0xA8 JUMPI PUSH1 0x0 DUP1 REVERT JUMPDEST PUSH3 0xB3 DUP4 PUSH3 0x77 JUMP JUMPDEST SWAP2 POP PUSH3 0xC3 PUSH1 0x20 DUP5 ADD PUSH3 0x77 JUMP JUMPDEST SWAP1 POP SWAP3 POP SWAP3 SWAP1 POP JUMP JUMPDEST PUSH2 0x2489 DUP1 PUSH3 0xDC PUSH1 0x0 CODECOPY PUSH1 0x0 RETURN INVALID PUSH1 0x80 PUSH1 0x40 MSTORE CALLVALUE DUP1 ISZERO PUSH2 0x10 JUMPI PUSH1 0x0 DUP1 REVERT JUMPDEST POP PUSH1 0x4 CALLDATASIZE LT PUSH2 0xB4 JUMPI PUSH1 0x0 CALLDATALOAD PUSH1 0xE0 SHR DUP1 PUSH4 0x8DC654A2 GT PUSH2 0x71 JUMPI DUP1 PUSH4 0x8DC654A2 EQ PUSH2 0x24F JUMPI DUP1 PUSH4 0x9C2B98FB EQ PUSH2 0x257 JUMPI DUP1 PUSH4 0xB18B78DD EQ PUSH2 0x279 JUMPI DUP1 PUSH4 0xDFFE2894 EQ PUSH2 0x299 JUMPI DUP1 PUSH4 0xE13CAA63 EQ PUSH2 0x2AC JUMPI DUP1 PUSH4 0xED6A7175 EQ PUSH2 0x2BF JUMPI PUSH1 0x0 DUP1 REVERT JUMPDEST DUP1 PUSH4 0xD6011B3 EQ PUSH2 0xB9 JUMPI DUP1 PUSH4 0x24A1065D EQ PUSH2 0xCE JUMPI DUP1 PUSH4 0x371EACED EQ PUSH2 0xE1 JUMPI DUP1 PUSH4 0x37B95E86 EQ PUSH2 0xF4 JUMPI DUP1 PUSH4 0x4D425A84 EQ PUSH2 0x210 JUMPI DUP1 PUSH4 0x7ADBF973 EQ PUSH2 0x223 JUMPI JUMPDEST PUSH1 0x0 DUP1 REVERT JUMPDEST PUSH2 0xCC PUSH2 0xC7 CALLDATASIZE PUSH1 0x4 PUSH2 0x19A8 JUMP JUMPDEST PUSH2 0x2E3 JUMP JUMPDEST STOP JUMPDEST PUSH2 0xCC PUSH2 0xDC CALLDATASIZE PUSH1 0x4 PUSH2 0x1A2A JUMP JUMPDEST PUSH2 0x4C9 JUMP JUMPDEST PUSH2 0xCC PUSH2 0xEF CALLDATASIZE PUSH1 0x4 PUSH2 0x1BA6 JUMP JUMPDEST PUSH2 0x684 JUMP JUMPDEST PUSH2 0x196 PUSH2 0x102 CALLDATASIZE PUSH1 0x4 PUSH2 0x1C25 JUMP JUMPDEST PUSH1 0x6 PUSH1 0x20 MSTORE PUSH1 0x0 SWAP1 DUP2 MSTORE PUSH1 0x40 SWAP1 KECCAK256 DUP1 SLOAD PUSH1 0x1 SWAP2 DUP3 ADD SLOAD SWAP1 SWAP2 PUSH3 0xFFFFFF DUP1 DUP4 AND SWAP3 PUSH4 0x1000000 DUP2 DIV DUP3 AND SWAP3 PUSH7 0x1000000000000 DUP3 DIV DUP4 AND SWAP3 PUSH10 0x1000000000000000000 DUP4 DIV AND SWAP2 PUSH1 0x1 PUSH1 0x60 SHL DUP2 DIV SWAP1 SWAP2 SIGNEXTEND SWAP1 PUSH2 0xFFFF PUSH1 0x1 PUSH1 0x70 SHL DUP3 DIV DUP2 AND SWAP2 PUSH1 0x1 PUSH1 0x80 SHL DUP2 DIV SWAP1 SWAP2 AND SWAP1 PUSH1 0xFF PUSH1 0x1 PUSH1 0x90 SHL DUP3 DIV DUP2 AND SWAP2 PUSH1 0x1 PUSH1 0x98 SHL DUP2 DIV DUP3 AND SWAP2 PUSH1 0x1 PUSH1 0xA0 SHL DUP3 DIV DUP2 AND SWAP2 PUSH1 0x1 PUSH1 0xA8 SHL SWAP1 DIV AND DUP13 JUMP JUMPDEST PUSH1 0x40 DUP1 MLOAD SWAP13 DUP14 MSTORE PUSH3 0xFFFFFF SWAP12 DUP13 AND PUSH1 0x20 DUP15 ADD MSTORE SWAP10 DUP12 AND SWAP10 DUP13 ADD SWAP10 SWAP1 SWAP10 MSTORE SWAP7 DUP10 AND PUSH1 0x60 DUP12 ADD MSTORE SWAP5 SWAP1 SWAP8 AND PUSH1 0x80 DUP10 ADD MSTORE PUSH1 0x1 SWAP3 SWAP1 SWAP3 SIGNEXTEND PUSH1 0xA0 DUP9 ADD MSTORE PUSH2 0xFFFF SWAP1 DUP2 AND PUSH1 0xC0 DUP9 ADD MSTORE AND PUSH1 0xE0 DUP7 ADD MSTORE PUSH1 0xFF SWAP4 DUP5 AND PUSH2 0x100 DUP7 ADD MSTORE DUP4 AND PUSH2 0x120 DUP6 ADD MSTORE DUP3 AND PUSH2 0x140 DUP5 ADD MSTORE AND PUSH2 0x160 DUP3 ADD MSTORE PUSH2 0x180 ADD JUMPDEST PUSH1 0x40 MLOAD DUP1 SWAP2 SUB SWAP1 RETURN JUMPDEST PUSH2 0xCC PUSH2 0x21E CALLDATASIZE PUSH1 0x4 PUSH2 0x1C3E JUMP JUMPDEST PUSH2 0x729 JUMP JUMPDEST PUSH2 0xCC PUSH2 0x231 CALLDATASIZE PUSH1 0x4 PUSH2 0x1CEA JUMP JUMPDEST PUSH1 0x3 DUP1 SLOAD PUSH1 0x1 PUSH1 0x1 PUSH1 0xA0 SHL SUB NOT AND PUSH1 0x1 PUSH1 0x1 PUSH1 0xA0 SHL SUB DUP4 AND OR SWAP1 SSTORE POP JUMP JUMPDEST PUSH2 0xCC PUSH2 0x9C5 JUMP JUMPDEST PUSH2 0x26A PUSH2 0x265 CALLDATASIZE PUSH1 0x4 PUSH2 0x1C25 JUMP JUMPDEST PUSH2 0xAFE JUMP JUMPDEST PUSH1 0x40 MLOAD PUSH2 0x207 SWAP4 SWAP3 SWAP2 SWAP1 PUSH2 0x1D6A JUMP JUMPDEST PUSH2 0x281 PUSH2 0xBAC JUMP JUMPDEST PUSH1 0x40 MLOAD PUSH1 0x1 PUSH1 0x1 PUSH1 0xA0 SHL SUB SWAP1 SWAP2 AND DUP2 MSTORE PUSH1 0x20 ADD PUSH2 0x207 JUMP JUMPDEST PUSH2 0xCC PUSH2 0x2A7 CALLDATASIZE PUSH1 0x4 PUSH2 0x1D9A JUMP JUMPDEST PUSH2 0xBC5 JUMP JUMPDEST PUSH2 0xCC PUSH2 0x2BA CALLDATASIZE PUSH1 0x4 PUSH2 0x1DF2 JUMP JUMPDEST PUSH2 0xC56 JUMP JUMPDEST PUSH2 0x2D2 PUSH2 0x2CD CALLDATASIZE PUSH1 0x4 PUSH2 0x1C25 JUMP JUMPDEST PUSH2 0xCE0 JUMP JUMPDEST PUSH1 0x40 MLOAD PUSH2 0x207 SWAP6 SWAP5 SWAP4 SWAP3 SWAP2 SWAP1 PUSH2 0x1E38 JUMP JUMPDEST PUSH1 0x0 PUSH2 0x2F7 DUP8 ADDRESS PUSH4 0x37FF8A25 PUSH1 0xE2 SHL PUSH2 0xF2F JUMP JUMPDEST SWAP1 POP PUSH2 0x34E PUSH1 0x40 MLOAD DUP1 PUSH1 0x40 ADD PUSH1 0x40 MSTORE DUP1 PUSH1 0x8 DUP2 MSTORE PUSH1 0x20 ADD PUSH8 0x195B991C1BDA5B9D PUSH1 0xC2 SHL DUP2 MSTORE POP PUSH1 0x40 MLOAD DUP1 PUSH1 0x40 ADD PUSH1 0x40 MSTORE DUP1 PUSH1 0x8 DUP2 MSTORE PUSH1 0x20 ADD PUSH8 0x3637B1B0BA34B7B7 PUSH1 0xC1 SHL DUP2 MSTORE POP DUP4 PUSH2 0xF54 SWAP1 SWAP3 SWAP2 SWAP1 PUSH4 0xFFFFFFFF AND JUMP JUMPDEST PUSH2 0x3AD PUSH1 0x40 MLOAD DUP1 PUSH1 0x40 ADD PUSH1 0x40 MSTORE DUP1 PUSH1 0x3 DUP2 MSTORE PUSH1 0x20 ADD PUSH3 0x1B185D PUSH1 0xEA SHL DUP2 MSTORE POP DUP7 DUP7 DUP1 DUP1 PUSH1 0x1F ADD PUSH1 0x20 DUP1 SWAP2 DIV MUL PUSH1 0x20 ADD PUSH1 0x40 MLOAD SWAP1 DUP2 ADD PUSH1 0x40 MSTORE DUP1 SWAP4 SWAP3 SWAP2 SWAP1 DUP2 DUP2 MSTORE PUSH1 0x20 ADD DUP4 DUP4 DUP1 DUP3 DUP5 CALLDATACOPY PUSH1 0x0 SWAP3 ADD SWAP2 SWAP1 SWAP2 MSTORE POP DUP7 SWAP5 SWAP4 SWAP3 POP POP PUSH2 0xF54 SWAP1 POP JUMP JUMPDEST PUSH2 0x40C PUSH1 0x40 MLOAD DUP1 PUSH1 0x40 ADD PUSH1 0x40 MSTORE DUP1 PUSH1 0x3 DUP2 MSTORE PUSH1 0x20 ADD PUSH3 0x3637B7 PUSH1 0xE9 SHL DUP2 MSTORE POP DUP5 DUP5 DUP1 DUP1 PUSH1 0x1F ADD PUSH1 0x20 DUP1 SWAP2 DIV MUL PUSH1 0x20 ADD PUSH1 0x40 MLOAD SWAP1 DUP2 ADD PUSH1 0x40 MSTORE DUP1 SWAP4 SWAP3 SWAP2 SWAP1 DUP2 DUP2 MSTORE PUSH1 0x20 ADD DUP4 DUP4 DUP1 DUP3 DUP5 CALLDATACOPY PUSH1 0x0 SWAP3 ADD SWAP2 SWAP1 SWAP2 MSTORE POP DUP7 SWAP5 SWAP4 SWAP3 POP POP PUSH2 0xF54 SWAP1 POP JUMP JUMPDEST PUSH1 0x0 PUSH2 0x418 DUP3 DUP9 PUSH2 0xF72 JUMP JUMPDEST SWAP1 POP PUSH2 0x4BF DUP2 PUSH1 0x0 PUSH1 0x40 MLOAD DUP1 PUSH1 0x40 ADD PUSH1 0x40 MSTORE DUP1 PUSH1 0x8 DUP2 MSTORE PUSH1 0x20 ADD PUSH8 0x3637B1B0BA34B7B7 PUSH1 0xC1 SHL DUP2 MSTORE POP DUP10 DUP10 DUP1 DUP1 PUSH1 0x1F ADD PUSH1 0x20 DUP1 SWAP2 DIV MUL PUSH1 0x20 ADD PUSH1 0x40 MLOAD SWAP1 DUP2 ADD PUSH1 0x40 MSTORE DUP1 SWAP4 SWAP3 SWAP2 SWAP1 DUP2 DUP2 MSTORE PUSH1 0x20 ADD DUP4 DUP4 DUP1 DUP3 DUP5 CALLDATACOPY PUSH1 0x0 SWAP3 ADD SWAP2 SWAP1 SWAP2 MSTORE POP POP PUSH1 0x40 DUP1 MLOAD PUSH1 0x20 PUSH1 0x1F DUP14 ADD DUP2 SWAP1 DIV DUP2 MUL DUP3 ADD DUP2 ADD SWAP1 SWAP3 MSTORE DUP12 DUP2 MSTORE SWAP3 POP DUP12 SWAP2 POP DUP11 SWAP1 DUP2 SWAP1 DUP5 ADD DUP4 DUP3 DUP1 DUP3 DUP5 CALLDATACOPY PUSH1 0x0 SWAP3 ADD DUP3 SWAP1 MSTORE POP PUSH1 0x40 DUP1 MLOAD PUSH1 0x20 DUP2 ADD SWAP1 SWAP2 MSTORE SWAP1 DUP2 MSTORE SWAP3 POP PUSH2 0xF95 SWAP2 POP POP JUMP JUMPDEST POP POP POP POP POP POP POP POP JUMP JUMPDEST PUSH1 0x0 PUSH2 0x4DD DUP7 ADDRESS PUSH4 0xE13CAA63 PUSH1 0xE0 SHL PUSH2 0xF2F JUMP JUMPDEST SWAP1 POP PUSH2 0x53E PUSH1 0x40 MLOAD DUP1 PUSH1 0x40 ADD PUSH1 0x40 MSTORE DUP1 PUSH1 0x8 DUP2 MSTORE PUSH1 0x20 ADD PUSH8 0x195B991C1BDA5B9D PUSH1 0xC2 SHL DUP2 MSTORE POP PUSH1 0x40 MLOAD DUP1 PUSH1 0x40 ADD PUSH1 0x40 MSTORE DUP1 PUSH1 0x12 DUP2 MSTORE PUSH1 0x20 ADD PUSH18 0x63757272656E742D636F6E646974696F6E73 PUSH1 0x70 SHL DUP2 MSTORE POP DUP4 PUSH2 0xF54 SWAP1 SWAP3 SWAP2 SWAP1 PUSH4 0xFFFFFFFF AND JUMP JUMPDEST PUSH1 0x40 DUP1 MLOAD DUP1 DUP3 ADD SWAP1 SWAP2 MSTORE PUSH1 0xB DUP2 MSTORE PUSH11 0x6C6F636174696F6E4B6579 PUSH1 0xA8 SHL PUSH1 0x20 DUP3 ADD MSTORE PUSH2 0x56C SWAP1 DUP3 SWAP1 DUP7 PUSH2 0x104C JUMP JUMPDEST PUSH2 0x5CD PUSH1 0x40 MLOAD DUP1 PUSH1 0x40 ADD PUSH1 0x40 MSTORE DUP1 PUSH1 0x5 DUP2 MSTORE PUSH1 0x20 ADD PUSH5 0x756E697473 PUSH1 0xD8 SHL DUP2 MSTORE POP DUP5 DUP5 DUP1 DUP1 PUSH1 0x1F ADD PUSH1 0x20 DUP1 SWAP2 DIV MUL PUSH1 0x20 ADD PUSH1 0x40 MLOAD SWAP1 DUP2 ADD PUSH1 0x40 MSTORE DUP1 SWAP4 SWAP3 SWAP2 SWAP1 DUP2 DUP2 MSTORE PUSH1 0x20 ADD DUP4 DUP4 DUP1 DUP3 DUP5 CALLDATACOPY PUSH1 0x0 SWAP3 ADD SWAP2 SWAP1 SWAP2 MSTORE POP DUP7 SWAP5 SWAP4 SWAP3 POP POP PUSH2 0xF54 SWAP1 POP JUMP JUMPDEST PUSH1 0x0 PUSH2 0x5D9 DUP3 DUP8 PUSH2 0xF72 JUMP JUMPDEST SWAP1 POP PUSH2 0x67B DUP2 DUP7 PUSH1 0x40 MLOAD DUP1 PUSH1 0x40 ADD PUSH1 0x40 MSTORE DUP1 PUSH1 0x12 DUP2 MSTORE PUSH1 0x20 ADD PUSH18 0x63757272656E742D636F6E646974696F6E73 PUSH1 0x70 SHL DUP2 MSTORE POP PUSH1 0x40 MLOAD DUP1 PUSH1 0x40 ADD PUSH1 0x40 MSTORE DUP1 PUSH1 0x1 DUP2 MSTORE PUSH1 0x20 ADD PUSH1 0x3 PUSH1 0xFC SHL DUP2 MSTORE POP PUSH1 0x40 MLOAD DUP1 PUSH1 0x40 ADD PUSH1 0x40 MSTORE DUP1 PUSH1 0x1 DUP2 MSTORE PUSH1 0x20 ADD PUSH1 0x3 PUSH1 0xFC SHL DUP2 MSTORE POP DUP10 DUP10 DUP1 DUP1 PUSH1 0x1F ADD PUSH1 0x20 DUP1 SWAP2 DIV MUL PUSH1 0x20 ADD PUSH1 0x40 MLOAD SWAP1 DUP2 ADD PUSH1 0x40 MSTORE DUP1 SWAP4 SWAP3 SWAP2 SWAP1 DUP2 DUP2 MSTORE PUSH1 0x20 ADD DUP4 DUP4 DUP1 DUP3 DUP5 CALLDATACOPY PUSH1 0x0 SWAP3 ADD SWAP2 SWAP1 SWAP2 MSTORE POP PUSH2 0xF95 SWAP3 POP POP POP JUMP JUMPDEST POP POP POP POP POP POP POP JUMP JUMPDEST PUSH1 0x0 DUP5 DUP2 MSTORE PUSH1 0x5 PUSH1 0x20 MSTORE PUSH1 0x40 SWAP1 KECCAK256 SLOAD DUP5 SWAP1 PUSH1 0x1 PUSH1 0x1 PUSH1 0xA0 SHL SUB AND CALLER EQ PUSH2 0x6C5 JUMPI PUSH1 0x40 MLOAD PUSH3 0x461BCD PUSH1 0xE5 SHL DUP2 MSTORE PUSH1 0x4 ADD PUSH2 0x6BC SWAP1 PUSH2 0x1E97 JUMP JUMPDEST PUSH1 0x40 MLOAD DUP1 SWAP2 SUB SWAP1 REVERT JUMPDEST PUSH1 0x0 DUP2 DUP2 MSTORE PUSH1 0x5 PUSH1 0x20 MSTORE PUSH1 0x40 DUP1 DUP3 KECCAK256 DUP1 SLOAD PUSH1 0x1 PUSH1 0x1 PUSH1 0xA0 SHL SUB NOT AND SWAP1 SSTORE MLOAD DUP3 SWAP2 PUSH32 0x7CC135E0CEBB02C3480AE5D74D377283180A2601F8F644EDF7987B009316C63A SWAP2 LOG2 DUP4 ISZERO PUSH2 0x722 JUMPI PUSH2 0x718 DUP6 DUP5 PUSH2 0x106A JUMP JUMPDEST PUSH2 0x722 DUP6 DUP4 PUSH2 0x10D2 JUMP JUMPDEST POP POP POP POP POP JUMP JUMPDEST PUSH1 0x0 PUSH2 0x73D DUP10 ADDRESS PUSH4 0x371EACED PUSH1 0xE0 SHL PUSH2 0xF2F JUMP JUMPDEST SWAP1 POP PUSH2 0x7A9 PUSH1 0x40 MLOAD DUP1 PUSH1 0x40 ADD PUSH1 0x40 MSTORE DUP1 PUSH1 0x8 DUP2 MSTORE PUSH1 0x20 ADD PUSH8 0x195B991C1BDA5B9D PUSH1 0xC2 SHL DUP2 MSTORE POP PUSH1 0x40 MLOAD DUP1 PUSH1 0x40 ADD PUSH1 0x40 MSTORE DUP1 PUSH1 0x1B DUP2 MSTORE PUSH1 0x20 ADD PUSH32 0x6C6F636174696F6E2D63757272656E742D636F6E646974696F6E730000000000 DUP2 MSTORE POP DUP4 PUSH2 0xF54 SWAP1 SWAP3 SWAP2 SWAP1 PUSH4 0xFFFFFFFF AND JUMP JUMPDEST PUSH2 0x808 PUSH1 0x40 MLOAD DUP1 PUSH1 0x40 ADD PUSH1 0x40 MSTORE DUP1 PUSH1 0x3 DUP2 MSTORE PUSH1 0x20 ADD PUSH3 0x1B185D PUSH1 0xEA SHL DUP2 MSTORE POP DUP9 DUP9 DUP1 DUP1 PUSH1 0x1F ADD PUSH1 0x20 DUP1 SWAP2 DIV MUL PUSH1 0x20 ADD PUSH1 0x40 MLOAD SWAP1 DUP2 ADD PUSH1 0x40 MSTORE DUP1 SWAP4 SWAP3 SWAP2 SWAP1 DUP2 DUP2 MSTORE PUSH1 0x20 ADD DUP4 DUP4 DUP1 DUP3 DUP5 CALLDATACOPY PUSH1 0x0 SWAP3 ADD SWAP2 SWAP1 SWAP2 MSTORE POP DUP7 SWAP5 SWAP4 SWAP3 POP POP PUSH2 0xF54 SWAP1 POP JUMP JUMPDEST PUSH2 0x867 PUSH1 0x40 MLOAD DUP1 PUSH1 0x40 ADD PUSH1 0x40 MSTORE DUP1 PUSH1 0x3 DUP2 MSTORE PUSH1 0x20 ADD PUSH3 0x3637B7 PUSH1 0xE9 SHL DUP2 MSTORE POP DUP7 DUP7 DUP1 DUP1 PUSH1 0x1F ADD PUSH1 0x20 DUP1 SWAP2 DIV MUL PUSH1 0x20 ADD PUSH1 0x40 MLOAD SWAP1 DUP2 ADD PUSH1 0x40 MSTORE DUP1 SWAP4 SWAP3 SWAP2 SWAP1 DUP2 DUP2 MSTORE PUSH1 0x20 ADD DUP4 DUP4 DUP1 DUP3 DUP5 CALLDATACOPY PUSH1 0x0 SWAP3 ADD SWAP2 SWAP1 SWAP2 MSTORE POP DUP7 SWAP5 SWAP4 SWAP3 POP POP PUSH2 0xF54 SWAP1 POP JUMP JUMPDEST PUSH2 0x8C8 PUSH1 0x40 MLOAD DUP1 PUSH1 0x40 ADD PUSH1 0x40 MSTORE DUP1 PUSH1 0x5 DUP2 MSTORE PUSH1 0x20 ADD PUSH5 0x756E697473 PUSH1 0xD8 SHL DUP2 MSTORE POP DUP5 DUP5 DUP1 DUP1 PUSH1 0x1F ADD PUSH1 0x20 DUP1 SWAP2 DIV MUL PUSH1 0x20 ADD PUSH1 0x40 MLOAD SWAP1 DUP2 ADD PUSH1 0x40 MSTORE DUP1 SWAP4 SWAP3 SWAP2 SWAP1 DUP2 DUP2 MSTORE PUSH1 0x20 ADD DUP4 DUP4 DUP1 DUP3 DUP5 CALLDATACOPY PUSH1 0x0 SWAP3 ADD SWAP2 SWAP1 SWAP2 MSTORE POP DUP7 SWAP5 SWAP4 SWAP3 POP POP PUSH2 0xF54 SWAP1 POP JUMP JUMPDEST PUSH1 0x0 PUSH2 0x8D4 DUP3 DUP11 PUSH2 0xF72 JUMP JUMPDEST SWAP1 POP PUSH2 0x9B6 DUP2 PUSH1 0x0 PUSH1 0x40 MLOAD DUP1 PUSH1 0x40 ADD PUSH1 0x40 MSTORE DUP1 PUSH1 0x1B DUP2 MSTORE PUSH1 0x20 ADD PUSH32 0x6C6F636174696F6E2D63757272656E742D636F6E646974696F6E730000000000 DUP2 MSTORE POP DUP12 DUP12 DUP1 DUP1 PUSH1 0x1F ADD PUSH1 0x20 DUP1 SWAP2 DIV MUL PUSH1 0x20 ADD PUSH1 0x40 MLOAD SWAP1 DUP2 ADD PUSH1 0x40 MSTORE DUP1 SWAP4 SWAP3 SWAP2 SWAP1 DUP2 DUP2 MSTORE PUSH1 0x20 ADD DUP4 DUP4 DUP1 DUP3 DUP5 CALLDATACOPY PUSH1 0x0 SWAP3 ADD SWAP2 SWAP1 SWAP2 MSTORE POP POP PUSH1 0x40 DUP1 MLOAD PUSH1 0x20 PUSH1 0x1F DUP16 ADD DUP2 SWAP1 DIV DUP2 MUL DUP3 ADD DUP2 ADD SWAP1 SWAP3 MSTORE DUP14 DUP2 MSTORE SWAP3 POP DUP14 SWAP2 POP DUP13 SWAP1 DUP2 SWAP1 DUP5 ADD DUP4 DUP3 DUP1 DUP3 DUP5 CALLDATACOPY PUSH1 0x0 SWAP3 ADD SWAP2 SWAP1 SWAP2 MSTORE POP POP PUSH1 0x40 DUP1 MLOAD PUSH1 0x20 PUSH1 0x1F DUP15 ADD DUP2 SWAP1 DIV DUP2 MUL DUP3 ADD DUP2 ADD SWAP1 SWAP3 MSTORE DUP13 DUP2 MSTORE SWAP3 POP DUP13 SWAP2 POP DUP12 SWAP1 DUP2 SWAP1 DUP5 ADD DUP4 DUP3 DUP1 DUP3 DUP5 CALLDATACOPY PUSH1 0x0 SWAP3 ADD SWAP2 SWAP1 SWAP2 MSTORE POP PUSH2 0xF95 SWAP3 POP POP POP JUMP JUMPDEST POP POP POP POP POP POP POP POP POP POP JUMP JUMPDEST POP JUMP JUMPDEST PUSH1 0x0 PUSH2 0x9D9 PUSH1 0x2 SLOAD PUSH1 0x1 PUSH1 0x1 PUSH1 0xA0 SHL SUB AND SWAP1 JUMP JUMPDEST PUSH1 0x40 MLOAD PUSH4 0x70A08231 PUSH1 0xE0 SHL DUP2 MSTORE ADDRESS PUSH1 0x4 DUP3 ADD MSTORE SWAP1 SWAP2 POP PUSH1 0x1 PUSH1 0x1 PUSH1 0xA0 SHL SUB DUP3 AND SWAP1 PUSH4 0xA9059CBB SWAP1 CALLER SWAP1 DUP4 SWAP1 PUSH4 0x70A08231 SWAP1 PUSH1 0x24 ADD PUSH1 0x20 PUSH1 0x40 MLOAD DUP1 DUP4 SUB DUP2 DUP7 GAS STATICCALL ISZERO DUP1 ISZERO PUSH2 0xA2A JUMPI RETURNDATASIZE PUSH1 0x0 DUP1 RETURNDATACOPY RETURNDATASIZE PUSH1 0x0 REVERT JUMPDEST POP POP POP POP PUSH1 0x40 MLOAD RETURNDATASIZE PUSH1 0x1F NOT PUSH1 0x1F DUP3 ADD AND DUP3 ADD DUP1 PUSH1 0x40 MSTORE POP DUP2 ADD SWAP1 PUSH2 0xA4E SWAP2 SWAP1 PUSH2 0x1EDF JUMP JUMPDEST PUSH1 0x40 MLOAD PUSH1 0x1 PUSH1 0x1 PUSH1 0xE0 SHL SUB NOT PUSH1 0xE0 DUP6 SWAP1 SHL AND DUP2 MSTORE PUSH1 0x1 PUSH1 0x1 PUSH1 0xA0 SHL SUB SWAP1 SWAP3 AND PUSH1 0x4 DUP4 ADD MSTORE PUSH1 0x24 DUP3 ADD MSTORE PUSH1 0x44 ADD PUSH1 0x20 PUSH1 0x40 MLOAD DUP1 DUP4 SUB DUP2 PUSH1 0x0 DUP8 GAS CALL ISZERO DUP1 ISZERO PUSH2 0xA99 JUMPI RETURNDATASIZE PUSH1 0x0 DUP1 RETURNDATACOPY RETURNDATASIZE PUSH1 0x0 REVERT JUMPDEST POP POP POP POP PUSH1 0x40 MLOAD RETURNDATASIZE PUSH1 0x1F NOT PUSH1 0x1F DUP3 ADD AND DUP3 ADD DUP1 PUSH1 0x40 MSTORE POP DUP2 ADD SWAP1 PUSH2 0xABD SWAP2 SWAP1 PUSH2 0x1EF8 JUMP JUMPDEST PUSH2 0x9C2 JUMPI PUSH1 0x40 MLOAD PUSH3 0x461BCD PUSH1 0xE5 SHL DUP2 MSTORE PUSH1 0x20 PUSH1 0x4 DUP3 ADD MSTORE PUSH1 0x12 PUSH1 0x24 DUP3 ADD MSTORE PUSH18 0x2AB730B13632903A37903A3930B739B332B9 PUSH1 0x71 SHL PUSH1 0x44 DUP3 ADD MSTORE PUSH1 0x64 ADD PUSH2 0x6BC JUMP JUMPDEST PUSH1 0x7 PUSH1 0x20 MSTORE PUSH1 0x0 SWAP1 DUP2 MSTORE PUSH1 0x40 SWAP1 KECCAK256 DUP1 SLOAD PUSH1 0x1 DUP3 ADD DUP1 SLOAD SWAP2 SWAP3 SWAP2 PUSH2 0xB20 SWAP1 PUSH2 0x1F15 JUMP JUMPDEST DUP1 PUSH1 0x1F ADD PUSH1 0x20 DUP1 SWAP2 DIV MUL PUSH1 0x20 ADD PUSH1 0x40 MLOAD SWAP1 DUP2 ADD PUSH1 0x40 MSTORE DUP1 SWAP3 SWAP2 SWAP1 DUP2 DUP2 MSTORE PUSH1 0x20 ADD DUP3 DUP1 SLOAD PUSH2 0xB4C SWAP1 PUSH2 0x1F15 JUMP JUMPDEST DUP1 ISZERO PUSH2 0xB99 JUMPI DUP1 PUSH1 0x1F LT PUSH2 0xB6E JUMPI PUSH2 0x100 DUP1 DUP4 SLOAD DIV MUL DUP4 MSTORE SWAP2 PUSH1 0x20 ADD SWAP2 PUSH2 0xB99 JUMP JUMPDEST DUP3 ADD SWAP2 SWAP1 PUSH1 0x0 MSTORE PUSH1 0x20 PUSH1 0x0 KECCAK256 SWAP1 JUMPDEST DUP2 SLOAD DUP2 MSTORE SWAP1 PUSH1 0x1 ADD SWAP1 PUSH1 0x20 ADD DUP1 DUP4 GT PUSH2 0xB7C JUMPI DUP3 SWAP1 SUB PUSH1 0x1F AND DUP3 ADD SWAP2 JUMPDEST POP POP POP PUSH1 0x2 SWAP1 SWAP4 ADD SLOAD SWAP2 SWAP3 POP POP PUSH1 0xF0 SHL DUP4 JUMP JUMPDEST PUSH1 0x0 PUSH2 0xBC0 PUSH1 0x3 SLOAD PUSH1 0x1 PUSH1 0x1 PUSH1 0xA0 SHL SUB AND SWAP1 JUMP JUMPDEST SWAP1 POP SWAP1 JUMP JUMPDEST PUSH1 0x0 DUP4 DUP2 MSTORE PUSH1 0x5 PUSH1 0x20 MSTORE PUSH1 0x40 SWAP1 KECCAK256 SLOAD DUP4 SWAP1 PUSH1 0x1 PUSH1 0x1 PUSH1 0xA0 SHL SUB AND CALLER EQ PUSH2 0xBFD JUMPI PUSH1 0x40 MLOAD PUSH3 0x461BCD PUSH1 0xE5 SHL DUP2 MSTORE PUSH1 0x4 ADD PUSH2 0x6BC SWAP1 PUSH2 0x1E97 JUMP JUMPDEST PUSH1 0x0 DUP2 DUP2 MSTORE PUSH1 0x5 PUSH1 0x20 MSTORE PUSH1 0x40 DUP1 DUP3 KECCAK256 DUP1 SLOAD PUSH1 0x1 PUSH1 0x1 PUSH1 0xA0 SHL SUB NOT AND SWAP1 SSTORE MLOAD DUP3 SWAP2 PUSH32 0x7CC135E0CEBB02C3480AE5D74D377283180A2601F8F644EDF7987B009316C63A SWAP2 LOG2 DUP3 ISZERO PUSH2 0xC50 JUMPI PUSH2 0xC50 DUP5 DUP4 PUSH2 0x106A JUMP JUMPDEST POP POP POP POP JUMP JUMPDEST PUSH1 0x0 DUP3 DUP2 MSTORE PUSH1 0x5 PUSH1 0x20 MSTORE PUSH1 0x40 SWAP1 KECCAK256 SLOAD DUP3 SWAP1 PUSH1 0x1 PUSH1 0x1 PUSH1 0xA0 SHL SUB AND CALLER EQ PUSH2 0xC8E JUMPI PUSH1 0x40 MLOAD PUSH3 0x461BCD PUSH1 0xE5 SHL DUP2 MSTORE PUSH1 0x4 ADD PUSH2 0x6BC SWAP1 PUSH2 0x1E97 JUMP JUMPDEST PUSH1 0x0 DUP2 DUP2 MSTORE PUSH1 0x5 PUSH1 0x20 MSTORE PUSH1 0x40 DUP1 DUP3 KECCAK256 DUP1 SLOAD PUSH1 0x1 PUSH1 0x1 PUSH1 0xA0 SHL SUB NOT AND SWAP1 SSTORE MLOAD DUP3 SWAP2 PUSH32 0x7CC135E0CEBB02C3480AE5D74D377283180A2601F8F644EDF7987B009316C63A SWAP2 LOG2 PUSH2 0xCDB DUP4 DUP4 PUSH2 0x10D2 JUMP JUMPDEST POP POP POP JUMP JUMPDEST PUSH1 0x8 PUSH1 0x20 MSTORE PUSH1 0x0 SWAP1 DUP2 MSTORE PUSH1 0x40 SWAP1 KECCAK256 DUP1 SLOAD PUSH1 0x1 DUP3 ADD DUP1 SLOAD SWAP2 SWAP3 SWAP2 PUSH2 0xD02 SWAP1 PUSH2 0x1F15 JUMP JUMPDEST DUP1 PUSH1 0x1F ADD PUSH1 0x20 DUP1 SWAP2 DIV MUL PUSH1 0x20 ADD PUSH1 0x40 MLOAD SWAP1 DUP2 ADD PUSH1 0x40 MSTORE DUP1 SWAP3 SWAP2 SWAP1 DUP2 DUP2 MSTORE PUSH1 0x20 ADD DUP3 DUP1 SLOAD PUSH2 0xD2E SWAP1 PUSH2 0x1F15 JUMP JUMPDEST DUP1 ISZERO PUSH2 0xD7B JUMPI DUP1 PUSH1 0x1F LT PUSH2 0xD50 JUMPI PUSH2 0x100 DUP1 DUP4 SLOAD DIV MUL DUP4 MSTORE SWAP2 PUSH1 0x20 ADD SWAP2 PUSH2 0xD7B JUMP JUMPDEST DUP3 ADD SWAP2 SWAP1 PUSH1 0x0 MSTORE PUSH1 0x20 PUSH1 0x0 KECCAK256 SWAP1 JUMPDEST DUP2 SLOAD DUP2 MSTORE SWAP1 PUSH1 0x1 ADD SWAP1 PUSH1 0x20 ADD DUP1 DUP4 GT PUSH2 0xD5E JUMPI DUP3 SWAP1 SUB PUSH1 0x1F AND DUP3 ADD SWAP2 JUMPDEST POP POP POP POP POP SWAP1 DUP1 PUSH1 0x2 ADD DUP1 SLOAD PUSH2 0xD90 SWAP1 PUSH2 0x1F15 JUMP JUMPDEST DUP1 PUSH1 0x1F ADD PUSH1 0x20 DUP1 SWAP2 DIV MUL PUSH1 0x20 ADD PUSH1 0x40 MLOAD SWAP1 DUP2 ADD PUSH1 0x40 MSTORE DUP1 SWAP3 SWAP2 SWAP1 DUP2 DUP2 MSTORE PUSH1 0x20 ADD DUP3 DUP1 SLOAD PUSH2 0xDBC SWAP1 PUSH2 0x1F15 JUMP JUMPDEST DUP1 ISZERO PUSH2 0xE09 JUMPI DUP1 PUSH1 0x1F LT PUSH2 0xDDE JUMPI PUSH2 0x100 DUP1 DUP4 SLOAD DIV MUL DUP4 MSTORE SWAP2 PUSH1 0x20 ADD SWAP2 PUSH2 0xE09 JUMP JUMPDEST DUP3 ADD SWAP2 SWAP1 PUSH1 0x0 MSTORE PUSH1 0x20 PUSH1 0x0 KECCAK256 SWAP1 JUMPDEST DUP2 SLOAD DUP2 MSTORE SWAP1 PUSH1 0x1 ADD SWAP1 PUSH1 0x20 ADD DUP1 DUP4 GT PUSH2 0xDEC JUMPI DUP3 SWAP1 SUB PUSH1 0x1F AND DUP3 ADD SWAP2 JUMPDEST POP POP POP POP POP SWAP1 DUP1 PUSH1 0x3 ADD DUP1 SLOAD PUSH2 0xE1E SWAP1 PUSH2 0x1F15 JUMP JUMPDEST DUP1 PUSH1 0x1F ADD PUSH1 0x20 DUP1 SWAP2 DIV MUL PUSH1 0x20 ADD PUSH1 0x40 MLOAD SWAP1 DUP2 ADD PUSH1 0x40 MSTORE DUP1 SWAP3 SWAP2 SWAP1 DUP2 DUP2 MSTORE PUSH1 0x20 ADD DUP3 DUP1 SLOAD PUSH2 0xE4A SWAP1 PUSH2 0x1F15 JUMP JUMPDEST DUP1 ISZERO PUSH2 0xE97 JUMPI DUP1 PUSH1 0x1F LT PUSH2 0xE6C JUMPI PUSH2 0x100 DUP1 DUP4 SLOAD DIV MUL DUP4 MSTORE SWAP2 PUSH1 0x20 ADD SWAP2 PUSH2 0xE97 JUMP JUMPDEST DUP3 ADD SWAP2 SWAP1 PUSH1 0x0 MSTORE PUSH1 0x20 PUSH1 0x0 KECCAK256 SWAP1 JUMPDEST DUP2 SLOAD DUP2 MSTORE SWAP1 PUSH1 0x1 ADD SWAP1 PUSH1 0x20 ADD DUP1 DUP4 GT PUSH2 0xE7A JUMPI DUP3 SWAP1 SUB PUSH1 0x1F AND DUP3 ADD SWAP2 JUMPDEST POP POP POP POP POP SWAP1 DUP1 PUSH1 0x4 ADD DUP1 SLOAD PUSH2 0xEAC SWAP1 PUSH2 0x1F15 JUMP JUMPDEST DUP1 PUSH1 0x1F ADD PUSH1 0x20 DUP1 SWAP2 DIV MUL PUSH1 0x20 ADD PUSH1 0x40 MLOAD SWAP1 DUP2 ADD PUSH1 0x40 MSTORE DUP1 SWAP3 SWAP2 SWAP1 DUP2 DUP2 MSTORE PUSH1 0x20 ADD DUP3 DUP1 SLOAD PUSH2 0xED8 SWAP1 PUSH2 0x1F15 JUMP JUMPDEST DUP1 ISZERO PUSH2 0xF25 JUMPI DUP1 PUSH1 0x1F LT PUSH2 0xEFA JUMPI PUSH2 0x100 DUP1 DUP4 SLOAD DIV MUL DUP4 MSTORE SWAP2 PUSH1 0x20 ADD SWAP2 PUSH2 0xF25 JUMP JUMPDEST DUP3 ADD SWAP2 SWAP1 PUSH1 0x0 MSTORE PUSH1 0x20 PUSH1 0x0 KECCAK256 SWAP1 JUMPDEST DUP2 SLOAD DUP2 MSTORE SWAP1 PUSH1 0x1 ADD SWAP1 PUSH1 0x20 ADD DUP1 DUP4 GT PUSH2 0xF08 JUMPI DUP3 SWAP1 SUB PUSH1 0x1F AND DUP3 ADD SWAP2 JUMPDEST POP POP POP POP POP SWAP1 POP DUP6 JUMP JUMPDEST PUSH2 0xF37 PUSH2 0x1925 JUMP JUMPDEST PUSH2 0xF3F PUSH2 0x1925 JUMP JUMPDEST PUSH2 0xF4B DUP2 DUP7 DUP7 DUP7 PUSH2 0x1298 JUMP JUMPDEST SWAP6 SWAP5 POP POP POP POP POP JUMP JUMPDEST PUSH1 0x80 DUP4 ADD MLOAD PUSH2 0xF63 SWAP1 DUP4 PUSH2 0x12DE JUMP JUMPDEST PUSH1 0x80 DUP4 ADD MLOAD PUSH2 0xCDB SWAP1 DUP3 PUSH2 0x12DE JUMP JUMPDEST PUSH1 0x3 SLOAD PUSH1 0x0 SWAP1 PUSH2 0xF8C SWAP1 PUSH1 0x1 PUSH1 0x1 PUSH1 0xA0 SHL SUB AND DUP5 DUP5 PUSH2 0x12F5 JUMP JUMPDEST SWAP1 POP JUMPDEST SWAP3 SWAP2 POP POP JUMP JUMPDEST PUSH2 0xFC7 PUSH1 0x40 MLOAD DUP1 PUSH1 0xA0 ADD PUSH1 0x40 MSTORE DUP1 PUSH1 0x0 DUP2 MSTORE PUSH1 0x20 ADD PUSH1 0x60 DUP2 MSTORE PUSH1 0x20 ADD PUSH1 0x60 DUP2 MSTORE PUSH1 0x20 ADD PUSH1 0x60 DUP2 MSTORE PUSH1 0x20 ADD PUSH1 0x60 DUP2 MSTORE POP SWAP1 JUMP JUMPDEST DUP6 DUP2 MSTORE PUSH1 0x20 DUP1 DUP3 ADD DUP7 DUP2 MSTORE PUSH1 0x40 DUP1 DUP5 ADD DUP8 SWAP1 MSTORE PUSH1 0x60 DUP5 ADD DUP7 SWAP1 MSTORE PUSH1 0x80 DUP5 ADD DUP6 SWAP1 MSTORE PUSH1 0x0 DUP11 DUP2 MSTORE PUSH1 0x8 SWAP1 SWAP4 MSTORE SWAP1 SWAP2 KECCAK256 DUP3 MLOAD DUP2 SSTORE SWAP1 MLOAD DUP3 SWAP2 SWAP1 PUSH1 0x1 DUP3 ADD SWAP1 PUSH2 0x100D SWAP1 DUP3 PUSH2 0x1F97 JUMP JUMPDEST POP PUSH1 0x40 DUP3 ADD MLOAD PUSH1 0x2 DUP3 ADD SWAP1 PUSH2 0x1022 SWAP1 DUP3 PUSH2 0x1F97 JUMP JUMPDEST POP PUSH1 0x60 DUP3 ADD MLOAD PUSH1 0x3 DUP3 ADD SWAP1 PUSH2 0x1037 SWAP1 DUP3 PUSH2 0x1F97 JUMP JUMPDEST POP PUSH1 0x80 DUP3 ADD MLOAD PUSH1 0x4 DUP3 ADD SWAP1 PUSH2 0x9B6 SWAP1 DUP3 PUSH2 0x1F97 JUMP JUMPDEST PUSH1 0x80 DUP4 ADD MLOAD PUSH2 0x105B SWAP1 DUP4 PUSH2 0x12DE JUMP JUMPDEST PUSH1 0x80 DUP4 ADD MLOAD PUSH2 0xCDB SWAP1 DUP3 PUSH2 0x1388 JUMP JUMPDEST PUSH1 0x0 DUP2 DUP1 PUSH1 0x20 ADD SWAP1 MLOAD DUP2 ADD SWAP1 PUSH2 0x1080 SWAP2 SWAP1 PUSH2 0x2073 JUMP JUMPDEST PUSH1 0x0 DUP5 DUP2 MSTORE PUSH1 0x7 PUSH1 0x20 SWAP1 DUP2 MSTORE PUSH1 0x40 SWAP1 SWAP2 KECCAK256 DUP3 MLOAD DUP2 SSTORE SWAP1 DUP3 ADD MLOAD SWAP2 SWAP3 POP DUP3 SWAP2 PUSH1 0x1 DUP3 ADD SWAP1 PUSH2 0x10AD SWAP1 DUP3 PUSH2 0x1F97 JUMP JUMPDEST POP PUSH1 0x40 SWAP2 SWAP1 SWAP2 ADD MLOAD PUSH1 0x2 SWAP1 SWAP2 ADD DUP1 SLOAD PUSH2 0xFFFF NOT AND PUSH1 0xF0 SWAP3 SWAP1 SWAP3 SHR SWAP2 SWAP1 SWAP2 OR SWAP1 SSTORE POP POP POP JUMP JUMPDEST PUSH1 0x0 DUP2 DUP1 PUSH1 0x20 ADD SWAP1 MLOAD DUP2 ADD SWAP1 PUSH2 0x10E8 SWAP2 SWAP1 PUSH2 0x217A JUMP JUMPDEST SWAP1 POP DUP1 PUSH1 0x6 PUSH1 0x0 DUP6 DUP2 MSTORE PUSH1 0x20 ADD SWAP1 DUP2 MSTORE PUSH1 0x20 ADD PUSH1 0x0 KECCAK256 PUSH1 0x0 DUP3 ADD MLOAD DUP2 PUSH1 0x0 ADD SSTORE PUSH1 0x20 DUP3 ADD MLOAD DUP2 PUSH1 0x1 ADD PUSH1 0x0 PUSH2 0x100 EXP DUP2 SLOAD DUP2 PUSH3 0xFFFFFF MUL NOT AND SWAP1 DUP4 PUSH3 0xFFFFFF AND MUL OR SWAP1 SSTORE POP PUSH1 0x40 DUP3 ADD MLOAD DUP2 PUSH1 0x1 ADD PUSH1 0x3 PUSH2 0x100 EXP DUP2 SLOAD DUP2 PUSH3 0xFFFFFF MUL NOT AND SWAP1 DUP4 PUSH3 0xFFFFFF AND MUL OR SWAP1 SSTORE POP PUSH1 0x60 DUP3 ADD MLOAD DUP2 PUSH1 0x1 ADD PUSH1 0x6 PUSH2 0x100 EXP DUP2 SLOAD DUP2 PUSH3 0xFFFFFF MUL NOT AND SWAP1 DUP4 PUSH3 0xFFFFFF AND MUL OR SWAP1 SSTORE POP PUSH1 0x80 DUP3 ADD MLOAD DUP2 PUSH1 0x1 ADD PUSH1 0x9 PUSH2 0x100 EXP DUP2 SLOAD DUP2 PUSH3 0xFFFFFF MUL NOT AND SWAP1 DUP4 PUSH3 0xFFFFFF AND MUL OR SWAP1 SSTORE POP PUSH1 0xA0 DUP3 ADD MLOAD DUP2 PUSH1 0x1 ADD PUSH1 0xC PUSH2 0x100 EXP DUP2 SLOAD DUP2 PUSH2 0xFFFF MUL NOT AND SWAP1 DUP4 PUSH1 0x1 SIGNEXTEND PUSH2 0xFFFF AND MUL OR SWAP1 SSTORE POP PUSH1 0xC0 DUP3 ADD MLOAD DUP2 PUSH1 0x1 ADD PUSH1 0xE PUSH2 0x100 EXP DUP2 SLOAD DUP2 PUSH2 0xFFFF MUL NOT AND SWAP1 DUP4 PUSH2 0xFFFF AND MUL OR SWAP1 SSTORE POP PUSH1 0xE0 DUP3 ADD MLOAD DUP2 PUSH1 0x1 ADD PUSH1 0x10 PUSH2 0x100 EXP DUP2 SLOAD DUP2 PUSH2 0xFFFF MUL NOT AND SWAP1 DUP4 PUSH2 0xFFFF AND MUL OR SWAP1 SSTORE POP PUSH2 0x100 DUP3 ADD MLOAD DUP2 PUSH1 0x1 ADD PUSH1 0x12 PUSH2 0x100 EXP DUP2 SLOAD DUP2 PUSH1 0xFF MUL NOT AND SWAP1 DUP4 PUSH1 0xFF AND MUL OR SWAP1 SSTORE POP PUSH2 0x120 DUP3 ADD MLOAD DUP2 PUSH1 0x1 ADD PUSH1 0x13 PUSH2 0x100 EXP DUP2 SLOAD DUP2 PUSH1 0xFF MUL NOT AND SWAP1 DUP4 PUSH1 0xFF AND MUL OR SWAP1 SSTORE POP PUSH2 0x140 DUP3 ADD MLOAD DUP2 PUSH1 0x1 ADD PUSH1 0x14 PUSH2 0x100 EXP DUP2 SLOAD DUP2 PUSH1 0xFF MUL NOT AND SWAP1 DUP4 PUSH1 0xFF AND MUL OR SWAP1 SSTORE POP PUSH2 0x160 DUP3 ADD MLOAD DUP2 PUSH1 0x1 ADD PUSH1 0x15 PUSH2 0x100 EXP DUP2 SLOAD DUP2 PUSH1 0xFF MUL NOT AND SWAP1 DUP4 PUSH1 0xFF AND MUL OR SWAP1 SSTORE POP SWAP1 POP POP POP POP POP JUMP JUMPDEST PUSH2 0x12A0 PUSH2 0x1925 JUMP JUMPDEST PUSH2 0x12B0 DUP6 PUSH1 0x80 ADD MLOAD PUSH2 0x100 PUSH2 0x13B1 JUMP JUMPDEST POP POP DUP3 DUP5 MSTORE PUSH1 0x1 PUSH1 0x1 PUSH1 0xA0 SHL SUB DUP3 AND PUSH1 0x20 DUP6 ADD MSTORE PUSH1 0x1 PUSH1 0x1 PUSH1 0xE0 SHL SUB NOT DUP2 AND PUSH1 0x40 DUP6 ADD MSTORE DUP4 JUMPDEST SWAP5 SWAP4 POP POP POP POP JUMP JUMPDEST PUSH2 0x12EB DUP3 PUSH1 0x3 DUP4 MLOAD PUSH2 0x1416 JUMP JUMPDEST PUSH2 0xCDB DUP3 DUP3 PUSH2 0x151D JUMP JUMPDEST PUSH1 0x4 SLOAD PUSH1 0x0 SWAP1 PUSH2 0x1306 DUP2 PUSH1 0x1 PUSH2 0x2275 JUMP JUMPDEST PUSH1 0x4 SSTORE DUP4 MLOAD PUSH1 0x40 DUP1 DUP7 ADD MLOAD PUSH1 0x80 DUP8 ADD MLOAD MLOAD SWAP2 MLOAD PUSH1 0x0 SWAP4 PUSH4 0x20214CA3 PUSH1 0xE1 SHL SWAP4 PUSH2 0x133E SWAP4 DUP7 SWAP4 DUP5 SWAP4 SWAP3 ADDRESS SWAP3 SWAP2 DUP11 SWAP2 PUSH1 0x1 SWAP2 PUSH1 0x24 ADD PUSH2 0x2288 JUMP JUMPDEST PUSH1 0x40 DUP1 MLOAD PUSH1 0x1F NOT DUP2 DUP5 SUB ADD DUP2 MSTORE SWAP2 SWAP1 MSTORE PUSH1 0x20 DUP2 ADD DUP1 MLOAD PUSH1 0x1 PUSH1 0x1 PUSH1 0xE0 SHL SUB AND PUSH1 0x1 PUSH1 0x1 PUSH1 0xE0 SHL SUB NOT SWAP1 SWAP4 AND SWAP3 SWAP1 SWAP3 OR SWAP1 SWAP2 MSTORE SWAP1 POP PUSH2 0x137E DUP7 DUP4 DUP7 DUP5 PUSH2 0x1544 JUMP JUMPDEST SWAP7 SWAP6 POP POP POP POP POP POP JUMP JUMPDEST PUSH1 0x1 PUSH1 0x1 PUSH1 0x40 SHL SUB DUP2 GT ISZERO PUSH2 0x13A5 JUMPI PUSH2 0x13A1 DUP3 DUP3 PUSH2 0x16A2 JUMP JUMPDEST POP POP JUMP JUMPDEST PUSH2 0x13A1 DUP3 PUSH1 0x0 DUP4 PUSH2 0x1416 JUMP JUMPDEST PUSH1 0x40 DUP1 MLOAD DUP1 DUP3 ADD SWAP1 SWAP2 MSTORE PUSH1 0x60 DUP2 MSTORE PUSH1 0x0 PUSH1 0x20 DUP3 ADD MSTORE PUSH2 0x13D1 PUSH1 0x20 DUP4 PUSH2 0x22F0 JUMP JUMPDEST ISZERO PUSH2 0x13F9 JUMPI PUSH2 0x13E1 PUSH1 0x20 DUP4 PUSH2 0x22F0 JUMP JUMPDEST PUSH2 0x13EC SWAP1 PUSH1 0x20 PUSH2 0x2312 JUMP JUMPDEST PUSH2 0x13F6 SWAP1 DUP4 PUSH2 0x2275 JUMP JUMPDEST SWAP2 POP JUMPDEST POP PUSH1 0x20 DUP3 DUP2 ADD DUP3 SWAP1 MSTORE PUSH1 0x40 DUP1 MLOAD DUP1 DUP6 MSTORE PUSH1 0x0 DUP2 MSTORE SWAP1 SWAP3 ADD ADD SWAP1 MSTORE SWAP1 JUMP JUMPDEST PUSH1 0x17 DUP2 PUSH1 0x1 PUSH1 0x1 PUSH1 0x40 SHL SUB AND GT PUSH2 0x143A JUMPI PUSH2 0xC50 DUP4 PUSH1 0xE0 PUSH1 0x5 DUP6 SWAP1 SHL AND DUP4 OR PUSH2 0x16D9 JUMP JUMPDEST PUSH1 0xFF DUP2 PUSH1 0x1 PUSH1 0x1 PUSH1 0x40 SHL SUB AND GT PUSH2 0x1476 JUMPI PUSH2 0x1460 DUP4 PUSH1 0x18 PUSH2 0x1FE0 PUSH1 0x5 DUP7 SWAP1 SHL AND OR PUSH2 0x16D9 JUMP JUMPDEST POP PUSH2 0xC50 DUP4 PUSH1 0x1 PUSH1 0x1 PUSH1 0x40 SHL SUB DUP4 AND PUSH1 0x1 PUSH2 0x16FE JUMP JUMPDEST PUSH2 0xFFFF DUP2 PUSH1 0x1 PUSH1 0x1 PUSH1 0x40 SHL SUB AND GT PUSH2 0x14B3 JUMPI PUSH2 0x149D DUP4 PUSH1 0x19 PUSH2 0x1FE0 PUSH1 0x5 DUP7 SWAP1 SHL AND OR PUSH2 0x16D9 JUMP JUMPDEST POP PUSH2 0xC50 DUP4 PUSH1 0x1 PUSH1 0x1 PUSH1 0x40 SHL SUB DUP4 AND PUSH1 0x2 PUSH2 0x16FE JUMP JUMPDEST PUSH4 0xFFFFFFFF DUP2 PUSH1 0x1 PUSH1 0x1 PUSH1 0x40 SHL SUB AND GT PUSH2 0x14F2 JUMPI PUSH2 0x14DC DUP4 PUSH1 0x1A PUSH2 0x1FE0 PUSH1 0x5 DUP7 SWAP1 SHL AND OR PUSH2 0x16D9 JUMP JUMPDEST POP PUSH2 0xC50 DUP4 PUSH1 0x1 PUSH1 0x1 PUSH1 0x40 SHL SUB DUP4 AND PUSH1 0x4 PUSH2 0x16FE JUMP JUMPDEST PUSH2 0x1507 DUP4 PUSH1 0x1B PUSH2 0x1FE0 PUSH1 0x5 DUP7 SWAP1 SHL AND OR PUSH2 0x16D9 JUMP JUMPDEST POP PUSH2 0xC50 DUP4 PUSH1 0x1 PUSH1 0x1 PUSH1 0x40 SHL SUB DUP4 AND PUSH1 0x8 PUSH2 0x16FE JUMP JUMPDEST PUSH1 0x40 DUP1 MLOAD DUP1 DUP3 ADD SWAP1 SWAP2 MSTORE PUSH1 0x60 DUP2 MSTORE PUSH1 0x0 PUSH1 0x20 DUP3 ADD MSTORE PUSH2 0xF8C DUP4 DUP5 PUSH1 0x0 ADD MLOAD MLOAD DUP5 DUP6 MLOAD PUSH2 0x1724 JUMP JUMPDEST PUSH1 0x40 MLOAD PUSH12 0xFFFFFFFFFFFFFFFFFFFFFFFF NOT ADDRESS PUSH1 0x60 SHL AND PUSH1 0x20 DUP3 ADD MSTORE PUSH1 0x34 DUP2 ADD DUP5 SWAP1 MSTORE PUSH1 0x0 SWAP1 PUSH1 0x54 ADD PUSH1 0x40 DUP1 MLOAD DUP1 DUP4 SUB PUSH1 0x1F NOT ADD DUP2 MSTORE DUP3 DUP3 MSTORE DUP1 MLOAD PUSH1 0x20 SWAP2 DUP3 ADD KECCAK256 PUSH1 0x0 DUP2 DUP2 MSTORE PUSH1 0x5 SWAP1 SWAP3 MSTORE SWAP2 DUP2 KECCAK256 DUP1 SLOAD PUSH1 0x1 PUSH1 0x1 PUSH1 0xA0 SHL SUB NOT AND PUSH1 0x1 PUSH1 0x1 PUSH1 0xA0 SHL SUB DUP11 AND OR SWAP1 SSTORE SWAP1 SWAP3 POP DUP3 SWAP2 PUSH32 0xB5E6E01E79F91267DC17B4E6314D5D4D03593D2CEEE0FBB452B750BD70EA5AF9 SWAP2 SWAP1 LOG2 PUSH1 0x2 SLOAD PUSH1 0x40 MLOAD PUSH4 0x2000575 PUSH1 0xE5 SHL DUP2 MSTORE PUSH1 0x1 PUSH1 0x1 PUSH1 0xA0 SHL SUB SWAP1 SWAP2 AND SWAP1 PUSH4 0x4000AEA0 SWAP1 PUSH2 0x1607 SWAP1 DUP9 SWAP1 DUP8 SWAP1 DUP8 SWAP1 PUSH1 0x4 ADD PUSH2 0x2325 JUMP JUMPDEST PUSH1 0x20 PUSH1 0x40 MLOAD DUP1 DUP4 SUB DUP2 PUSH1 0x0 DUP8 GAS CALL ISZERO DUP1 ISZERO PUSH2 0x1626 JUMPI RETURNDATASIZE PUSH1 0x0 DUP1 RETURNDATACOPY RETURNDATASIZE PUSH1 0x0 REVERT JUMPDEST POP POP POP POP PUSH1 0x40 MLOAD RETURNDATASIZE PUSH1 0x1F NOT PUSH1 0x1F DUP3 ADD AND DUP3 ADD DUP1 PUSH1 0x40 MSTORE POP DUP2 ADD SWAP1 PUSH2 0x164A SWAP2 SWAP1 PUSH2 0x1EF8 JUMP JUMPDEST PUSH2 0x12D6 JUMPI PUSH1 0x40 MLOAD PUSH3 0x461BCD PUSH1 0xE5 SHL DUP2 MSTORE PUSH1 0x20 PUSH1 0x4 DUP3 ADD MSTORE PUSH1 0x23 PUSH1 0x24 DUP3 ADD MSTORE PUSH32 0x756E61626C6520746F207472616E73666572416E6443616C6C20746F206F7261 PUSH1 0x44 DUP3 ADD MSTORE PUSH3 0x636C65 PUSH1 0xE8 SHL PUSH1 0x64 DUP3 ADD MSTORE PUSH1 0x84 ADD PUSH2 0x6BC JUMP JUMPDEST PUSH2 0x16AD DUP3 PUSH1 0xC2 PUSH2 0x16D9 JUMP JUMPDEST POP PUSH2 0x13A1 DUP3 DUP3 PUSH1 0x40 MLOAD PUSH1 0x20 ADD PUSH2 0x16C5 SWAP2 DUP2 MSTORE PUSH1 0x20 ADD SWAP1 JUMP JUMPDEST PUSH1 0x40 MLOAD PUSH1 0x20 DUP2 DUP4 SUB SUB DUP2 MSTORE SWAP1 PUSH1 0x40 MSTORE PUSH2 0x180E JUMP JUMPDEST PUSH1 0x40 DUP1 MLOAD DUP1 DUP3 ADD SWAP1 SWAP2 MSTORE PUSH1 0x60 DUP2 MSTORE PUSH1 0x0 PUSH1 0x20 DUP3 ADD MSTORE PUSH2 0xF8C DUP4 DUP5 PUSH1 0x0 ADD MLOAD MLOAD DUP5 PUSH2 0x181B JUMP JUMPDEST PUSH1 0x40 DUP1 MLOAD DUP1 DUP3 ADD SWAP1 SWAP2 MSTORE PUSH1 0x60 DUP2 MSTORE PUSH1 0x0 PUSH1 0x20 DUP3 ADD MSTORE PUSH2 0x12D6 DUP5 DUP6 PUSH1 0x0 ADD MLOAD MLOAD DUP6 DUP6 PUSH2 0x1876 JUMP JUMPDEST PUSH1 0x40 DUP1 MLOAD DUP1 DUP3 ADD SWAP1 SWAP2 MSTORE PUSH1 0x60 DUP2 MSTORE PUSH1 0x0 PUSH1 0x20 DUP3 ADD MSTORE DUP3 MLOAD DUP3 GT ISZERO PUSH2 0x1747 JUMPI PUSH1 0x0 DUP1 REVERT JUMPDEST PUSH1 0x20 DUP6 ADD MLOAD PUSH2 0x1756 DUP4 DUP7 PUSH2 0x2275 JUMP JUMPDEST GT ISZERO PUSH2 0x1789 JUMPI PUSH2 0x1789 DUP6 PUSH2 0x1779 DUP8 PUSH1 0x20 ADD MLOAD DUP8 DUP7 PUSH2 0x1774 SWAP2 SWAP1 PUSH2 0x2275 JUMP JUMPDEST PUSH2 0x18F7 JUMP JUMPDEST PUSH2 0x1784 SWAP1 PUSH1 0x2 PUSH2 0x234C JUMP JUMPDEST PUSH2 0x190E JUMP JUMPDEST PUSH1 0x0 DUP1 DUP7 MLOAD DUP1 MLOAD DUP8 PUSH1 0x20 DUP4 ADD ADD SWAP4 POP DUP1 DUP9 DUP8 ADD GT ISZERO PUSH2 0x17A8 JUMPI DUP8 DUP7 ADD DUP3 MSTORE JUMPDEST POP POP POP PUSH1 0x20 DUP5 ADD JUMPDEST PUSH1 0x20 DUP5 LT PUSH2 0x17E8 JUMPI DUP1 MLOAD DUP3 MSTORE PUSH2 0x17C7 PUSH1 0x20 DUP4 PUSH2 0x2275 JUMP JUMPDEST SWAP2 POP PUSH2 0x17D4 PUSH1 0x20 DUP3 PUSH2 0x2275 JUMP JUMPDEST SWAP1 POP PUSH2 0x17E1 PUSH1 0x20 DUP6 PUSH2 0x2312 JUMP JUMPDEST SWAP4 POP PUSH2 0x17B0 JUMP JUMPDEST MLOAD DUP2 MLOAD PUSH1 0x0 NOT PUSH1 0x20 DUP7 SWAP1 SUB PUSH2 0x100 EXP ADD SWAP1 DUP2 AND SWAP1 NOT SWAP2 SWAP1 SWAP2 AND OR SWAP1 MSTORE POP DUP4 SWAP5 SWAP4 POP POP POP POP JUMP JUMPDEST PUSH2 0x12EB DUP3 PUSH1 0x2 DUP4 MLOAD PUSH2 0x1416 JUMP JUMPDEST PUSH1 0x40 DUP1 MLOAD DUP1 DUP3 ADD SWAP1 SWAP2 MSTORE PUSH1 0x60 DUP2 MSTORE PUSH1 0x0 PUSH1 0x20 DUP3 ADD MSTORE DUP4 PUSH1 0x20 ADD MLOAD DUP4 LT PUSH2 0x1850 JUMPI PUSH2 0x1850 DUP5 DUP6 PUSH1 0x20 ADD MLOAD PUSH1 0x2 PUSH2 0x1784 SWAP2 SWAP1 PUSH2 0x234C JUMP JUMPDEST DUP4 MLOAD DUP1 MLOAD PUSH1 0x20 DUP6 DUP4 ADD ADD DUP5 DUP2 MSTORE8 POP DUP1 DUP6 SUB PUSH2 0x186C JUMPI PUSH1 0x1 DUP2 ADD DUP3 MSTORE JUMPDEST POP SWAP4 SWAP5 SWAP4 POP POP POP POP JUMP JUMPDEST PUSH1 0x40 DUP1 MLOAD DUP1 DUP3 ADD SWAP1 SWAP2 MSTORE PUSH1 0x60 DUP2 MSTORE PUSH1 0x0 PUSH1 0x20 DUP3 ADD MSTORE PUSH1 0x20 DUP6 ADD MLOAD PUSH2 0x189A DUP6 DUP5 PUSH2 0x2275 JUMP JUMPDEST GT ISZERO PUSH2 0x18AE JUMPI PUSH2 0x18AE DUP6 PUSH2 0x1779 DUP7 DUP6 PUSH2 0x2275 JUMP JUMPDEST PUSH1 0x0 PUSH1 0x1 PUSH2 0x18BE DUP5 PUSH2 0x100 PUSH2 0x2447 JUMP JUMPDEST PUSH2 0x18C8 SWAP2 SWAP1 PUSH2 0x2312 JUMP JUMPDEST SWAP1 POP DUP6 MLOAD DUP4 DUP7 DUP3 ADD ADD DUP6 DUP4 NOT DUP3 MLOAD AND OR DUP2 MSTORE POP DUP1 MLOAD DUP5 DUP8 ADD GT ISZERO PUSH2 0x18EC JUMPI DUP4 DUP7 ADD DUP2 MSTORE JUMPDEST POP SWAP5 SWAP6 SWAP5 POP POP POP POP POP JUMP JUMPDEST PUSH1 0x0 DUP2 DUP4 GT ISZERO PUSH2 0x1908 JUMPI POP DUP2 PUSH2 0xF8F JUMP JUMPDEST POP SWAP2 SWAP1 POP JUMP JUMPDEST DUP2 MLOAD PUSH2 0x191A DUP4 DUP4 PUSH2 0x13B1 JUMP JUMPDEST POP PUSH2 0xC50 DUP4 DUP3 PUSH2 0x151D JUMP JUMPDEST PUSH1 0x40 DUP1 MLOAD PUSH1 0xA0 DUP2 ADD DUP3 MSTORE PUSH1 0x0 DUP1 DUP3 MSTORE PUSH1 0x20 DUP1 DUP4 ADD DUP3 SWAP1 MSTORE DUP3 DUP5 ADD DUP3 SWAP1 MSTORE PUSH1 0x60 DUP1 DUP5 ADD DUP4 SWAP1 MSTORE DUP5 MLOAD DUP1 DUP7 ADD SWAP1 SWAP6 MSTORE DUP5 MSTORE DUP4 ADD MSTORE SWAP1 PUSH1 0x80 DUP3 ADD MSTORE SWAP1 JUMP JUMPDEST PUSH1 0x0 DUP1 DUP4 PUSH1 0x1F DUP5 ADD SLT PUSH2 0x1972 JUMPI PUSH1 0x0 DUP1 REVERT JUMPDEST POP DUP2 CALLDATALOAD PUSH1 0x1 PUSH1 0x1 PUSH1 0x40 SHL SUB DUP2 GT ISZERO PUSH2 0x1989 JUMPI PUSH1 0x0 DUP1 REVERT JUMPDEST PUSH1 0x20 DUP4 ADD SWAP2 POP DUP4 PUSH1 0x20 DUP3 DUP6 ADD ADD GT ISZERO PUSH2 0x19A1 JUMPI PUSH1 0x0 DUP1 REVERT JUMPDEST SWAP3 POP SWAP3 SWAP1 POP JUMP JUMPDEST PUSH1 0x0 DUP1 PUSH1 0x0 DUP1 PUSH1 0x0 DUP1 PUSH1 0x80 DUP8 DUP10 SUB SLT ISZERO PUSH2 0x19C1 JUMPI PUSH1 0x0 DUP1 REVERT JUMPDEST DUP7 CALLDATALOAD SWAP6 POP PUSH1 0x20 DUP8 ADD CALLDATALOAD SWAP5 POP PUSH1 0x40 DUP8 ADD CALLDATALOAD PUSH1 0x1 PUSH1 0x1 PUSH1 0x40 SHL SUB DUP1 DUP3 GT ISZERO PUSH2 0x19E6 JUMPI PUSH1 0x0 DUP1 REVERT JUMPDEST PUSH2 0x19F2 DUP11 DUP4 DUP12 ADD PUSH2 0x1960 JUMP JUMPDEST SWAP1 SWAP7 POP SWAP5 POP PUSH1 0x60 DUP10 ADD CALLDATALOAD SWAP2 POP DUP1 DUP3 GT ISZERO PUSH2 0x1A0B JUMPI PUSH1 0x0 DUP1 REVERT JUMPDEST POP PUSH2 0x1A18 DUP10 DUP3 DUP11 ADD PUSH2 0x1960 JUMP JUMPDEST SWAP8 SWAP11 SWAP7 SWAP10 POP SWAP5 SWAP8 POP SWAP3 SWAP6 SWAP4 SWAP5 SWAP3 POP POP POP JUMP JUMPDEST PUSH1 0x0 DUP1 PUSH1 0x0 DUP1 PUSH1 0x0 PUSH1 0x80 DUP7 DUP9 SUB SLT ISZERO PUSH2 0x1A42 JUMPI PUSH1 0x0 DUP1 REVERT JUMPDEST DUP6 CALLDATALOAD SWAP5 POP PUSH1 0x20 DUP7 ADD CALLDATALOAD SWAP4 POP PUSH1 0x40 DUP7 ADD CALLDATALOAD SWAP3 POP PUSH1 0x60 DUP7 ADD CALLDATALOAD PUSH1 0x1 PUSH1 0x1 PUSH1 0x40 SHL SUB DUP2 GT ISZERO PUSH2 0x1A6D JUMPI PUSH1 0x0 DUP1 REVERT JUMPDEST PUSH2 0x1A79 DUP9 DUP3 DUP10 ADD PUSH2 0x1960 JUMP JUMPDEST SWAP7 SWAP10 SWAP6 SWAP9 POP SWAP4 SWAP7 POP SWAP3 SWAP5 SWAP4 SWAP3 POP POP POP JUMP JUMPDEST DUP1 ISZERO ISZERO DUP2 EQ PUSH2 0x9C2 JUMPI PUSH1 0x0 DUP1 REVERT JUMPDEST PUSH4 0x4E487B71 PUSH1 0xE0 SHL PUSH1 0x0 MSTORE PUSH1 0x41 PUSH1 0x4 MSTORE PUSH1 0x24 PUSH1 0x0 REVERT JUMPDEST PUSH1 0x40 MLOAD PUSH1 0x60 DUP2 ADD PUSH1 0x1 PUSH1 0x1 PUSH1 0x40 SHL SUB DUP2 GT DUP3 DUP3 LT OR ISZERO PUSH2 0x1AD0 JUMPI PUSH2 0x1AD0 PUSH2 0x1A98 JUMP JUMPDEST PUSH1 0x40 MSTORE SWAP1 JUMP JUMPDEST PUSH1 0x40 MLOAD PUSH2 0x180 DUP2 ADD PUSH1 0x1 PUSH1 0x1 PUSH1 0x40 SHL SUB DUP2 GT DUP3 DUP3 LT OR ISZERO PUSH2 0x1AD0 JUMPI PUSH2 0x1AD0 PUSH2 0x1A98 JUMP JUMPDEST PUSH1 0x40 MLOAD PUSH1 0x1F DUP3 ADD PUSH1 0x1F NOT AND DUP2 ADD PUSH1 0x1 PUSH1 0x1 PUSH1 0x40 SHL SUB DUP2 GT DUP3 DUP3 LT OR ISZERO PUSH2 0x1B21 JUMPI PUSH2 0x1B21 PUSH2 0x1A98 JUMP JUMPDEST PUSH1 0x40 MSTORE SWAP2 SWAP1 POP JUMP JUMPDEST PUSH1 0x0 PUSH1 0x1 PUSH1 0x1 PUSH1 0x40 SHL SUB DUP3 GT ISZERO PUSH2 0x1B42 JUMPI PUSH2 0x1B42 PUSH2 0x1A98 JUMP JUMPDEST POP PUSH1 0x1F ADD PUSH1 0x1F NOT AND PUSH1 0x20 ADD SWAP1 JUMP JUMPDEST PUSH1 0x0 DUP3 PUSH1 0x1F DUP4 ADD SLT PUSH2 0x1B61 JUMPI PUSH1 0x0 DUP1 REVERT JUMPDEST DUP2 CALLDATALOAD PUSH2 0x1B74 PUSH2 0x1B6F DUP3 PUSH2 0x1B29 JUMP JUMPDEST PUSH2 0x1AF9 JUMP JUMPDEST DUP2 DUP2 MSTORE DUP5 PUSH1 0x20 DUP4 DUP7 ADD ADD GT ISZERO PUSH2 0x1B89 JUMPI PUSH1 0x0 DUP1 REVERT JUMPDEST DUP2 PUSH1 0x20 DUP6 ADD PUSH1 0x20 DUP4 ADD CALLDATACOPY PUSH1 0x0 SWAP2 DUP2 ADD PUSH1 0x20 ADD SWAP2 SWAP1 SWAP2 MSTORE SWAP4 SWAP3 POP POP POP JUMP JUMPDEST PUSH1 0x0 DUP1 PUSH1 0x0 DUP1 PUSH1 0x80 DUP6 DUP8 SUB SLT ISZERO PUSH2 0x1BBC JUMPI PUSH1 0x0 DUP1 REVERT JUMPDEST DUP5 CALLDATALOAD SWAP4 POP PUSH1 0x20 DUP6 ADD CALLDATALOAD PUSH2 0x1BCE DUP2 PUSH2 0x1A8A JUMP JUMPDEST SWAP3 POP PUSH1 0x40 DUP6 ADD CALLDATALOAD PUSH1 0x1 PUSH1 0x1 PUSH1 0x40 SHL SUB DUP1 DUP3 GT ISZERO PUSH2 0x1BEA JUMPI PUSH1 0x0 DUP1 REVERT JUMPDEST PUSH2 0x1BF6 DUP9 DUP4 DUP10 ADD PUSH2 0x1B50 JUMP JUMPDEST SWAP4 POP PUSH1 0x60 DUP8 ADD CALLDATALOAD SWAP2 POP DUP1 DUP3 GT ISZERO PUSH2 0x1C0C JUMPI PUSH1 0x0 DUP1 REVERT JUMPDEST POP PUSH2 0x1C19 DUP8 DUP3 DUP9 ADD PUSH2 0x1B50 JUMP JUMPDEST SWAP2 POP POP SWAP3 SWAP6 SWAP2 SWAP5 POP SWAP3 POP JUMP JUMPDEST PUSH1 0x0 PUSH1 0x20 DUP3 DUP5 SUB SLT ISZERO PUSH2 0x1C37 JUMPI PUSH1 0x0 DUP1 REVERT JUMPDEST POP CALLDATALOAD SWAP2 SWAP1 POP JUMP JUMPDEST PUSH1 0x0 DUP1 PUSH1 0x0 DUP1 PUSH1 0x0 DUP1 PUSH1 0x0 DUP1 PUSH1 0xA0 DUP10 DUP12 SUB SLT ISZERO PUSH2 0x1C5A JUMPI PUSH1 0x0 DUP1 REVERT JUMPDEST DUP9 CALLDATALOAD SWAP8 POP PUSH1 0x20 DUP10 ADD CALLDATALOAD SWAP7 POP PUSH1 0x40 DUP10 ADD CALLDATALOAD PUSH1 0x1 PUSH1 0x1 PUSH1 0x40 SHL SUB DUP1 DUP3 GT ISZERO PUSH2 0x1C7F JUMPI PUSH1 0x0 DUP1 REVERT JUMPDEST PUSH2 0x1C8B DUP13 DUP4 DUP14 ADD PUSH2 0x1960 JUMP JUMPDEST SWAP1 SWAP9 POP SWAP7 POP PUSH1 0x60 DUP12 ADD CALLDATALOAD SWAP2 POP DUP1 DUP3 GT ISZERO PUSH2 0x1CA4 JUMPI PUSH1 0x0 DUP1 REVERT JUMPDEST PUSH2 0x1CB0 DUP13 DUP4 DUP14 ADD PUSH2 0x1960 JUMP JUMPDEST SWAP1 SWAP7 POP SWAP5 POP PUSH1 0x80 DUP12 ADD CALLDATALOAD SWAP2 POP DUP1 DUP3 GT ISZERO PUSH2 0x1CC9 JUMPI PUSH1 0x0 DUP1 REVERT JUMPDEST POP PUSH2 0x1CD6 DUP12 DUP3 DUP13 ADD PUSH2 0x1960 JUMP JUMPDEST SWAP10 SWAP13 SWAP9 SWAP12 POP SWAP7 SWAP10 POP SWAP5 SWAP8 SWAP4 SWAP7 SWAP3 SWAP6 SWAP5 POP POP POP JUMP JUMPDEST PUSH1 0x0 PUSH1 0x20 DUP3 DUP5 SUB SLT ISZERO PUSH2 0x1CFC JUMPI PUSH1 0x0 DUP1 REVERT JUMPDEST DUP2 CALLDATALOAD PUSH1 0x1 PUSH1 0x1 PUSH1 0xA0 SHL SUB DUP2 AND DUP2 EQ PUSH2 0x1D13 JUMPI PUSH1 0x0 DUP1 REVERT JUMPDEST SWAP4 SWAP3 POP POP POP JUMP JUMPDEST PUSH1 0x0 JUMPDEST DUP4 DUP2 LT ISZERO PUSH2 0x1D35 JUMPI DUP2 DUP2 ADD MLOAD DUP4 DUP3 ADD MSTORE PUSH1 0x20 ADD PUSH2 0x1D1D JUMP JUMPDEST POP POP PUSH1 0x0 SWAP2 ADD MSTORE JUMP JUMPDEST PUSH1 0x0 DUP2 MLOAD DUP1 DUP5 MSTORE PUSH2 0x1D56 DUP2 PUSH1 0x20 DUP7 ADD PUSH1 0x20 DUP7 ADD PUSH2 0x1D1A JUMP JUMPDEST PUSH1 0x1F ADD PUSH1 0x1F NOT AND SWAP3 SWAP1 SWAP3 ADD PUSH1 0x20 ADD SWAP3 SWAP2 POP POP JUMP JUMPDEST DUP4 DUP2 MSTORE PUSH1 0x60 PUSH1 0x20 DUP3 ADD MSTORE PUSH1 0x0 PUSH2 0x1D83 PUSH1 0x60 DUP4 ADD DUP6 PUSH2 0x1D3E JUMP JUMPDEST SWAP1 POP PUSH2 0xFFFF PUSH1 0xF0 SHL DUP4 AND PUSH1 0x40 DUP4 ADD MSTORE SWAP5 SWAP4 POP POP POP POP JUMP JUMPDEST PUSH1 0x0 DUP1 PUSH1 0x0 PUSH1 0x60 DUP5 DUP7 SUB SLT ISZERO PUSH2 0x1DAF JUMPI PUSH1 0x0 DUP1 REVERT JUMPDEST DUP4 CALLDATALOAD SWAP3 POP PUSH1 0x20 DUP5 ADD CALLDATALOAD PUSH2 0x1DC1 DUP2 PUSH2 0x1A8A JUMP JUMPDEST SWAP2 POP PUSH1 0x40 DUP5 ADD CALLDATALOAD PUSH1 0x1 PUSH1 0x1 PUSH1 0x40 SHL SUB DUP2 GT ISZERO PUSH2 0x1DDC JUMPI PUSH1 0x0 DUP1 REVERT JUMPDEST PUSH2 0x1DE8 DUP7 DUP3 DUP8 ADD PUSH2 0x1B50 JUMP JUMPDEST SWAP2 POP POP SWAP3 POP SWAP3 POP SWAP3 JUMP JUMPDEST PUSH1 0x0 DUP1 PUSH1 0x40 DUP4 DUP6 SUB SLT ISZERO PUSH2 0x1E05 JUMPI PUSH1 0x0 DUP1 REVERT JUMPDEST DUP3 CALLDATALOAD SWAP2 POP PUSH1 0x20 DUP4 ADD CALLDATALOAD PUSH1 0x1 PUSH1 0x1 PUSH1 0x40 SHL SUB DUP2 GT ISZERO PUSH2 0x1E22 JUMPI PUSH1 0x0 DUP1 REVERT JUMPDEST PUSH2 0x1E2E DUP6 DUP3 DUP7 ADD PUSH2 0x1B50 JUMP JUMPDEST SWAP2 POP POP SWAP3 POP SWAP3 SWAP1 POP JUMP JUMPDEST DUP6 DUP2 MSTORE PUSH1 0xA0 PUSH1 0x20 DUP3 ADD MSTORE PUSH1 0x0 PUSH2 0x1E51 PUSH1 0xA0 DUP4 ADD DUP8 PUSH2 0x1D3E JUMP JUMPDEST DUP3 DUP2 SUB PUSH1 0x40 DUP5 ADD MSTORE PUSH2 0x1E63 DUP2 DUP8 PUSH2 0x1D3E JUMP JUMPDEST SWAP1 POP DUP3 DUP2 SUB PUSH1 0x60 DUP5 ADD MSTORE PUSH2 0x1E77 DUP2 DUP7 PUSH2 0x1D3E JUMP JUMPDEST SWAP1 POP DUP3 DUP2 SUB PUSH1 0x80 DUP5 ADD MSTORE PUSH2 0x1E8B DUP2 DUP6 PUSH2 0x1D3E JUMP JUMPDEST SWAP9 SWAP8 POP POP POP POP POP POP POP POP JUMP JUMPDEST PUSH1 0x20 DUP1 DUP3 MSTORE PUSH1 0x28 SWAP1 DUP3 ADD MSTORE PUSH32 0x536F75726365206D75737420626520746865206F7261636C65206F6620746865 PUSH1 0x40 DUP3 ADD MSTORE PUSH8 0x81C995C5D595CDD PUSH1 0xC2 SHL PUSH1 0x60 DUP3 ADD MSTORE PUSH1 0x80 ADD SWAP1 JUMP JUMPDEST PUSH1 0x0 PUSH1 0x20 DUP3 DUP5 SUB SLT ISZERO PUSH2 0x1EF1 JUMPI PUSH1 0x0 DUP1 REVERT JUMPDEST POP MLOAD SWAP2 SWAP1 POP JUMP JUMPDEST PUSH1 0x0 PUSH1 0x20 DUP3 DUP5 SUB SLT ISZERO PUSH2 0x1F0A JUMPI PUSH1 0x0 DUP1 REVERT JUMPDEST DUP2 MLOAD PUSH2 0x1D13 DUP2 PUSH2 0x1A8A JUMP JUMPDEST PUSH1 0x1 DUP2 DUP2 SHR SWAP1 DUP3 AND DUP1 PUSH2 0x1F29 JUMPI PUSH1 0x7F DUP3 AND SWAP2 POP JUMPDEST PUSH1 0x20 DUP3 LT DUP2 SUB PUSH2 0x1908 JUMPI PUSH4 0x4E487B71 PUSH1 0xE0 SHL PUSH1 0x0 MSTORE PUSH1 0x22 PUSH1 0x4 MSTORE PUSH1 0x24 PUSH1 0x0 REVERT JUMPDEST PUSH1 0x1F DUP3 GT ISZERO PUSH2 0xCDB JUMPI PUSH1 0x0 DUP2 DUP2 MSTORE PUSH1 0x20 DUP2 KECCAK256 PUSH1 0x1F DUP6 ADD PUSH1 0x5 SHR DUP2 ADD PUSH1 0x20 DUP7 LT ISZERO PUSH2 0x1F70 JUMPI POP DUP1 JUMPDEST PUSH1 0x1F DUP6 ADD PUSH1 0x5 SHR DUP3 ADD SWAP2 POP JUMPDEST DUP2 DUP2 LT ISZERO PUSH2 0x1F8F JUMPI DUP3 DUP2 SSTORE PUSH1 0x1 ADD PUSH2 0x1F7C JUMP JUMPDEST POP POP POP POP POP POP JUMP JUMPDEST DUP2 MLOAD PUSH1 0x1 PUSH1 0x1 PUSH1 0x40 SHL SUB DUP2 GT ISZERO PUSH2 0x1FB0 JUMPI PUSH2 0x1FB0 PUSH2 0x1A98 JUMP JUMPDEST PUSH2 0x1FC4 DUP2 PUSH2 0x1FBE DUP5 SLOAD PUSH2 0x1F15 JUMP JUMPDEST DUP5 PUSH2 0x1F49 JUMP JUMPDEST PUSH1 0x20 DUP1 PUSH1 0x1F DUP4 GT PUSH1 0x1 DUP2 EQ PUSH2 0x1FF9 JUMPI PUSH1 0x0 DUP5 ISZERO PUSH2 0x1FE1 JUMPI POP DUP6 DUP4 ADD MLOAD JUMPDEST PUSH1 0x0 NOT PUSH1 0x3 DUP7 SWAP1 SHL SHR NOT AND PUSH1 0x1 DUP6 SWAP1 SHL OR DUP6 SSTORE PUSH2 0x1F8F JUMP JUMPDEST PUSH1 0x0 DUP6 DUP2 MSTORE PUSH1 0x20 DUP2 KECCAK256 PUSH1 0x1F NOT DUP7 AND SWAP2 JUMPDEST DUP3 DUP2 LT ISZERO PUSH2 0x2028 JUMPI DUP9 DUP7 ADD MLOAD DUP3 SSTORE SWAP5 DUP5 ADD SWAP5 PUSH1 0x1 SWAP1 SWAP2 ADD SWAP1 DUP5 ADD PUSH2 0x2009 JUMP JUMPDEST POP DUP6 DUP3 LT ISZERO PUSH2 0x2046 JUMPI DUP8 DUP6 ADD MLOAD PUSH1 0x0 NOT PUSH1 0x3 DUP9 SWAP1 SHL PUSH1 0xF8 AND SHR NOT AND DUP2 SSTORE JUMPDEST POP POP POP POP POP PUSH1 0x1 SWAP1 DUP2 SHL ADD SWAP1 SSTORE POP JUMP JUMPDEST DUP1 MLOAD PUSH1 0x1 PUSH1 0x1 PUSH1 0xF0 SHL SUB NOT DUP2 AND DUP2 EQ PUSH2 0x206E JUMPI PUSH1 0x0 DUP1 REVERT JUMPDEST SWAP2 SWAP1 POP JUMP JUMPDEST PUSH1 0x0 PUSH1 0x20 DUP1 DUP4 DUP6 SUB SLT ISZERO PUSH2 0x2086 JUMPI PUSH1 0x0 DUP1 REVERT JUMPDEST DUP3 MLOAD PUSH1 0x1 PUSH1 0x1 PUSH1 0x40 SHL SUB DUP1 DUP3 GT ISZERO PUSH2 0x209D JUMPI PUSH1 0x0 DUP1 REVERT JUMPDEST SWAP1 DUP5 ADD SWAP1 PUSH1 0x60 DUP3 DUP8 SUB SLT ISZERO PUSH2 0x20B1 JUMPI PUSH1 0x0 DUP1 REVERT JUMPDEST PUSH2 0x20B9 PUSH2 0x1AAE JUMP JUMPDEST DUP3 MLOAD DUP2 MSTORE DUP4 DUP4 ADD MLOAD DUP3 DUP2 GT ISZERO PUSH2 0x20CE JUMPI PUSH1 0x0 DUP1 REVERT JUMPDEST DUP4 ADD SWAP2 POP PUSH1 0x1F DUP3 ADD DUP8 SGT PUSH2 0x20E1 JUMPI PUSH1 0x0 DUP1 REVERT JUMPDEST DUP2 MLOAD PUSH2 0x20EF PUSH2 0x1B6F DUP3 PUSH2 0x1B29 JUMP JUMPDEST DUP2 DUP2 MSTORE DUP9 DUP7 DUP4 DUP7 ADD ADD GT ISZERO PUSH2 0x2103 JUMPI PUSH1 0x0 DUP1 REVERT JUMPDEST PUSH2 0x2112 DUP3 DUP8 DUP4 ADD DUP9 DUP8 ADD PUSH2 0x1D1A JUMP JUMPDEST DUP3 DUP7 ADD MSTORE POP PUSH2 0x2123 PUSH1 0x40 DUP5 ADD PUSH2 0x2056 JUMP JUMPDEST PUSH1 0x40 DUP3 ADD MSTORE SWAP7 SWAP6 POP POP POP POP POP POP JUMP JUMPDEST DUP1 MLOAD PUSH3 0xFFFFFF DUP2 AND DUP2 EQ PUSH2 0x206E JUMPI PUSH1 0x0 DUP1 REVERT JUMPDEST DUP1 MLOAD PUSH1 0x1 DUP2 SWAP1 SIGNEXTEND DUP2 EQ PUSH2 0x206E JUMPI PUSH1 0x0 DUP1 REVERT JUMPDEST DUP1 MLOAD PUSH2 0xFFFF DUP2 AND DUP2 EQ PUSH2 0x206E JUMPI PUSH1 0x0 DUP1 REVERT JUMPDEST DUP1 MLOAD PUSH1 0xFF DUP2 AND DUP2 EQ PUSH2 0x206E JUMPI PUSH1 0x0 DUP1 REVERT JUMPDEST PUSH1 0x0 PUSH2 0x180 DUP3 DUP5 SUB SLT ISZERO PUSH2 0x218D JUMPI PUSH1 0x0 DUP1 REVERT JUMPDEST PUSH2 0x2195 PUSH2 0x1AD6 JUMP JUMPDEST DUP3 MLOAD DUP2 MSTORE PUSH2 0x21A5 PUSH1 0x20 DUP5 ADD PUSH2 0x2132 JUMP JUMPDEST PUSH1 0x20 DUP3 ADD MSTORE PUSH2 0x21B6 PUSH1 0x40 DUP5 ADD PUSH2 0x2132 JUMP JUMPDEST PUSH1 0x40 DUP3 ADD MSTORE PUSH2 0x21C7 PUSH1 0x60 DUP5 ADD PUSH2 0x2132 JUMP JUMPDEST PUSH1 0x60 DUP3 ADD MSTORE PUSH2 0x21D8 PUSH1 0x80 DUP5 ADD PUSH2 0x2132 JUMP JUMPDEST PUSH1 0x80 DUP3 ADD MSTORE PUSH2 0x21E9 PUSH1 0xA0 DUP5 ADD PUSH2 0x2145 JUMP JUMPDEST PUSH1 0xA0 DUP3 ADD MSTORE PUSH2 0x21FA PUSH1 0xC0 DUP5 ADD PUSH2 0x2157 JUMP JUMPDEST PUSH1 0xC0 DUP3 ADD MSTORE PUSH2 0x220B PUSH1 0xE0 DUP5 ADD PUSH2 0x2157 JUMP JUMPDEST PUSH1 0xE0 DUP3 ADD MSTORE PUSH2 0x100 PUSH2 0x221E DUP2 DUP6 ADD PUSH2 0x2169 JUMP JUMPDEST SWAP1 DUP3 ADD MSTORE PUSH2 0x120 PUSH2 0x2230 DUP5 DUP3 ADD PUSH2 0x2169 JUMP JUMPDEST SWAP1 DUP3 ADD MSTORE PUSH2 0x140 PUSH2 0x2242 DUP5 DUP3 ADD PUSH2 0x2169 JUMP JUMPDEST SWAP1 DUP3 ADD MSTORE PUSH2 0x160 PUSH2 0x2254 DUP5 DUP3 ADD PUSH2 0x2169 JUMP JUMPDEST SWAP1 DUP3 ADD MSTORE SWAP4 SWAP3 POP POP POP JUMP JUMPDEST PUSH4 0x4E487B71 PUSH1 0xE0 SHL PUSH1 0x0 MSTORE PUSH1 0x11 PUSH1 0x4 MSTORE PUSH1 0x24 PUSH1 0x0 REVERT JUMPDEST DUP1 DUP3 ADD DUP1 DUP3 GT ISZERO PUSH2 0xF8F JUMPI PUSH2 0xF8F PUSH2 0x225F JUMP JUMPDEST PUSH1 0x1 PUSH1 0x1 PUSH1 0xA0 SHL SUB DUP10 DUP2 AND DUP3 MSTORE PUSH1 0x20 DUP3 ADD DUP10 SWAP1 MSTORE PUSH1 0x40 DUP3 ADD DUP9 SWAP1 MSTORE DUP7 AND PUSH1 0x60 DUP3 ADD MSTORE PUSH1 0x1 PUSH1 0x1 PUSH1 0xE0 SHL SUB NOT DUP6 AND PUSH1 0x80 DUP3 ADD MSTORE PUSH1 0xA0 DUP2 ADD DUP5 SWAP1 MSTORE PUSH1 0xC0 DUP2 ADD DUP4 SWAP1 MSTORE PUSH2 0x100 PUSH1 0xE0 DUP3 ADD DUP2 SWAP1 MSTORE PUSH1 0x0 SWAP1 PUSH2 0x22E1 DUP4 DUP3 ADD DUP6 PUSH2 0x1D3E JUMP JUMPDEST SWAP12 SWAP11 POP POP POP POP POP POP POP POP POP POP POP JUMP JUMPDEST PUSH1 0x0 DUP3 PUSH2 0x230D JUMPI PUSH4 0x4E487B71 PUSH1 0xE0 SHL PUSH1 0x0 MSTORE PUSH1 0x12 PUSH1 0x4 MSTORE PUSH1 0x24 PUSH1 0x0 REVERT JUMPDEST POP MOD SWAP1 JUMP JUMPDEST DUP2 DUP2 SUB DUP2 DUP2 GT ISZERO PUSH2 0xF8F JUMPI PUSH2 0xF8F PUSH2 0x225F JUMP JUMPDEST PUSH1 0x1 DUP1 PUSH1 0xA0 SHL SUB DUP5 AND DUP2 MSTORE DUP3 PUSH1 0x20 DUP3 ADD MSTORE PUSH1 0x60 PUSH1 0x40 DUP3 ADD MSTORE PUSH1 0x0 PUSH2 0xF4B PUSH1 0x60 DUP4 ADD DUP5 PUSH2 0x1D3E JUMP JUMPDEST DUP1 DUP3 MUL DUP2 ISZERO DUP3 DUP3 DIV DUP5 EQ OR PUSH2 0xF8F JUMPI PUSH2 0xF8F PUSH2 0x225F JUMP JUMPDEST PUSH1 0x1 DUP2 DUP2 JUMPDEST DUP1 DUP6 GT ISZERO PUSH2 0x239E JUMPI DUP2 PUSH1 0x0 NOT DIV DUP3 GT ISZERO PUSH2 0x2384 JUMPI PUSH2 0x2384 PUSH2 0x225F JUMP JUMPDEST DUP1 DUP6 AND ISZERO PUSH2 0x2391 JUMPI SWAP2 DUP2 MUL SWAP2 JUMPDEST SWAP4 DUP5 SHR SWAP4 SWAP1 DUP1 MUL SWAP1 PUSH2 0x2368 JUMP JUMPDEST POP SWAP3 POP SWAP3 SWAP1 POP JUMP JUMPDEST PUSH1 0x0 DUP3 PUSH2 0x23B5 JUMPI POP PUSH1 0x1 PUSH2 0xF8F JUMP JUMPDEST DUP2 PUSH2 0x23C2 JUMPI POP PUSH1 0x0 PUSH2 0xF8F JUMP JUMPDEST DUP2 PUSH1 0x1 DUP2 EQ PUSH2 0x23D8 JUMPI PUSH1 0x2 DUP2 EQ PUSH2 0x23E2 JUMPI PUSH2 0x23FE JUMP JUMPDEST PUSH1 0x1 SWAP2 POP POP PUSH2 0xF8F JUMP JUMPDEST PUSH1 0xFF DUP5 GT ISZERO PUSH2 0x23F3 JUMPI PUSH2 0x23F3 PUSH2 0x225F JUMP JUMPDEST POP POP PUSH1 0x1 DUP3 SHL PUSH2 0xF8F JUMP JUMPDEST POP PUSH1 0x20 DUP4 LT PUSH2 0x133 DUP4 LT AND PUSH1 0x4E DUP5 LT PUSH1 0xB DUP5 LT AND OR ISZERO PUSH2 0x2421 JUMPI POP DUP2 DUP2 EXP PUSH2 0xF8F JUMP JUMPDEST PUSH2 0x242B DUP4 DUP4 PUSH2 0x2363 JUMP JUMPDEST DUP1 PUSH1 0x0 NOT DIV DUP3 GT ISZERO PUSH2 0x243F JUMPI PUSH2 0x243F PUSH2 0x225F JUMP JUMPDEST MUL SWAP4 SWAP3 POP POP POP JUMP JUMPDEST PUSH1 0x0 PUSH2 0xF8C DUP4 DUP4 PUSH2 0x23A6 JUMP INVALID LOG2 PUSH5 0x6970667358 0x22 SLT KECCAK256 TIMESTAMP EQ 0xBC ADDRESS CALLVALUE PUSH8 0x970B11B07F7E2075 0xAE SLOAD 0xE0 PUSH16 0xA91B28E6DCDC28DFAA42C3BCD1C16473 PUSH16 0x6C634300081200330000000000000000 "},"methodIdentifiers":{"fulfillCurrentConditions(bytes32,bytes)":"e13caa63","fulfillLocation(bytes32,bool,bytes)":"dffe2894","fulfillLocationCurrentConditions(bytes32,bool,bytes,bytes)":"371eaced","getOracleAddress()":"b18b78dd","requestCurrentConditions(bytes32,uint256,uint256,string)":"24a1065d","requestIdCurrentConditionsResult(bytes32)":"37b95e86","requestIdLocationResult(bytes32)":"9c2b98fb","requestIdRequestParams(bytes32)":"ed6a7175","requestLocation(bytes32,uint256,string,string)":"0d6011b3","requestLocationCurrentConditions(bytes32,uint256,string,string,string)":"4d425a84","setOracle(address)":"7adbf973","withdrawLink()":"8dc654a2"}},"storageLayout":{"storage":[{"astId":319,"contract":"contracts/AccuweatherConsumer.sol:AccuweatherConsumer","label":"s_ens","offset":0,"slot":"0","type":"t_contract(ENSInterface)1191"},{"astId":321,"contract":"contracts/AccuweatherConsumer.sol:AccuweatherConsumer","label":"s_ensNode","offset":0,"slot":"1","type":"t_bytes32"},{"astId":324,"contract":"contracts/AccuweatherConsumer.sol:AccuweatherConsumer","label":"s_link","offset":0,"slot":"2","type":"t_contract(LinkTokenInterface)1286"},{"astId":327,"contract":"contracts/AccuweatherConsumer.sol:AccuweatherConsumer","label":"s_oracle","offset":0,"slot":"3","type":"t_contract(OperatorInterface)1366"},{"astId":330,"contract":"contracts/AccuweatherConsumer.sol:AccuweatherConsumer","label":"s_requestCount","offset":0,"slot":"4","type":"t_uint256"},{"astId":334,"contract":"contracts/AccuweatherConsumer.sol:AccuweatherConsumer","label":"s_pendingRequests","offset":0,"slot":"5","type":"t_mapping(t_bytes32,t_address)"},{"astId":2450,"contract":"contracts/AccuweatherConsumer.sol:AccuweatherConsumer","label":"requestIdCurrentConditionsResult","offset":0,"slot":"6","type":"t_mapping(t_bytes32,t_struct(CurrentConditionsResult)2445_storage)"},{"astId":2455,"contract":"contracts/AccuweatherConsumer.sol:AccuweatherConsumer","label":"requestIdLocationResult","offset":0,"slot":"7","type":"t_mapping(t_bytes32,t_struct(LocationResult)2420_storage)"},{"astId":2460,"contract":"contracts/AccuweatherConsumer.sol:AccuweatherConsumer","label":"requestIdRequestParams","offset":0,"slot":"8","type":"t_mapping(t_bytes32,t_struct(RequestParams)2413_storage)"}],"types":{"t_address":{"encoding":"inplace","label":"address","numberOfBytes":"20"},"t_bytes2":{"encoding":"inplace","label":"bytes2","numberOfBytes":"2"},"t_bytes32":{"encoding":"inplace","label":"bytes32","numberOfBytes":"32"},"t_contract(ENSInterface)1191":{"encoding":"inplace","label":"contract ENSInterface","numberOfBytes":"20"},"t_contract(LinkTokenInterface)1286":{"encoding":"inplace","label":"contract LinkTokenInterface","numberOfBytes":"20"},"t_contract(OperatorInterface)1366":{"encoding":"inplace","label":"contract OperatorInterface","numberOfBytes":"20"},"t_int16":{"encoding":"inplace","label":"int16","numberOfBytes":"2"},"t_mapping(t_bytes32,t_address)":{"encoding":"mapping","key":"t_bytes32","label":"mapping(bytes32 => address)","numberOfBytes":"32","value":"t_address"},"t_mapping(t_bytes32,t_struct(CurrentConditionsResult)2445_storage)":{"encoding":"mapping","key":"t_bytes32","label":"mapping(bytes32 => struct AccuweatherConsumer.CurrentConditionsResult)","numberOfBytes":"32","value":"t_struct(CurrentConditionsResult)2445_storage"},"t_mapping(t_bytes32,t_struct(LocationResult)2420_storage)":{"encoding":"mapping","key":"t_bytes32","label":"mapping(bytes32 => struct AccuweatherConsumer.LocationResult)","numberOfBytes":"32","value":"t_struct(LocationResult)2420_storage"},"t_mapping(t_bytes32,t_struct(RequestParams)2413_storage)":{"encoding":"mapping","key":"t_bytes32","label":"mapping(bytes32 => struct AccuweatherConsumer.RequestParams)","numberOfBytes":"32","value":"t_struct(RequestParams)2413_storage"},"t_string_storage":{"encoding":"bytes","label":"string","numberOfBytes":"32"},"t_struct(CurrentConditionsResult)2445_storage":{"encoding":"inplace","label":"struct AccuweatherConsumer.CurrentConditionsResult","members":[{"astId":2422,"contract":"contracts/AccuweatherConsumer.sol:AccuweatherConsumer","label":"timestamp","offset":0,"slot":"0","type":"t_uint256"},{"astId":2424,"contract":"contracts/AccuweatherConsumer.sol:AccuweatherConsumer","label":"precipitationPast12Hours","offset":0,"slot":"1","type":"t_uint24"},{"astId":2426,"contract":"contracts/AccuweatherConsumer.sol:AccuweatherConsumer","label":"precipitationPast24Hours","offset":3,"slot":"1","type":"t_uint24"},{"astId":2428,"contract":"contracts/AccuweatherConsumer.sol:AccuweatherConsumer","label":"precipitationPastHour","offset":6,"slot":"1","type":"t_uint24"},{"astId":2430,"contract":"contracts/AccuweatherConsumer.sol:AccuweatherConsumer","label":"pressure","offset":9,"slot":"1","type":"t_uint24"},{"astId":2432,"contract":"contracts/AccuweatherConsumer.sol:AccuweatherConsumer","label":"temperature","offset":12,"slot":"1","type":"t_int16"},{"astId":2434,"contract":"contracts/AccuweatherConsumer.sol:AccuweatherConsumer","label":"windDirectionDegrees","offset":14,"slot":"1","type":"t_uint16"},{"astId":2436,"contract":"contracts/AccuweatherConsumer.sol:AccuweatherConsumer","label":"windSpeed","offset":16,"slot":"1","type":"t_uint16"},{"astId":2438,"contract":"contracts/AccuweatherConsumer.sol:AccuweatherConsumer","label":"precipitationType","offset":18,"slot":"1","type":"t_uint8"},{"astId":2440,"contract":"contracts/AccuweatherConsumer.sol:AccuweatherConsumer","label":"relativeHumidity","offset":19,"slot":"1","type":"t_uint8"},{"astId":2442,"contract":"contracts/AccuweatherConsumer.sol:AccuweatherConsumer","label":"uvIndex","offset":20,"slot":"1","type":"t_uint8"},{"astId":2444,"contract":"contracts/AccuweatherConsumer.sol:AccuweatherConsumer","label":"weatherIcon","offset":21,"slot":"1","type":"t_uint8"}],"numberOfBytes":"64"},"t_struct(LocationResult)2420_storage":{"encoding":"inplace","label":"struct AccuweatherConsumer.LocationResult","members":[{"astId":2415,"contract":"contracts/AccuweatherConsumer.sol:AccuweatherConsumer","label":"locationKey","offset":0,"slot":"0","type":"t_uint256"},{"astId":2417,"contract":"contracts/AccuweatherConsumer.sol:AccuweatherConsumer","label":"name","offset":0,"slot":"1","type":"t_string_storage"},{"astId":2419,"contract":"contracts/AccuweatherConsumer.sol:AccuweatherConsumer","label":"countryCode","offset":0,"slot":"2","type":"t_bytes2"}],"numberOfBytes":"96"},"t_struct(RequestParams)2413_storage":{"encoding":"inplace","label":"struct AccuweatherConsumer.RequestParams","members":[{"astId":2404,"contract":"contracts/AccuweatherConsumer.sol:AccuweatherConsumer","label":"locationKey","offset":0,"slot":"0","type":"t_uint256"},{"astId":2406,"contract":"contracts/AccuweatherConsumer.sol:AccuweatherConsumer","label":"endpoint","offset":0,"slot":"1","type":"t_string_storage"},{"astId":2408,"contract":"contracts/AccuweatherConsumer.sol:AccuweatherConsumer","label":"lat","offset":0,"slot":"2","type":"t_string_storage"},{"astId":2410,"contract":"contracts/AccuweatherConsumer.sol:AccuweatherConsumer","label":"lon","offset":0,"slot":"3","type":"t_string_storage"},{"astId":2412,"contract":"contracts/AccuweatherConsumer.sol:AccuweatherConsumer","label":"units","offset":0,"slot":"4","type":"t_string_storage"}],"numberOfBytes":"160"},"t_uint16":{"encoding":"inplace","label":"uint16","numberOfBytes":"2"},"t_uint24":{"encoding":"inplace","label":"uint24","numberOfBytes":"3"},"t_uint256":{"encoding":"inplace","label":"uint256","numberOfBytes":"32"},"t_uint8":{"encoding":"inplace","label":"uint8","numberOfBytes":"1"}}}}}}