{
  "_format": "hh-sol-artifact-1",
  "contractName": "AccuweatherConsumer",
  "sourceName": "contracts/AccuweatherConsumer.sol",
  "abi": [
    {
      "inputs": [
        {
          "internalType": "address",
          "name": "_link",
          "type": "address"
        },
        {
          "internalType": "address",
          "name": "_oracle",
          "type": "address"
        }
      ],
      "stateMutability": "nonpayable",
      "type": "constructor"
    },
    {
      "anonymous": false,
      "inputs": [
        {
          "indexed": true,
          "internalType": "bytes32",
          "name": "id",
          "type": "bytes32"
        }
      ],
      "name": "ChainlinkCancelled",
      "type": "event"
    },
    {
      "anonymous": false,
      "inputs": [
        {
          "indexed": true,
          "internalType": "bytes32",
          "name": "id",
          "type": "bytes32"
        }
      ],
      "name": "ChainlinkFulfilled",
      "type": "event"
    },
    {
      "anonymous": false,
      "inputs": [
        {
          "indexed": true,
          "internalType": "bytes32",
          "name": "id",
          "type": "bytes32"
        }
      ],
      "name": "ChainlinkRequested",
      "type": "event"
    },
    {
      "inputs": [
        {
          "internalType": "bytes32",
          "name": "_requestId",
          "type": "bytes32"
        },
        {
          "internalType": "bytes",
          "name": "_currentConditionsResult",
          "type": "bytes"
        }
      ],
      "name": "fulfillCurrentConditions",
      "outputs": [],
      "stateMutability": "nonpayable",
      "type": "function"
    },
    {
      "inputs": [
        {
          "internalType": "bytes32",
          "name": "_requestId",
          "type": "bytes32"
        },
        {
          "internalType": "bool",
          "name": "_locationFound",
          "type": "bool"
        },
        {
          "internalType": "bytes",
          "name": "_locationResult",
          "type": "bytes"
        }
      ],
      "name": "fulfillLocation",
      "outputs": [],
      "stateMutability": "nonpayable",
      "type": "function"
    },
    {
      "inputs": [
        {
          "internalType": "bytes32",
          "name": "_requestId",
          "type": "bytes32"
        },
        {
          "internalType": "bool",
          "name": "_locationFound",
          "type": "bool"
        },
        {
          "internalType": "bytes",
          "name": "_locationResult",
          "type": "bytes"
        },
        {
          "internalType": "bytes",
          "name": "_currentConditionsResult",
          "type": "bytes"
        }
      ],
      "name": "fulfillLocationCurrentConditions",
      "outputs": [],
      "stateMutability": "nonpayable",
      "type": "function"
    },
    {
      "inputs": [],
      "name": "getOracleAddress",
      "outputs": [
        {
          "internalType": "address",
          "name": "",
          "type": "address"
        }
      ],
      "stateMutability": "view",
      "type": "function"
    },
    {
      "inputs": [
        {
          "internalType": "bytes32",
          "name": "_specId",
          "type": "bytes32"
        },
        {
          "internalType": "uint256",
          "name": "_payment",
          "type": "uint256"
        },
        {
          "internalType": "uint256",
          "name": "_locationKey",
          "type": "uint256"
        },
        {
          "internalType": "string",
          "name": "_units",
          "type": "string"
        }
      ],
      "name": "requestCurrentConditions",
      "outputs": [],
      "stateMutability": "nonpayable",
      "type": "function"
    },
    {
      "inputs": [
        {
          "internalType": "bytes32",
          "name": "",
          "type": "bytes32"
        }
      ],
      "name": "requestIdCurrentConditionsResult",
      "outputs": [
        {
          "internalType": "uint256",
          "name": "timestamp",
          "type": "uint256"
        },
        {
          "internalType": "uint24",
          "name": "precipitationPast12Hours",
          "type": "uint24"
        },
        {
          "internalType": "uint24",
          "name": "precipitationPast24Hours",
          "type": "uint24"
        },
        {
          "internalType": "uint24",
          "name": "precipitationPastHour",
          "type": "uint24"
        },
        {
          "internalType": "uint24",
          "name": "pressure",
          "type": "uint24"
        },
        {
          "internalType": "int16",
          "name": "temperature",
          "type": "int16"
        },
        {
          "internalType": "uint16",
          "name": "windDirectionDegrees",
          "type": "uint16"
        },
        {
          "internalType": "uint16",
          "name": "windSpeed",
          "type": "uint16"
        },
        {
          "internalType": "uint8",
          "name": "precipitationType",
          "type": "uint8"
        },
        {
          "internalType": "uint8",
          "name": "relativeHumidity",
          "type": "uint8"
        },
        {
          "internalType": "uint8",
          "name": "uvIndex",
          "type": "uint8"
        },
        {
          "internalType": "uint8",
          "name": "weatherIcon",
          "type": "uint8"
        }
      ],
      "stateMutability": "view",
      "type": "function"
    },
    {
      "inputs": [
        {
          "internalType": "bytes32",
          "name": "",
          "type": "bytes32"
        }
      ],
      "name": "requestIdLocationResult",
      "outputs": [
        {
          "internalType": "uint256",
          "name": "locationKey",
          "type": "uint256"
        },
        {
          "internalType": "string",
          "name": "name",
          "type": "string"
        },
        {
          "internalType": "bytes2",
          "name": "countryCode",
          "type": "bytes2"
        }
      ],
      "stateMutability": "view",
      "type": "function"
    },
    {
      "inputs": [
        {
          "internalType": "bytes32",
          "name": "",
          "type": "bytes32"
        }
      ],
      "name": "requestIdRequestParams",
      "outputs": [
        {
          "internalType": "uint256",
          "name": "locationKey",
          "type": "uint256"
        },
        {
          "internalType": "string",
          "name": "endpoint",
          "type": "string"
        },
        {
          "internalType": "string",
          "name": "lat",
          "type": "string"
        },
        {
          "internalType": "string",
          "name": "lon",
          "type": "string"
        },
        {
          "internalType": "string",
          "name": "units",
          "type": "string"
        }
      ],
      "stateMutability": "view",
      "type": "function"
    },
    {
      "inputs": [
        {
          "internalType": "bytes32",
          "name": "_specId",
          "type": "bytes32"
        },
        {
          "internalType": "uint256",
          "name": "_payment",
          "type": "uint256"
        },
        {
          "internalType": "string",
          "name": "_lat",
          "type": "string"
        },
        {
          "internalType": "string",
          "name": "_lon",
          "type": "string"
        }
      ],
      "name": "requestLocation",
      "outputs": [],
      "stateMutability": "nonpayable",
      "type": "function"
    },
    {
      "inputs": [
        {
          "internalType": "bytes32",
          "name": "_specId",
          "type": "bytes32"
        },
        {
          "internalType": "uint256",
          "name": "_payment",
          "type": "uint256"
        },
        {
          "internalType": "string",
          "name": "_lat",
          "type": "string"
        },
        {
          "internalType": "string",
          "name": "_lon",
          "type": "string"
        },
        {
          "internalType": "string",
          "name": "_units",
          "type": "string"
        }
      ],
      "name": "requestLocationCurrentConditions",
      "outputs": [],
      "stateMutability": "nonpayable",
      "type": "function"
    },
    {
      "inputs": [
        {
          "internalType": "address",
          "name": "_oracle",
          "type": "address"
        }
      ],
      "name": "setOracle",
      "outputs": [],
      "stateMutability": "nonpayable",
      "type": "function"
    },
    {
      "inputs": [],
      "name": "withdrawLink",
      "outputs": [],
      "stateMutability": "nonpayable",
      "type": "function"
    }
  ],
  "bytecode": "0x608060405260016004553480156200001657600080fd5b506040516200256538038062002565833981016040819052620000399162000094565b600280546001600160a01b0319166001600160a01b038416179055600380546001600160a01b0319166001600160a01b0383161790555050620000cc565b80516001600160a01b03811681146200008f57600080fd5b919050565b60008060408385031215620000a857600080fd5b620000b38362000077565b9150620000c36020840162000077565b90509250929050565b61248980620000dc6000396000f3fe608060405234801561001057600080fd5b50600436106100b45760003560e01c80638dc654a2116100715780638dc654a21461024f5780639c2b98fb14610257578063b18b78dd14610279578063dffe289414610299578063e13caa63146102ac578063ed6a7175146102bf57600080fd5b80630d6011b3146100b957806324a1065d146100ce578063371eaced146100e157806337b95e86146100f45780634d425a84146102105780637adbf97314610223575b600080fd5b6100cc6100c73660046119a8565b6102e3565b005b6100cc6100dc366004611a2a565b6104c9565b6100cc6100ef366004611ba6565b610684565b610196610102366004611c25565b60066020526000908152604090208054600191820154909162ffffff808316926301000000810482169266010000000000008204831692690100000000000000000083041691600160601b810490910b9061ffff600160701b8204811691600160801b81049091169060ff600160901b8204811691600160981b8104821691600160a01b8204811691600160a81b9004168c565b604080519c8d5262ffffff9b8c1660208e0152998b16998c019990995296891660608b015294909716608089015260019290920b60a088015261ffff90811660c08801521660e086015260ff9384166101008601528316610120850152821661014084015216610160820152610180015b60405180910390f35b6100cc61021e366004611c3e565b610729565b6100cc610231366004611cea565b600380546001600160a01b0319166001600160a01b03831617905550565b6100cc6109c5565b61026a610265366004611c25565b610afe565b60405161020793929190611d6a565b610281610bac565b6040516001600160a01b039091168152602001610207565b6100cc6102a7366004611d9a565b610bc5565b6100cc6102ba366004611df2565b610c56565b6102d26102cd366004611c25565b610ce0565b604051610207959493929190611e38565b60006102f787306337ff8a2560e21b610f2f565b905061034e60405180604001604052806008815260200167195b991c1bda5b9d60c21b815250604051806040016040528060088152602001673637b1b0ba34b7b760c11b81525083610f549092919063ffffffff16565b6103ad604051806040016040528060038152602001621b185d60ea1b81525086868080601f016020809104026020016040519081016040528093929190818152602001838380828437600092019190915250869493925050610f549050565b61040c604051806040016040528060038152602001623637b760e91b81525084848080601f016020809104026020016040519081016040528093929190818152602001838380828437600092019190915250869493925050610f549050565b60006104188288610f72565b90506104bf816000604051806040016040528060088152602001673637b1b0ba34b7b760c11b81525089898080601f01602080910402602001604051908101604052809392919081815260200183838082843760009201919091525050604080516020601f8d018190048102820181019092528b815292508b91508a9081908401838280828437600092018290525060408051602081019091529081529250610f95915050565b5050505050505050565b60006104dd863063e13caa6360e01b610f2f565b905061053e60405180604001604052806008815260200167195b991c1bda5b9d60c21b8152506040518060400160405280601281526020017163757272656e742d636f6e646974696f6e7360701b81525083610f549092919063ffffffff16565b60408051808201909152600b81526a6c6f636174696f6e4b657960a81b602082015261056c9082908661104c565b6105cd60405180604001604052806005815260200164756e69747360d81b81525084848080601f016020809104026020016040519081016040528093929190818152602001838380828437600092019190915250869493925050610f549050565b60006105d98287610f72565b905061067b81866040518060400160405280601281526020017163757272656e742d636f6e646974696f6e7360701b815250604051806040016040528060018152602001600360fc1b815250604051806040016040528060018152602001600360fc1b81525089898080601f016020809104026020016040519081016040528093929190818152602001838380828437600092019190915250610f9592505050565b50505050505050565b60008481526005602052604090205484906001600160a01b031633146106c55760405162461bcd60e51b81526004016106bc90611e97565b60405180910390fd5b60008181526005602052604080822080546001600160a01b03191690555182917f7cc135e0cebb02c3480ae5d74d377283180a2601f8f644edf7987b009316c63a91a2831561072257610718858461106a565b61072285836110d2565b5050505050565b600061073d893063371eaced60e01b610f2f565b90506107a960405180604001604052806008815260200167195b991c1bda5b9d60c21b8152506040518060400160405280601b81526020017f6c6f636174696f6e2d63757272656e742d636f6e646974696f6e73000000000081525083610f549092919063ffffffff16565b610808604051806040016040528060038152602001621b185d60ea1b81525088888080601f016020809104026020016040519081016040528093929190818152602001838380828437600092019190915250869493925050610f549050565b610867604051806040016040528060038152602001623637b760e91b81525086868080601f016020809104026020016040519081016040528093929190818152602001838380828437600092019190915250869493925050610f549050565b6108c860405180604001604052806005815260200164756e69747360d81b81525084848080601f016020809104026020016040519081016040528093929190818152602001838380828437600092019190915250869493925050610f549050565b60006108d4828a610f72565b90506109b68160006040518060400160405280601b81526020017f6c6f636174696f6e2d63757272656e742d636f6e646974696f6e7300000000008152508b8b8080601f01602080910402602001604051908101604052809392919081815260200183838082843760009201919091525050604080516020601f8f018190048102820181019092528d815292508d91508c908190840183828082843760009201919091525050604080516020601f8e018190048102820181019092528c815292508c91508b9081908401838280828437600092019190915250610f9592505050565b50505050505050505050565b50565b60006109d96002546001600160a01b031690565b6040516370a0823160e01b81523060048201529091506001600160a01b0382169063a9059cbb90339083906370a0823190602401602060405180830381865afa158015610a2a573d6000803e3d6000fd5b505050506040513d601f19601f82011682018060405250810190610a4e9190611edf565b6040516001600160e01b031960e085901b1681526001600160a01b03909216600483015260248201526044016020604051808303816000875af1158015610a99573d6000803e3d6000fd5b505050506040513d601f19601f82011682018060405250810190610abd9190611ef8565b6109c25760405162461bcd60e51b81526020600482015260126024820152712ab730b13632903a37903a3930b739b332b960711b60448201526064016106bc565b60076020526000908152604090208054600182018054919291610b2090611f15565b80601f0160208091040260200160405190810160405280929190818152602001828054610b4c90611f15565b8015610b995780601f10610b6e57610100808354040283529160200191610b99565b820191906000526020600020905b815481529060010190602001808311610b7c57829003601f168201915b5050506002909301549192505060f01b83565b6000610bc06003546001600160a01b031690565b905090565b60008381526005602052604090205483906001600160a01b03163314610bfd5760405162461bcd60e51b81526004016106bc90611e97565b60008181526005602052604080822080546001600160a01b03191690555182917f7cc135e0cebb02c3480ae5d74d377283180a2601f8f644edf7987b009316c63a91a28215610c5057610c50848361106a565b50505050565b60008281526005602052604090205482906001600160a01b03163314610c8e5760405162461bcd60e51b81526004016106bc90611e97565b60008181526005602052604080822080546001600160a01b03191690555182917f7cc135e0cebb02c3480ae5d74d377283180a2601f8f644edf7987b009316c63a91a2610cdb83836110d2565b505050565b60086020526000908152604090208054600182018054919291610d0290611f15565b80601f0160208091040260200160405190810160405280929190818152602001828054610d2e90611f15565b8015610d7b5780601f10610d5057610100808354040283529160200191610d7b565b820191906000526020600020905b815481529060010190602001808311610d5e57829003601f168201915b505050505090806002018054610d9090611f15565b80601f0160208091040260200160405190810160405280929190818152602001828054610dbc90611f15565b8015610e095780601f10610dde57610100808354040283529160200191610e09565b820191906000526020600020905b815481529060010190602001808311610dec57829003601f168201915b505050505090806003018054610e1e90611f15565b80601f0160208091040260200160405190810160405280929190818152602001828054610e4a90611f15565b8015610e975780601f10610e6c57610100808354040283529160200191610e97565b820191906000526020600020905b815481529060010190602001808311610e7a57829003601f168201915b505050505090806004018054610eac90611f15565b80601f0160208091040260200160405190810160405280929190818152602001828054610ed890611f15565b8015610f255780601f10610efa57610100808354040283529160200191610f25565b820191906000526020600020905b815481529060010190602001808311610f0857829003601f168201915b5050505050905085565b610f37611925565b610f3f611925565b610f4b81868686611298565b95945050505050565b6080830151610f6390836112de565b6080830151610cdb90826112de565b600354600090610f8c906001600160a01b031684846112f5565b90505b92915050565b610fc76040518060a0016040528060008152602001606081526020016060815260200160608152602001606081525090565b85815260208082018681526040808401879052606084018690526080840185905260008a81526008909352909120825181559051829190600182019061100d9082611f97565b50604082015160028201906110229082611f97565b50606082015160038201906110379082611f97565b50608082015160048201906109b69082611f97565b608083015161105b90836112de565b6080830151610cdb9082611388565b6000818060200190518101906110809190612073565b60008481526007602090815260409091208251815590820151919250829160018201906110ad9082611f97565b50604091909101516002909101805461ffff191660f09290921c919091179055505050565b6000818060200190518101906110e8919061217a565b905080600660008581526020019081526020016000206000820151816000015560208201518160010160006101000a81548162ffffff021916908362ffffff16021790555060408201518160010160036101000a81548162ffffff021916908362ffffff16021790555060608201518160010160066101000a81548162ffffff021916908362ffffff16021790555060808201518160010160096101000a81548162ffffff021916908362ffffff16021790555060a082015181600101600c6101000a81548161ffff021916908360010b61ffff16021790555060c082015181600101600e6101000a81548161ffff021916908361ffff16021790555060e08201518160010160106101000a81548161ffff021916908361ffff1602179055506101008201518160010160126101000a81548160ff021916908360ff1602179055506101208201518160010160136101000a81548160ff021916908360ff1602179055506101408201518160010160146101000a81548160ff021916908360ff1602179055506101608201518160010160156101000a81548160ff021916908360ff160217905550905050505050565b6112a0611925565b6112b085608001516101006113b1565b50508284526001600160a01b03821660208501526001600160e01b031981166040850152835b949350505050565b6112eb8260038351611416565b610cdb828261151d565b600454600090611306816001612275565b600455835160408086015160808701515191516000936320214ca360e11b9361133e9386938493923092918a91600191602401612288565b60408051601f198184030181529190526020810180516001600160e01b03166001600160e01b031990931692909217909152905061137e86838684611544565b9695505050505050565b6001600160401b038111156113a5576113a182826116a2565b5050565b6113a182600083611416565b6040805180820190915260608152600060208201526113d16020836122f0565b156113f9576113e16020836122f0565b6113ec906020612312565b6113f69083612275565b91505b506020828101829052604080518085526000815290920101905290565b6017816001600160401b03161161143a57610c508360e0600585901b1683176116d9565b60ff816001600160401b03161161147657611460836018611fe0600586901b16176116d9565b50610c50836001600160401b03831660016116fe565b61ffff816001600160401b0316116114b35761149d836019611fe0600586901b16176116d9565b50610c50836001600160401b03831660026116fe565b63ffffffff816001600160401b0316116114f2576114dc83601a611fe0600586901b16176116d9565b50610c50836001600160401b03831660046116fe565b61150783601b611fe0600586901b16176116d9565b50610c50836001600160401b03831660086116fe565b604080518082019091526060815260006020820152610f8c83846000015151848551611724565b6040516bffffffffffffffffffffffff193060601b1660208201526034810184905260009060540160408051808303601f1901815282825280516020918201206000818152600590925291812080546001600160a01b0319166001600160a01b038a1617905590925082917fb5e6e01e79f91267dc17b4e6314d5d4d03593d2ceee0fbb452b750bd70ea5af99190a2600254604051630200057560e51b81526001600160a01b0390911690634000aea09061160790889087908790600401612325565b6020604051808303816000875af1158015611626573d6000803e3d6000fd5b505050506040513d601f19601f8201168201806040525081019061164a9190611ef8565b6112d65760405162461bcd60e51b815260206004820152602360248201527f756e61626c6520746f207472616e73666572416e6443616c6c20746f206f7261604482015262636c6560e81b60648201526084016106bc565b6116ad8260c26116d9565b506113a182826040516020016116c591815260200190565b60405160208183030381529060405261180e565b604080518082019091526060815260006020820152610f8c838460000151518461181b565b6040805180820190915260608152600060208201526112d6848560000151518585611876565b604080518082019091526060815260006020820152825182111561174757600080fd5b60208501516117568386612275565b11156117895761178985611779876020015187866117749190612275565b6118f7565b61178490600261234c565b61190e565b6000808651805187602083010193508088870111156117a85787860182525b505050602084015b602084106117e857805182526117c7602083612275565b91506117d4602082612275565b90506117e1602085612312565b93506117b0565b51815160001960208690036101000a019081169019919091161790525083949350505050565b6112eb8260028351611416565b60408051808201909152606081526000602082015283602001518310611850576118508485602001516002611784919061234c565b835180516020858301018481535080850361186c576001810182525b5093949350505050565b604080518082019091526060815260006020820152602085015161189a8584612275565b11156118ae576118ae856117798685612275565b600060016118be84610100612447565b6118c89190612312565b90508551838682010185831982511617815250805184870111156118ec5783860181525b509495945050505050565b600081831115611908575081610f8f565b50919050565b815161191a83836113b1565b50610c50838261151d565b6040805160a0810182526000808252602080830182905282840182905260608084018390528451808601909552845283015290608082015290565b60008083601f84011261197257600080fd5b5081356001600160401b0381111561198957600080fd5b6020830191508360208285010111156119a157600080fd5b9250929050565b600080600080600080608087890312156119c157600080fd5b863595506020870135945060408701356001600160401b03808211156119e657600080fd5b6119f28a838b01611960565b90965094506060890135915080821115611a0b57600080fd5b50611a1889828a01611960565b979a9699509497509295939492505050565b600080600080600060808688031215611a4257600080fd5b85359450602086013593506040860135925060608601356001600160401b03811115611a6d57600080fd5b611a7988828901611960565b969995985093965092949392505050565b80151581146109c257600080fd5b634e487b7160e01b600052604160045260246000fd5b604051606081016001600160401b0381118282101715611ad057611ad0611a98565b60405290565b60405161018081016001600160401b0381118282101715611ad057611ad0611a98565b604051601f8201601f191681016001600160401b0381118282101715611b2157611b21611a98565b604052919050565b60006001600160401b03821115611b4257611b42611a98565b50601f01601f191660200190565b600082601f830112611b6157600080fd5b8135611b74611b6f82611b29565b611af9565b818152846020838601011115611b8957600080fd5b816020850160208301376000918101602001919091529392505050565b60008060008060808587031215611bbc57600080fd5b843593506020850135611bce81611a8a565b925060408501356001600160401b0380821115611bea57600080fd5b611bf688838901611b50565b93506060870135915080821115611c0c57600080fd5b50611c1987828801611b50565b91505092959194509250565b600060208284031215611c3757600080fd5b5035919050565b60008060008060008060008060a0898b031215611c5a57600080fd5b883597506020890135965060408901356001600160401b0380821115611c7f57600080fd5b611c8b8c838d01611960565b909850965060608b0135915080821115611ca457600080fd5b611cb08c838d01611960565b909650945060808b0135915080821115611cc957600080fd5b50611cd68b828c01611960565b999c989b5096995094979396929594505050565b600060208284031215611cfc57600080fd5b81356001600160a01b0381168114611d1357600080fd5b9392505050565b60005b83811015611d35578181015183820152602001611d1d565b50506000910152565b60008151808452611d56816020860160208601611d1a565b601f01601f19169290920160200192915050565b838152606060208201526000611d836060830185611d3e565b905061ffff60f01b83166040830152949350505050565b600080600060608486031215611daf57600080fd5b833592506020840135611dc181611a8a565b915060408401356001600160401b03811115611ddc57600080fd5b611de886828701611b50565b9150509250925092565b60008060408385031215611e0557600080fd5b8235915060208301356001600160401b03811115611e2257600080fd5b611e2e85828601611b50565b9150509250929050565b85815260a060208201526000611e5160a0830187611d3e565b8281036040840152611e638187611d3e565b90508281036060840152611e778186611d3e565b90508281036080840152611e8b8185611d3e565b98975050505050505050565b60208082526028908201527f536f75726365206d75737420626520746865206f7261636c65206f6620746865604082015267081c995c5d595cdd60c21b606082015260800190565b600060208284031215611ef157600080fd5b5051919050565b600060208284031215611f0a57600080fd5b8151611d1381611a8a565b600181811c90821680611f2957607f821691505b60208210810361190857634e487b7160e01b600052602260045260246000fd5b601f821115610cdb57600081815260208120601f850160051c81016020861015611f705750805b601f850160051c820191505b81811015611f8f57828155600101611f7c565b505050505050565b81516001600160401b03811115611fb057611fb0611a98565b611fc481611fbe8454611f15565b84611f49565b602080601f831160018114611ff95760008415611fe15750858301515b600019600386901b1c1916600185901b178555611f8f565b600085815260208120601f198616915b8281101561202857888601518255948401946001909101908401612009565b50858210156120465787850151600019600388901b60f8161c191681555b5050505050600190811b01905550565b80516001600160f01b03198116811461206e57600080fd5b919050565b6000602080838503121561208657600080fd5b82516001600160401b038082111561209d57600080fd5b90840190606082870312156120b157600080fd5b6120b9611aae565b8251815283830151828111156120ce57600080fd5b83019150601f820187136120e157600080fd5b81516120ef611b6f82611b29565b818152888683860101111561210357600080fd5b61211282878301888701611d1a565b828601525061212360408401612056565b60408201529695505050505050565b805162ffffff8116811461206e57600080fd5b8051600181900b811461206e57600080fd5b805161ffff8116811461206e57600080fd5b805160ff8116811461206e57600080fd5b6000610180828403121561218d57600080fd5b612195611ad6565b825181526121a560208401612132565b60208201526121b660408401612132565b60408201526121c760608401612132565b60608201526121d860808401612132565b60808201526121e960a08401612145565b60a08201526121fa60c08401612157565b60c082015261220b60e08401612157565b60e082015261010061221e818501612169565b90820152610120612230848201612169565b90820152610140612242848201612169565b90820152610160612254848201612169565b908201529392505050565b634e487b7160e01b600052601160045260246000fd5b80820180821115610f8f57610f8f61225f565b6001600160a01b0389811682526020820189905260408201889052861660608201526001600160e01b03198516608082015260a0810184905260c0810183905261010060e082018190526000906122e183820185611d3e565b9b9a5050505050505050505050565b60008261230d57634e487b7160e01b600052601260045260246000fd5b500690565b81810381811115610f8f57610f8f61225f565b60018060a01b0384168152826020820152606060408201526000610f4b6060830184611d3e565b8082028115828204841417610f8f57610f8f61225f565b600181815b8085111561239e5781600019048211156123845761238461225f565b8085161561239157918102915b93841c9390800290612368565b509250929050565b6000826123b557506001610f8f565b816123c257506000610f8f565b81600181146123d857600281146123e2576123fe565b6001915050610f8f565b60ff8411156123f3576123f361225f565b50506001821b610f8f565b5060208310610133831016604e8410600b8410161715612421575081810a610f8f565b61242b8383612363565b806000190482111561243f5761243f61225f565b029392505050565b6000610f8c83836123a656fea26469706673582212204214bc303467970b11b07f7e2075ae54e06fa91b28e6dcdc28dfaa42c3bcd1c164736f6c63430008120033",
  "linkReferences": {},
  "deployedLinkReferences": {}
}