{
  "_format": "hh-sol-artifact-1",
  "contractName": "CropLink",
  "sourceName": "contracts/Croplink.sol",
  "abi": [
    {
      "inputs": [
        {
          "internalType": "address",
          "name": "linkAddress",
          "type": "address"
        },
        {
          "internalType": "address",
          "name": "oracleAddress",
          "type": "address"
        }
      ],
      "stateMutability": "nonpayable",
      "type": "constructor"
    },
    {
      "inputs": [],
      "name": "accuweatherConsumer",
      "outputs": [
        {
          "internalType": "contract AccuweatherConsumer",
          "name": "",
          "type": "address"
        }
      ],
      "stateMutability": "view",
      "type": "function"
    },
    {
      "inputs": [
        {
          "internalType": "string",
          "name": "_name",
          "type": "string"
        },
        {
          "internalType": "uint256",
          "name": "_quantity",
          "type": "uint256"
        },
        {
          "internalType": "uint256",
          "name": "_price",
          "type": "uint256"
        }
      ],
      "name": "addProduce",
      "outputs": [],
      "stateMutability": "nonpayable",
      "type": "function"
    },
    {
      "inputs": [
        {
          "internalType": "uint256",
          "name": "",
          "type": "uint256"
        }
      ],
      "name": "buyerAddresses",
      "outputs": [
        {
          "internalType": "address",
          "name": "",
          "type": "address"
        }
      ],
      "stateMutability": "view",
      "type": "function"
    },
    {
      "inputs": [
        {
          "internalType": "address",
          "name": "",
          "type": "address"
        }
      ],
      "name": "buyerVerifications",
      "outputs": [
        {
          "internalType": "bool",
          "name": "",
          "type": "bool"
        }
      ],
      "stateMutability": "view",
      "type": "function"
    },
    {
      "inputs": [
        {
          "internalType": "address",
          "name": "",
          "type": "address"
        }
      ],
      "name": "buyers",
      "outputs": [
        {
          "internalType": "bool",
          "name": "",
          "type": "bool"
        }
      ],
      "stateMutability": "view",
      "type": "function"
    },
    {
      "inputs": [],
      "name": "claimTreasury",
      "outputs": [],
      "stateMutability": "nonpayable",
      "type": "function"
    },
    {
      "inputs": [
        {
          "internalType": "uint256",
          "name": "_index",
          "type": "uint256"
        }
      ],
      "name": "deleteProduce",
      "outputs": [],
      "stateMutability": "nonpayable",
      "type": "function"
    },
    {
      "inputs": [
        {
          "internalType": "uint256",
          "name": "_index",
          "type": "uint256"
        },
        {
          "internalType": "string",
          "name": "_name",
          "type": "string"
        },
        {
          "internalType": "uint256",
          "name": "_quantity",
          "type": "uint256"
        },
        {
          "internalType": "uint256",
          "name": "_price",
          "type": "uint256"
        }
      ],
      "name": "editProduce",
      "outputs": [],
      "stateMutability": "nonpayable",
      "type": "function"
    },
    {
      "inputs": [
        {
          "internalType": "uint256",
          "name": "",
          "type": "uint256"
        }
      ],
      "name": "farmerAddresses",
      "outputs": [
        {
          "internalType": "address",
          "name": "",
          "type": "address"
        }
      ],
      "stateMutability": "view",
      "type": "function"
    },
    {
      "inputs": [
        {
          "internalType": "address",
          "name": "",
          "type": "address"
        }
      ],
      "name": "farmerVerifications",
      "outputs": [
        {
          "internalType": "bool",
          "name": "",
          "type": "bool"
        }
      ],
      "stateMutability": "view",
      "type": "function"
    },
    {
      "inputs": [
        {
          "internalType": "address",
          "name": "",
          "type": "address"
        }
      ],
      "name": "farmers",
      "outputs": [
        {
          "internalType": "bool",
          "name": "",
          "type": "bool"
        }
      ],
      "stateMutability": "view",
      "type": "function"
    },
    {
      "inputs": [
        {
          "internalType": "bytes32",
          "name": "_requestId",
          "type": "bytes32"
        },
        {
          "internalType": "int256",
          "name": "_temperature",
          "type": "int256"
        }
      ],
      "name": "fulfill",
      "outputs": [],
      "stateMutability": "nonpayable",
      "type": "function"
    },
    {
      "inputs": [],
      "name": "getAllProduceList",
      "outputs": [
        {
          "components": [
            {
              "internalType": "string",
              "name": "name",
              "type": "string"
            },
            {
              "internalType": "uint256",
              "name": "quantity",
              "type": "uint256"
            },
            {
              "internalType": "uint256",
              "name": "price",
              "type": "uint256"
            },
            {
              "internalType": "bool",
              "name": "sold",
              "type": "bool"
            }
          ],
          "internalType": "struct CropLink.Produce[]",
          "name": "",
          "type": "tuple[]"
        }
      ],
      "stateMutability": "view",
      "type": "function"
    },
    {
      "inputs": [],
      "name": "getBuyers",
      "outputs": [
        {
          "internalType": "address[]",
          "name": "",
          "type": "address[]"
        }
      ],
      "stateMutability": "view",
      "type": "function"
    },
    {
      "inputs": [],
      "name": "getFarmers",
      "outputs": [
        {
          "internalType": "address[]",
          "name": "",
          "type": "address[]"
        }
      ],
      "stateMutability": "view",
      "type": "function"
    },
    {
      "inputs": [],
      "name": "getMarketPrices",
      "outputs": [
        {
          "components": [
            {
              "internalType": "address",
              "name": "buyer",
              "type": "address"
            },
            {
              "internalType": "uint256",
              "name": "price",
              "type": "uint256"
            }
          ],
          "internalType": "struct CropLink.MarketPrice[]",
          "name": "",
          "type": "tuple[]"
        }
      ],
      "stateMutability": "view",
      "type": "function"
    },
    {
      "inputs": [
        {
          "internalType": "address",
          "name": "_farmer",
          "type": "address"
        }
      ],
      "name": "getProduceList",
      "outputs": [
        {
          "components": [
            {
              "internalType": "string",
              "name": "name",
              "type": "string"
            },
            {
              "internalType": "uint256",
              "name": "quantity",
              "type": "uint256"
            },
            {
              "internalType": "uint256",
              "name": "price",
              "type": "uint256"
            },
            {
              "internalType": "bool",
              "name": "sold",
              "type": "bool"
            }
          ],
          "internalType": "struct CropLink.Produce[]",
          "name": "",
          "type": "tuple[]"
        }
      ],
      "stateMutability": "view",
      "type": "function"
    },
    {
      "inputs": [
        {
          "internalType": "string",
          "name": "zipCode",
          "type": "string"
        },
        {
          "internalType": "string",
          "name": "apiKey",
          "type": "string"
        },
        {
          "internalType": "string",
          "name": "unit",
          "type": "string"
        }
      ],
      "name": "getWeatherTemperature",
      "outputs": [
        {
          "internalType": "int256",
          "name": "",
          "type": "int256"
        }
      ],
      "stateMutability": "view",
      "type": "function"
    },
    {
      "inputs": [
        {
          "internalType": "address",
          "name": "",
          "type": "address"
        }
      ],
      "name": "marketPriceVerified",
      "outputs": [
        {
          "internalType": "bool",
          "name": "",
          "type": "bool"
        }
      ],
      "stateMutability": "view",
      "type": "function"
    },
    {
      "inputs": [
        {
          "internalType": "address",
          "name": "",
          "type": "address"
        }
      ],
      "name": "marketPrices",
      "outputs": [
        {
          "internalType": "address",
          "name": "buyer",
          "type": "address"
        },
        {
          "internalType": "uint256",
          "name": "price",
          "type": "uint256"
        }
      ],
      "stateMutability": "view",
      "type": "function"
    },
    {
      "inputs": [
        {
          "internalType": "address",
          "name": "",
          "type": "address"
        },
        {
          "internalType": "uint256",
          "name": "",
          "type": "uint256"
        }
      ],
      "name": "produceList",
      "outputs": [
        {
          "internalType": "string",
          "name": "name",
          "type": "string"
        },
        {
          "internalType": "uint256",
          "name": "quantity",
          "type": "uint256"
        },
        {
          "internalType": "uint256",
          "name": "price",
          "type": "uint256"
        },
        {
          "internalType": "bool",
          "name": "sold",
          "type": "bool"
        }
      ],
      "stateMutability": "view",
      "type": "function"
    },
    {
      "inputs": [
        {
          "internalType": "address",
          "name": "_farmer",
          "type": "address"
        },
        {
          "internalType": "uint256",
          "name": "_index",
          "type": "uint256"
        }
      ],
      "name": "purchaseProduce",
      "outputs": [],
      "stateMutability": "payable",
      "type": "function"
    },
    {
      "inputs": [],
      "name": "registerAsBuyer",
      "outputs": [],
      "stateMutability": "nonpayable",
      "type": "function"
    },
    {
      "inputs": [],
      "name": "registerAsFarmer",
      "outputs": [],
      "stateMutability": "nonpayable",
      "type": "function"
    },
    {
      "inputs": [
        {
          "internalType": "uint256",
          "name": "_price",
          "type": "uint256"
        }
      ],
      "name": "setMarketPrice",
      "outputs": [],
      "stateMutability": "nonpayable",
      "type": "function"
    },
    {
      "inputs": [],
      "name": "treasury",
      "outputs": [
        {
          "internalType": "address payable",
          "name": "",
          "type": "address"
        }
      ],
      "stateMutability": "view",
      "type": "function"
    },
    {
      "inputs": [],
      "name": "treasuryBalance",
      "outputs": [
        {
          "internalType": "uint256",
          "name": "",
          "type": "uint256"
        }
      ],
      "stateMutability": "view",
      "type": "function"
    },
    {
      "inputs": [],
      "name": "verifyBuyer",
      "outputs": [],
      "stateMutability": "nonpayable",
      "type": "function"
    },
    {
      "inputs": [],
      "name": "verifyFarmer",
      "outputs": [],
      "stateMutability": "nonpayable",
      "type": "function"
    },
    {
      "inputs": [],
      "name": "weatherContract",
      "outputs": [
        {
          "internalType": "contract Weathercontract",
          "name": "",
          "type": "address"
        }
      ],
      "stateMutability": "view",
      "type": "function"
    }
  ],
  "bytecode": "0x60806040523480156200001157600080fd5b5060405162004b3738038062004b37833981016040819052620000349162000187565b818160405162000044906200014e565b6001600160a01b03928316815291166020820152604001604051809103906000f08015801562000078573d6000803e3d6000fd5b50600180546001600160a01b0319166001600160a01b0392909216919091179055604051620000a7906200015c565b604051809103906000f080158015620000c4573d6000803e3d6000fd5b50600080546001600160a01b03929092166001600160a01b031992831617905560028054821633179055674563918244f400006003556006805490911673b9756312523826a566e222a34793e414a81c88e117905550507f30656636653630383830653234636236396362393961316361643736663135616007556402540be400600855620001bf565b61256580620023f883390190565b6101da806200495d83390190565b80516001600160a01b03811681146200018257600080fd5b919050565b600080604083850312156200019b57600080fd5b620001a6836200016a565b9150620001b6602084016200016a565b90509250929050565b61222980620001cf6000396000f3fe6080604052600436106101cc5760003560e01c806376a64dd2116100f7578063b9cc161411610095578063dec4129d11610064578063dec4129d14610593578063e179c508146105a8578063e6658f9f146105d8578063f64bfaba1461060857600080fd5b8063b9cc1614146104f4578063bda71d0414610514578063bf8cfc5214610533578063c4aaa0831461056357600080fd5b80639573b60c116100d15780639573b60c1461047157806397a993aa14610484578063b380b202146104b4578063b7b4f63a146104d457600080fd5b806376a64dd21461040f578063789f8d401461042f578063862a623c1461045157600080fd5b8063313dab201161016f5780634b6695841161013e5780634b6695841461038d578063556b790f146103a25780635b4a5cf2146103da57806361d027b3146103ef57600080fd5b8063313dab20146102f757806337ef3bb81461030d578063401b21681461032d57806348da542d1461036d57600080fd5b806309067ed0116101ab57806309067ed0146102285780630bd528061461023d578063181ae68f1461026a57806329b1f863146102c957600080fd5b80623bdc74146101d157806302241739146101e857806308bdeee614610213575b600080fd5b3480156101dd57600080fd5b506101e661061d565b005b3480156101f457600080fd5b506101fd61074f565b60405161020a9190611aa7565b60405180910390f35b34801561021f57600080fd5b506101e66108a2565b34801561023457600080fd5b506101e6610933565b34801561024957600080fd5b5061025d610258366004611b1b565b6109f1565b60405161020a9190611b83565b34801561027657600080fd5b506102aa610285366004611b1b565b600e60205260009081526040902080546001909101546001600160a01b039091169082565b604080516001600160a01b03909316835260208301919091520161020a565b3480156102d557600080fd5b506102e96102e4366004611cb3565b610b80565b60405190815260200161020a565b34801561030357600080fd5b506102e960035481565b34801561031957600080fd5b506101e6610328366004611d3b565b610bfe565b34801561033957600080fd5b5061035d610348366004611b1b565b60096020526000908152604090205460ff1681565b604051901515815260200161020a565b34801561037957600080fd5b506101e6610388366004611d54565b610df8565b34801561039957600080fd5b5061025d610eef565b3480156103ae57600080fd5b506103c26103bd366004611d3b565b6111a2565b6040516001600160a01b03909116815260200161020a565b3480156103e657600080fd5b506101e66111cc565b3480156103fb57600080fd5b506002546103c2906001600160a01b031681565b34801561041b57600080fd5b506101e661042a366004611da2565b61128a565b34801561043b57600080fd5b506104446113c4565b60405161020a9190611df9565b34801561045d57600080fd5b506001546103c2906001600160a01b031681565b6101e661047f366004611e46565b611426565b34801561049057600080fd5b5061035d61049f366004611b1b565b600a6020526000908152604090205460ff1681565b3480156104c057600080fd5b506101e66104cf366004611d3b565b6116d7565b3480156104e057600080fd5b506000546103c2906001600160a01b031681565b34801561050057600080fd5b506103c261050f366004611d3b565b6117a3565b34801561052057600080fd5b506101e661052f366004611e70565b5050565b34801561053f57600080fd5b5061055361054e366004611e46565b6117b3565b60405161020a9493929190611e92565b34801561056f57600080fd5b5061035d61057e366004611b1b565b600c6020526000908152604090205460ff1681565b34801561059f57600080fd5b506101e661188d565b3480156105b457600080fd5b5061035d6105c3366004611b1b565b600f6020526000908152604090205460ff1681565b3480156105e457600080fd5b5061035d6105f3366004611b1b565b600b6020526000908152604090205460ff1681565b34801561061457600080fd5b5061044461191d565b336000908152600b602052604090205460ff1661069b5760405162461bcd60e51b815260206004820152603160248201527f4f6e6c79207665726966696564206661726d6572732063616e20636c61696d2060448201527074726561737572792062656e656669747360781b60648201526084015b60405180910390fd5b66b1a2bc2ec5000060035410156106ff5760405162461bcd60e51b815260206004820152602260248201527f496e73756666696369656e742066756e647320696e2074686520747265617375604482015261727960f01b6064820152608401610692565b604051339060009066b1a2bc2ec500009082818181858883f1935050505015801561072e573d6000803e3d6000fd5b5066b1a2bc2ec50000600360008282546107489190611ed9565b9091555050565b60055460609060009067ffffffffffffffff81111561077057610770611c10565b6040519080825280602002602001820160405280156107b557816020015b604080518082019091526000808252602082015281526020019060019003908161078e5790505b50905060005b60055481101561089c576000600e6000600584815481106107de576107de611ef2565b60009182526020808320909101546001600160a01b03168352820192909252604001902060010154111561088a57600e60006005838154811061082357610823611ef2565b60009182526020808320909101546001600160a01b0390811684528382019490945260409283019091208251808401909352805490931682526001929092015491810191909152825183908390811061087e5761087e611ef2565b60200260200101819052505b8061089481611f08565b9150506107bb565b50919050565b3360009081526009602052604090205460ff166109175760405162461bcd60e51b815260206004820152602d60248201527f4f6e6c792072656769737465726564206661726d6572732063616e207665726960448201526c6679207468656d73656c76657360981b6064820152608401610692565b336000908152600b60205260409020805460ff19166001179055565b3360009081526009602052604090205460ff16156109935760405162461bcd60e51b815260206004820152601c60248201527f416c72656164792072656769737465726564206173206661726d6572000000006044820152606401610692565b336000818152600960205260408120805460ff191660019081179091556004805491820181559091527f8a35acfbc15ff81a39ae7d344fd709f28e8600b4aa8c65c6b64bfe7fe36bd19b0180546001600160a01b0319169091179055565b6001600160a01b03811660009081526009602052604090205460609060ff16610a555760405162461bcd60e51b8152602060048201526016602482015275496e76616c6964206661726d6572206164647265737360501b6044820152606401610692565b6001600160a01b0382166000908152600d6020908152604080832080548251818502810185019093528083529193909284015b82821015610b755783829060005260206000209060040201604051806080016040529081600082018054610abb90611f21565b80601f0160208091040260200160405190810160405280929190818152602001828054610ae790611f21565b8015610b345780601f10610b0957610100808354040283529160200191610b34565b820191906000526020600020905b815481529060010190602001808311610b1757829003601f168201915b50505091835250506001828101546020808401919091526002840154604084015260039093015460ff16151560609092019190915291835292019101610a88565b505050509050919050565b600080546040516329b1f86360e01b81526001600160a01b03909116906329b1f86390610bb590879087908790600401611f55565b602060405180830381865afa158015610bd2573d6000803e3d6000fd5b505050506040513d601f19601f82011682018060405250810190610bf69190611f98565b949350505050565b3360009081526009602052604090205460ff16610c705760405162461bcd60e51b815260206004820152602a60248201527f4f6e6c792072656769737465726564206661726d6572732063616e2064656c6560448201526974652070726f6475636560b01b6064820152608401610692565b336000908152600d6020526040902080548210610c9f5760405162461bcd60e51b815260040161069290611fb1565b6000818381548110610cb357610cb3611ef2565b60009182526020909120600490910201600381015490915060ff1615610d1b5760405162461bcd60e51b815260206004820152601a60248201527f43616e6e6f742064656c65746520736f6c642070726f647563650000000000006044820152606401610692565b81548290610d2b90600190611ed9565b81548110610d3b57610d3b611ef2565b9060005260206000209060040201828481548110610d5b57610d5b611ef2565b6000918252602090912060049091020180610d76838261202f565b5060018281015490820155600280830154908201556003918201549101805460ff191660ff90921615159190911790558154829080610db757610db7612110565b60008281526020812060001990920191600483020190610dd78282611a51565b506000600182018190556002820155600301805460ff191690559055505050565b3360009081526009602052604090205460ff16610e675760405162461bcd60e51b815260206004820152602760248201527f4f6e6c792072656769737465726564206661726d6572732063616e206164642060448201526670726f6475636560c81b6064820152608401610692565b336000908152600d602090815260408083208151608081018352878152808401879052918201859052606082018490528054600181018255908452919092208251600490920201908190610ebb9082612126565b5060208201516001820155604082015160028201556060909101516003909101805460ff1916911515919091179055505050565b60606000805b600454811015610f5957600d600060048381548110610f1657610f16611ef2565b60009182526020808320909101546001600160a01b03168352820192909252604001902054610f4590836121e0565b915080610f5181611f08565b915050610ef5565b5060008167ffffffffffffffff811115610f7557610f75611c10565b604051908082528060200260200182016040528015610fd357816020015b610fc060405180608001604052806060815260200160008152602001600081526020016000151581525090565b815260200190600190039081610f935790505b5090506000805b6004548110156111995760005b600d600060048481548110610ffe57610ffe611ef2565b60009182526020808320909101546001600160a01b0316835282019290925260400190205481101561118657600d60006004848154811061104157611041611ef2565b60009182526020808320909101546001600160a01b03168352820192909252604001902080548290811061107757611077611ef2565b90600052602060002090600402016040518060800160405290816000820180546110a090611f21565b80601f01602080910402602001604051908101604052809291908181526020018280546110cc90611f21565b80156111195780601f106110ee57610100808354040283529160200191611119565b820191906000526020600020905b8154815290600101906020018083116110fc57829003601f168201915b5050509183525050600182015460208201526002820154604082015260039091015460ff161515606090910152845185908590811061115a5761115a611ef2565b6020026020010181905250828061117090611f08565b935050808061117e90611f08565b915050610fe7565b508061119181611f08565b915050610fda565b50909392505050565b600581815481106111b257600080fd5b6000918252602090912001546001600160a01b0316905081565b336000908152600a602052604090205460ff161561122c5760405162461bcd60e51b815260206004820152601b60248201527f416c7265616479207265676973746572656420617320627579657200000000006044820152606401610692565b336000818152600a60205260408120805460ff191660019081179091556005805491820181559091527f036b6384b5eca791c62761152d0c79bb0604c104a5fb6f4eb0703f3154bb3db00180546001600160a01b0319169091179055565b3360009081526009602052604090205460ff166112fa5760405162461bcd60e51b815260206004820152602860248201527f4f6e6c792072656769737465726564206661726d6572732063616e20656469746044820152672070726f6475636560c01b6064820152608401610692565b336000908152600d60205260409020805485106113295760405162461bcd60e51b815260040161069290611fb1565b600081868154811061133d5761133d611ef2565b60009182526020909120600490910201600381015490915060ff16156113a55760405162461bcd60e51b815260206004820152601860248201527f43616e6e6f74206564697420736f6c642070726f6475636500000000000000006044820152606401610692565b806113b08682612126565b506001810193909355506002909101555050565b6060600480548060200260200160405190810160405280929190818152602001828054801561141c57602002820191906000526020600020905b81546001600160a01b031681526001909101906020018083116113fe575b5050505050905090565b336000908152600a602052604090205460ff166114995760405162461bcd60e51b815260206004820152602b60248201527f4f6e6c792072656769737465726564206275796572732063616e20707572636860448201526a6173652070726f6475636560a81b6064820152608401610692565b336000908152600c602052604090205460ff1661150a5760405162461bcd60e51b815260206004820152602960248201527f4f6e6c79207665726966696564206275796572732063616e2070757263686173604482015268652070726f6475636560b81b6064820152608401610692565b6001600160a01b0382166000908152600d60205260409020805482106115425760405162461bcd60e51b815260040161069290611fb1565b600081838154811061155657611556611ef2565b60009182526020909120600490910201600381015490915060ff16156115be5760405162461bcd60e51b815260206004820152601d60248201527f50726f647563652068617320616c7265616479206265656e20736f6c640000006044820152606401610692565b6001600160a01b0384166000908152600f602052604090205460ff1615611665576001600160a01b0384166000908152600e602052604090206001015434101561163f5760405162461bcd60e51b8152602060048201526012602482015271496e73756666696369656e742066756e647360701b6044820152606401610692565b6001600160a01b0384166000908152600e602052604090206001015460028201556116b8565b806002015434146116b85760405162461bcd60e51b815260206004820152601960248201527f496e636f727265637420616d6f756e74206f662066756e6473000000000000006044820152606401610692565b60038101805460ff191660011790556116d1848461197d565b50505050565b336000908152600a602052604090205460ff1661174a5760405162461bcd60e51b815260206004820152602b60248201527f4f6e6c792072656769737465726564206275796572732063616e20736574206d60448201526a61726b657420707269636560a81b6064820152608401610692565b6040805180820182523380825260208083019485526000918252600e8152838220925183546001600160a01b0319166001600160a01b039091161783559351600192830155600f9093529120805460ff19169091179055565b600481815481106111b257600080fd5b600d60205281600052604060002081815481106117cf57600080fd5b9060005260206000209060040201600091509150508060000180546117f390611f21565b80601f016020809104026020016040519081016040528092919081815260200182805461181f90611f21565b801561186c5780601f106118415761010080835404028352916020019161186c565b820191906000526020600020905b81548152906001019060200180831161184f57829003601f168201915b50505050600183015460028401546003909401549293909290915060ff1684565b336000908152600a602052604090205460ff166119015760405162461bcd60e51b815260206004820152602c60248201527f4f6e6c792072656769737465726564206275796572732063616e20766572696660448201526b79207468656d73656c76657360a01b6064820152608401610692565b336000908152600c60205260409020805460ff19166001179055565b6060600580548060200260200160405190810160405280929190818152602001828054801561141c576020028201919060005260206000209081546001600160a01b031681526001909101906020018083116113fe575050505050905090565b6001600160a01b0382166000908152600d60205260409020805482106119b55760405162461bcd60e51b815260040161069290611fb1565b805481906119c590600190611ed9565b815481106119d5576119d5611ef2565b90600052602060002090600402018183815481106119f5576119f5611ef2565b6000918252602090912060049091020180611a10838261202f565b5060018281015490820155600280830154908201556003918201549101805460ff191660ff90921615159190911790558054819080610db757610db7612110565b508054611a5d90611f21565b6000825580601f10611a6d575050565b601f016020900490600052602060002090810190611a8b9190611a8e565b50565b5b80821115611aa35760008155600101611a8f565b5090565b602080825282518282018190526000919060409081850190868401855b82811015611af257815180516001600160a01b03168552860151868501529284019290850190600101611ac4565b5091979650505050505050565b80356001600160a01b0381168114611b1657600080fd5b919050565b600060208284031215611b2d57600080fd5b611b3682611aff565b9392505050565b6000815180845260005b81811015611b6357602081850181015186830182015201611b47565b506000602082860101526020601f19601f83011685010191505092915050565b60006020808301818452808551808352604092508286019150828160051b87010184880160005b83811015611c0257603f19898403018552815160808151818652611bd082870182611b3d565b838b0151878c0152898401518a8801526060938401511515939096019290925250509386019390860190600101611baa565b509098975050505050505050565b634e487b7160e01b600052604160045260246000fd5b600082601f830112611c3757600080fd5b813567ffffffffffffffff80821115611c5257611c52611c10565b604051601f8301601f19908116603f01168101908282118183101715611c7a57611c7a611c10565b81604052838152866020858801011115611c9357600080fd5b836020870160208301376000602085830101528094505050505092915050565b600080600060608486031215611cc857600080fd5b833567ffffffffffffffff80821115611ce057600080fd5b611cec87838801611c26565b94506020860135915080821115611d0257600080fd5b611d0e87838801611c26565b93506040860135915080821115611d2457600080fd5b50611d3186828701611c26565b9150509250925092565b600060208284031215611d4d57600080fd5b5035919050565b600080600060608486031215611d6957600080fd5b833567ffffffffffffffff811115611d8057600080fd5b611d8c86828701611c26565b9660208601359650604090950135949350505050565b60008060008060808587031215611db857600080fd5b84359350602085013567ffffffffffffffff811115611dd657600080fd5b611de287828801611c26565b949794965050505060408301359260600135919050565b6020808252825182820181905260009190848201906040850190845b81811015611e3a5783516001600160a01b031683529284019291840191600101611e15565b50909695505050505050565b60008060408385031215611e5957600080fd5b611e6283611aff565b946020939093013593505050565b60008060408385031215611e8357600080fd5b50508035926020909101359150565b608081526000611ea56080830187611b3d565b60208301959095525060408101929092521515606090910152919050565b634e487b7160e01b600052601160045260246000fd5b81810381811115611eec57611eec611ec3565b92915050565b634e487b7160e01b600052603260045260246000fd5b600060018201611f1a57611f1a611ec3565b5060010190565b600181811c90821680611f3557607f821691505b60208210810361089c57634e487b7160e01b600052602260045260246000fd5b606081526000611f686060830186611b3d565b8281036020840152611f7a8186611b3d565b90508281036040840152611f8e8185611b3d565b9695505050505050565b600060208284031215611faa57600080fd5b5051919050565b602080825260159082015274092dcecc2d8d2c840e0e4dec8eac6ca40d2dcc8caf605b1b604082015260600190565b601f82111561202a57600081815260208120601f850160051c810160208610156120075750805b601f850160051c820191505b8181101561202657828155600101612013565b5050505b505050565b81810361203a575050565b6120448254611f21565b67ffffffffffffffff81111561205c5761205c611c10565b6120708161206a8454611f21565b84611fe0565b6000601f8211600181146120a4576000831561208c5750848201545b600019600385901b1c1916600184901b178455612109565b600085815260209020601f19841690600086815260209020845b838110156120de57828601548255600195860195909101906020016120be565b50858310156120fc5781850154600019600388901b60f8161c191681555b50505060018360011b0184555b5050505050565b634e487b7160e01b600052603160045260246000fd5b815167ffffffffffffffff81111561214057612140611c10565b61214e8161206a8454611f21565b602080601f831160018114612183576000841561216b5750858301515b600019600386901b1c1916600185901b178555612026565b600085815260208120601f198616915b828110156121b257888601518255948401946001909101908401612193565b50858210156121d05787850151600019600388901b60f8161c191681555b5050505050600190811b01905550565b80820180821115611eec57611eec611ec356fea2646970667358221220334ccee5b7312a6aa445357d97a0b4034a69ea6d053bd4ac613a62302c17d0be64736f6c63430008120033608060405260016004553480156200001657600080fd5b506040516200256538038062002565833981016040819052620000399162000094565b600280546001600160a01b0319166001600160a01b038416179055600380546001600160a01b0319166001600160a01b0383161790555050620000cc565b80516001600160a01b03811681146200008f57600080fd5b919050565b60008060408385031215620000a857600080fd5b620000b38362000077565b9150620000c36020840162000077565b90509250929050565b61248980620000dc6000396000f3fe608060405234801561001057600080fd5b50600436106100b45760003560e01c80638dc654a2116100715780638dc654a21461024f5780639c2b98fb14610257578063b18b78dd14610279578063dffe289414610299578063e13caa63146102ac578063ed6a7175146102bf57600080fd5b80630d6011b3146100b957806324a1065d146100ce578063371eaced146100e157806337b95e86146100f45780634d425a84146102105780637adbf97314610223575b600080fd5b6100cc6100c73660046119a8565b6102e3565b005b6100cc6100dc366004611a2a565b6104c9565b6100cc6100ef366004611ba6565b610684565b610196610102366004611c25565b60066020526000908152604090208054600191820154909162ffffff808316926301000000810482169266010000000000008204831692690100000000000000000083041691600160601b810490910b9061ffff600160701b8204811691600160801b81049091169060ff600160901b8204811691600160981b8104821691600160a01b8204811691600160a81b9004168c565b604080519c8d5262ffffff9b8c1660208e0152998b16998c019990995296891660608b015294909716608089015260019290920b60a088015261ffff90811660c08801521660e086015260ff9384166101008601528316610120850152821661014084015216610160820152610180015b60405180910390f35b6100cc61021e366004611c3e565b610729565b6100cc610231366004611cea565b600380546001600160a01b0319166001600160a01b03831617905550565b6100cc6109c5565b61026a610265366004611c25565b610afe565b60405161020793929190611d6a565b610281610bac565b6040516001600160a01b039091168152602001610207565b6100cc6102a7366004611d9a565b610bc5565b6100cc6102ba366004611df2565b610c56565b6102d26102cd366004611c25565b610ce0565b604051610207959493929190611e38565b60006102f787306337ff8a2560e21b610f2f565b905061034e60405180604001604052806008815260200167195b991c1bda5b9d60c21b815250604051806040016040528060088152602001673637b1b0ba34b7b760c11b81525083610f549092919063ffffffff16565b6103ad604051806040016040528060038152602001621b185d60ea1b81525086868080601f016020809104026020016040519081016040528093929190818152602001838380828437600092019190915250869493925050610f549050565b61040c604051806040016040528060038152602001623637b760e91b81525084848080601f016020809104026020016040519081016040528093929190818152602001838380828437600092019190915250869493925050610f549050565b60006104188288610f72565b90506104bf816000604051806040016040528060088152602001673637b1b0ba34b7b760c11b81525089898080601f01602080910402602001604051908101604052809392919081815260200183838082843760009201919091525050604080516020601f8d018190048102820181019092528b815292508b91508a9081908401838280828437600092018290525060408051602081019091529081529250610f95915050565b5050505050505050565b60006104dd863063e13caa6360e01b610f2f565b905061053e60405180604001604052806008815260200167195b991c1bda5b9d60c21b8152506040518060400160405280601281526020017163757272656e742d636f6e646974696f6e7360701b81525083610f549092919063ffffffff16565b60408051808201909152600b81526a6c6f636174696f6e4b657960a81b602082015261056c9082908661104c565b6105cd60405180604001604052806005815260200164756e69747360d81b81525084848080601f016020809104026020016040519081016040528093929190818152602001838380828437600092019190915250869493925050610f549050565b60006105d98287610f72565b905061067b81866040518060400160405280601281526020017163757272656e742d636f6e646974696f6e7360701b815250604051806040016040528060018152602001600360fc1b815250604051806040016040528060018152602001600360fc1b81525089898080601f016020809104026020016040519081016040528093929190818152602001838380828437600092019190915250610f9592505050565b50505050505050565b60008481526005602052604090205484906001600160a01b031633146106c55760405162461bcd60e51b81526004016106bc90611e97565b60405180910390fd5b60008181526005602052604080822080546001600160a01b03191690555182917f7cc135e0cebb02c3480ae5d74d377283180a2601f8f644edf7987b009316c63a91a2831561072257610718858461106a565b61072285836110d2565b5050505050565b600061073d893063371eaced60e01b610f2f565b90506107a960405180604001604052806008815260200167195b991c1bda5b9d60c21b8152506040518060400160405280601b81526020017f6c6f636174696f6e2d63757272656e742d636f6e646974696f6e73000000000081525083610f549092919063ffffffff16565b610808604051806040016040528060038152602001621b185d60ea1b81525088888080601f016020809104026020016040519081016040528093929190818152602001838380828437600092019190915250869493925050610f549050565b610867604051806040016040528060038152602001623637b760e91b81525086868080601f016020809104026020016040519081016040528093929190818152602001838380828437600092019190915250869493925050610f549050565b6108c860405180604001604052806005815260200164756e69747360d81b81525084848080601f016020809104026020016040519081016040528093929190818152602001838380828437600092019190915250869493925050610f549050565b60006108d4828a610f72565b90506109b68160006040518060400160405280601b81526020017f6c6f636174696f6e2d63757272656e742d636f6e646974696f6e7300000000008152508b8b8080601f01602080910402602001604051908101604052809392919081815260200183838082843760009201919091525050604080516020601f8f018190048102820181019092528d815292508d91508c908190840183828082843760009201919091525050604080516020601f8e018190048102820181019092528c815292508c91508b9081908401838280828437600092019190915250610f9592505050565b50505050505050505050565b50565b60006109d96002546001600160a01b031690565b6040516370a0823160e01b81523060048201529091506001600160a01b0382169063a9059cbb90339083906370a0823190602401602060405180830381865afa158015610a2a573d6000803e3d6000fd5b505050506040513d601f19601f82011682018060405250810190610a4e9190611edf565b6040516001600160e01b031960e085901b1681526001600160a01b03909216600483015260248201526044016020604051808303816000875af1158015610a99573d6000803e3d6000fd5b505050506040513d601f19601f82011682018060405250810190610abd9190611ef8565b6109c25760405162461bcd60e51b81526020600482015260126024820152712ab730b13632903a37903a3930b739b332b960711b60448201526064016106bc565b60076020526000908152604090208054600182018054919291610b2090611f15565b80601f0160208091040260200160405190810160405280929190818152602001828054610b4c90611f15565b8015610b995780601f10610b6e57610100808354040283529160200191610b99565b820191906000526020600020905b815481529060010190602001808311610b7c57829003601f168201915b5050506002909301549192505060f01b83565b6000610bc06003546001600160a01b031690565b905090565b60008381526005602052604090205483906001600160a01b03163314610bfd5760405162461bcd60e51b81526004016106bc90611e97565b60008181526005602052604080822080546001600160a01b03191690555182917f7cc135e0cebb02c3480ae5d74d377283180a2601f8f644edf7987b009316c63a91a28215610c5057610c50848361106a565b50505050565b60008281526005602052604090205482906001600160a01b03163314610c8e5760405162461bcd60e51b81526004016106bc90611e97565b60008181526005602052604080822080546001600160a01b03191690555182917f7cc135e0cebb02c3480ae5d74d377283180a2601f8f644edf7987b009316c63a91a2610cdb83836110d2565b505050565b60086020526000908152604090208054600182018054919291610d0290611f15565b80601f0160208091040260200160405190810160405280929190818152602001828054610d2e90611f15565b8015610d7b5780601f10610d5057610100808354040283529160200191610d7b565b820191906000526020600020905b815481529060010190602001808311610d5e57829003601f168201915b505050505090806002018054610d9090611f15565b80601f0160208091040260200160405190810160405280929190818152602001828054610dbc90611f15565b8015610e095780601f10610dde57610100808354040283529160200191610e09565b820191906000526020600020905b815481529060010190602001808311610dec57829003601f168201915b505050505090806003018054610e1e90611f15565b80601f0160208091040260200160405190810160405280929190818152602001828054610e4a90611f15565b8015610e975780601f10610e6c57610100808354040283529160200191610e97565b820191906000526020600020905b815481529060010190602001808311610e7a57829003601f168201915b505050505090806004018054610eac90611f15565b80601f0160208091040260200160405190810160405280929190818152602001828054610ed890611f15565b8015610f255780601f10610efa57610100808354040283529160200191610f25565b820191906000526020600020905b815481529060010190602001808311610f0857829003601f168201915b5050505050905085565b610f37611925565b610f3f611925565b610f4b81868686611298565b95945050505050565b6080830151610f6390836112de565b6080830151610cdb90826112de565b600354600090610f8c906001600160a01b031684846112f5565b90505b92915050565b610fc76040518060a0016040528060008152602001606081526020016060815260200160608152602001606081525090565b85815260208082018681526040808401879052606084018690526080840185905260008a81526008909352909120825181559051829190600182019061100d9082611f97565b50604082015160028201906110229082611f97565b50606082015160038201906110379082611f97565b50608082015160048201906109b69082611f97565b608083015161105b90836112de565b6080830151610cdb9082611388565b6000818060200190518101906110809190612073565b60008481526007602090815260409091208251815590820151919250829160018201906110ad9082611f97565b50604091909101516002909101805461ffff191660f09290921c919091179055505050565b6000818060200190518101906110e8919061217a565b905080600660008581526020019081526020016000206000820151816000015560208201518160010160006101000a81548162ffffff021916908362ffffff16021790555060408201518160010160036101000a81548162ffffff021916908362ffffff16021790555060608201518160010160066101000a81548162ffffff021916908362ffffff16021790555060808201518160010160096101000a81548162ffffff021916908362ffffff16021790555060a082015181600101600c6101000a81548161ffff021916908360010b61ffff16021790555060c082015181600101600e6101000a81548161ffff021916908361ffff16021790555060e08201518160010160106101000a81548161ffff021916908361ffff1602179055506101008201518160010160126101000a81548160ff021916908360ff1602179055506101208201518160010160136101000a81548160ff021916908360ff1602179055506101408201518160010160146101000a81548160ff021916908360ff1602179055506101608201518160010160156101000a81548160ff021916908360ff160217905550905050505050565b6112a0611925565b6112b085608001516101006113b1565b50508284526001600160a01b03821660208501526001600160e01b031981166040850152835b949350505050565b6112eb8260038351611416565b610cdb828261151d565b600454600090611306816001612275565b600455835160408086015160808701515191516000936320214ca360e11b9361133e9386938493923092918a91600191602401612288565b60408051601f198184030181529190526020810180516001600160e01b03166001600160e01b031990931692909217909152905061137e86838684611544565b9695505050505050565b6001600160401b038111156113a5576113a182826116a2565b5050565b6113a182600083611416565b6040805180820190915260608152600060208201526113d16020836122f0565b156113f9576113e16020836122f0565b6113ec906020612312565b6113f69083612275565b91505b506020828101829052604080518085526000815290920101905290565b6017816001600160401b03161161143a57610c508360e0600585901b1683176116d9565b60ff816001600160401b03161161147657611460836018611fe0600586901b16176116d9565b50610c50836001600160401b03831660016116fe565b61ffff816001600160401b0316116114b35761149d836019611fe0600586901b16176116d9565b50610c50836001600160401b03831660026116fe565b63ffffffff816001600160401b0316116114f2576114dc83601a611fe0600586901b16176116d9565b50610c50836001600160401b03831660046116fe565b61150783601b611fe0600586901b16176116d9565b50610c50836001600160401b03831660086116fe565b604080518082019091526060815260006020820152610f8c83846000015151848551611724565b6040516bffffffffffffffffffffffff193060601b1660208201526034810184905260009060540160408051808303601f1901815282825280516020918201206000818152600590925291812080546001600160a01b0319166001600160a01b038a1617905590925082917fb5e6e01e79f91267dc17b4e6314d5d4d03593d2ceee0fbb452b750bd70ea5af99190a2600254604051630200057560e51b81526001600160a01b0390911690634000aea09061160790889087908790600401612325565b6020604051808303816000875af1158015611626573d6000803e3d6000fd5b505050506040513d601f19601f8201168201806040525081019061164a9190611ef8565b6112d65760405162461bcd60e51b815260206004820152602360248201527f756e61626c6520746f207472616e73666572416e6443616c6c20746f206f7261604482015262636c6560e81b60648201526084016106bc565b6116ad8260c26116d9565b506113a182826040516020016116c591815260200190565b60405160208183030381529060405261180e565b604080518082019091526060815260006020820152610f8c838460000151518461181b565b6040805180820190915260608152600060208201526112d6848560000151518585611876565b604080518082019091526060815260006020820152825182111561174757600080fd5b60208501516117568386612275565b11156117895761178985611779876020015187866117749190612275565b6118f7565b61178490600261234c565b61190e565b6000808651805187602083010193508088870111156117a85787860182525b505050602084015b602084106117e857805182526117c7602083612275565b91506117d4602082612275565b90506117e1602085612312565b93506117b0565b51815160001960208690036101000a019081169019919091161790525083949350505050565b6112eb8260028351611416565b60408051808201909152606081526000602082015283602001518310611850576118508485602001516002611784919061234c565b835180516020858301018481535080850361186c576001810182525b5093949350505050565b604080518082019091526060815260006020820152602085015161189a8584612275565b11156118ae576118ae856117798685612275565b600060016118be84610100612447565b6118c89190612312565b90508551838682010185831982511617815250805184870111156118ec5783860181525b509495945050505050565b600081831115611908575081610f8f565b50919050565b815161191a83836113b1565b50610c50838261151d565b6040805160a0810182526000808252602080830182905282840182905260608084018390528451808601909552845283015290608082015290565b60008083601f84011261197257600080fd5b5081356001600160401b0381111561198957600080fd5b6020830191508360208285010111156119a157600080fd5b9250929050565b600080600080600080608087890312156119c157600080fd5b863595506020870135945060408701356001600160401b03808211156119e657600080fd5b6119f28a838b01611960565b90965094506060890135915080821115611a0b57600080fd5b50611a1889828a01611960565b979a9699509497509295939492505050565b600080600080600060808688031215611a4257600080fd5b85359450602086013593506040860135925060608601356001600160401b03811115611a6d57600080fd5b611a7988828901611960565b969995985093965092949392505050565b80151581146109c257600080fd5b634e487b7160e01b600052604160045260246000fd5b604051606081016001600160401b0381118282101715611ad057611ad0611a98565b60405290565b60405161018081016001600160401b0381118282101715611ad057611ad0611a98565b604051601f8201601f191681016001600160401b0381118282101715611b2157611b21611a98565b604052919050565b60006001600160401b03821115611b4257611b42611a98565b50601f01601f191660200190565b600082601f830112611b6157600080fd5b8135611b74611b6f82611b29565b611af9565b818152846020838601011115611b8957600080fd5b816020850160208301376000918101602001919091529392505050565b60008060008060808587031215611bbc57600080fd5b843593506020850135611bce81611a8a565b925060408501356001600160401b0380821115611bea57600080fd5b611bf688838901611b50565b93506060870135915080821115611c0c57600080fd5b50611c1987828801611b50565b91505092959194509250565b600060208284031215611c3757600080fd5b5035919050565b60008060008060008060008060a0898b031215611c5a57600080fd5b883597506020890135965060408901356001600160401b0380821115611c7f57600080fd5b611c8b8c838d01611960565b909850965060608b0135915080821115611ca457600080fd5b611cb08c838d01611960565b909650945060808b0135915080821115611cc957600080fd5b50611cd68b828c01611960565b999c989b5096995094979396929594505050565b600060208284031215611cfc57600080fd5b81356001600160a01b0381168114611d1357600080fd5b9392505050565b60005b83811015611d35578181015183820152602001611d1d565b50506000910152565b60008151808452611d56816020860160208601611d1a565b601f01601f19169290920160200192915050565b838152606060208201526000611d836060830185611d3e565b905061ffff60f01b83166040830152949350505050565b600080600060608486031215611daf57600080fd5b833592506020840135611dc181611a8a565b915060408401356001600160401b03811115611ddc57600080fd5b611de886828701611b50565b9150509250925092565b60008060408385031215611e0557600080fd5b8235915060208301356001600160401b03811115611e2257600080fd5b611e2e85828601611b50565b9150509250929050565b85815260a060208201526000611e5160a0830187611d3e565b8281036040840152611e638187611d3e565b90508281036060840152611e778186611d3e565b90508281036080840152611e8b8185611d3e565b98975050505050505050565b60208082526028908201527f536f75726365206d75737420626520746865206f7261636c65206f6620746865604082015267081c995c5d595cdd60c21b606082015260800190565b600060208284031215611ef157600080fd5b5051919050565b600060208284031215611f0a57600080fd5b8151611d1381611a8a565b600181811c90821680611f2957607f821691505b60208210810361190857634e487b7160e01b600052602260045260246000fd5b601f821115610cdb57600081815260208120601f850160051c81016020861015611f705750805b601f850160051c820191505b81811015611f8f57828155600101611f7c565b505050505050565b81516001600160401b03811115611fb057611fb0611a98565b611fc481611fbe8454611f15565b84611f49565b602080601f831160018114611ff95760008415611fe15750858301515b600019600386901b1c1916600185901b178555611f8f565b600085815260208120601f198616915b8281101561202857888601518255948401946001909101908401612009565b50858210156120465787850151600019600388901b60f8161c191681555b5050505050600190811b01905550565b80516001600160f01b03198116811461206e57600080fd5b919050565b6000602080838503121561208657600080fd5b82516001600160401b038082111561209d57600080fd5b90840190606082870312156120b157600080fd5b6120b9611aae565b8251815283830151828111156120ce57600080fd5b83019150601f820187136120e157600080fd5b81516120ef611b6f82611b29565b818152888683860101111561210357600080fd5b61211282878301888701611d1a565b828601525061212360408401612056565b60408201529695505050505050565b805162ffffff8116811461206e57600080fd5b8051600181900b811461206e57600080fd5b805161ffff8116811461206e57600080fd5b805160ff8116811461206e57600080fd5b6000610180828403121561218d57600080fd5b612195611ad6565b825181526121a560208401612132565b60208201526121b660408401612132565b60408201526121c760608401612132565b60608201526121d860808401612132565b60808201526121e960a08401612145565b60a08201526121fa60c08401612157565b60c082015261220b60e08401612157565b60e082015261010061221e818501612169565b90820152610120612230848201612169565b90820152610140612242848201612169565b90820152610160612254848201612169565b908201529392505050565b634e487b7160e01b600052601160045260246000fd5b80820180821115610f8f57610f8f61225f565b6001600160a01b0389811682526020820189905260408201889052861660608201526001600160e01b03198516608082015260a0810184905260c0810183905261010060e082018190526000906122e183820185611d3e565b9b9a5050505050505050505050565b60008261230d57634e487b7160e01b600052601260045260246000fd5b500690565b81810381811115610f8f57610f8f61225f565b60018060a01b0384168152826020820152606060408201526000610f4b6060830184611d3e565b8082028115828204841417610f8f57610f8f61225f565b600181815b8085111561239e5781600019048211156123845761238461225f565b8085161561239157918102915b93841c9390800290612368565b509250929050565b6000826123b557506001610f8f565b816123c257506000610f8f565b81600181146123d857600281146123e2576123fe565b6001915050610f8f565b60ff8411156123f3576123f361225f565b50506001821b610f8f565b5060208310610133831016604e8410600b8410161715612421575081810a610f8f565b61242b8383612363565b806000190482111561243f5761243f61225f565b029392505050565b6000610f8c83836123a656fea26469706673582212204214bc303467970b11b07f7e2075ae54e06fa91b28e6dcdc28dfaa42c3bcd1c164736f6c63430008120033608060405234801561001057600080fd5b506101ba806100206000396000f3fe608060405234801561001057600080fd5b506004361061002b5760003560e01c806329b1f86314610030575b600080fd5b61004761003e3660046100fc565b60199392505050565b60405190815260200160405180910390f35b634e487b7160e01b600052604160045260246000fd5b600082601f83011261008057600080fd5b813567ffffffffffffffff8082111561009b5761009b610059565b604051601f8301601f19908116603f011681019082821181831017156100c3576100c3610059565b816040528381528660208588010111156100dc57600080fd5b836020870160208301376000602085830101528094505050505092915050565b60008060006060848603121561011157600080fd5b833567ffffffffffffffff8082111561012957600080fd5b6101358783880161006f565b9450602086013591508082111561014b57600080fd5b6101578783880161006f565b9350604086013591508082111561016d57600080fd5b5061017a8682870161006f565b915050925092509256fea26469706673582212208d6f50c2a53f1ca28e4ce6afcb8e6268ba424f14a4ac854a056371cf54008a4564736f6c63430008120033",
  "linkReferences": {},
  "deployedLinkReferences": {}
}