{
  "_format": "hh-sol-artifact-1",
  "contractName": "Weathercontract",
  "sourceName": "contracts/Weathercontract.sol",
  "abi": [
    {
      "inputs": [
        {
          "internalType": "string",
          "name": "zipCode",
          "type": "string"
        },
        {
          "internalType": "string",
          "name": "apiKey",
          "type": "string"
        },
        {
          "internalType": "string",
          "name": "unit",
          "type": "string"
        }
      ],
      "name": "getWeatherTemperature",
      "outputs": [
        {
          "internalType": "int256",
          "name": "",
          "type": "int256"
        }
      ],
      "stateMutability": "pure",
      "type": "function"
    }
  ],
  "bytecode": "0x608060405234801561001057600080fd5b506101ba806100206000396000f3fe608060405234801561001057600080fd5b506004361061002b5760003560e01c806329b1f86314610030575b600080fd5b61004761003e3660046100fc565b60199392505050565b60405190815260200160405180910390f35b634e487b7160e01b600052604160045260246000fd5b600082601f83011261008057600080fd5b813567ffffffffffffffff8082111561009b5761009b610059565b604051601f8301601f19908116603f011681019082821181831017156100c3576100c3610059565b816040528381528660208588010111156100dc57600080fd5b836020870160208301376000602085830101528094505050505092915050565b60008060006060848603121561011157600080fd5b833567ffffffffffffffff8082111561012957600080fd5b6101358783880161006f565b9450602086013591508082111561014b57600080fd5b6101578783880161006f565b9350604086013591508082111561016d57600080fd5b5061017a8682870161006f565b915050925092509256fea26469706673582212208d6f50c2a53f1ca28e4ce6afcb8e6268ba424f14a4ac854a056371cf54008a4564736f6c63430008120033",
  "linkReferences": {},
  "deployedLinkReferences": {}
}